{
  "contractName": "DIDRegistry",
  "abi": [
    {
      "inputs": [],
      "stateMutability": "nonpayable",
      "type": "constructor"
    },
    {
      "inputs": [],
      "name": "ECDSAInvalidSignature",
      "type": "error"
    },
    {
      "inputs": [
        {
          "internalType": "uint256",
          "name": "length",
          "type": "uint256"
        }
      ],
      "name": "ECDSAInvalidSignatureLength",
      "type": "error"
    },
    {
      "inputs": [
        {
          "internalType": "bytes32",
          "name": "s",
          "type": "bytes32"
        }
      ],
      "name": "ECDSAInvalidSignatureS",
      "type": "error"
    },
    {
      "inputs": [
        {
          "internalType": "address",
          "name": "owner",
          "type": "address"
        }
      ],
      "name": "OwnableInvalidOwner",
      "type": "error"
    },
    {
      "inputs": [
        {
          "internalType": "address",
          "name": "account",
          "type": "address"
        }
      ],
      "name": "OwnableUnauthorizedAccount",
      "type": "error"
    },
    {
      "anonymous": false,
      "inputs": [
        {
          "indexed": true,
          "internalType": "string",
          "name": "adminDID",
          "type": "string"
        }
      ],
      "name": "AdminDIDSet",
      "type": "event"
    },
    {
      "anonymous": false,
      "inputs": [
        {
          "indexed": true,
          "internalType": "string",
          "name": "issuerDID",
          "type": "string"
        },
        {
          "indexed": true,
          "internalType": "string",
          "name": "recipientDID",
          "type": "string"
        }
      ],
      "name": "CredentialAccepted",
      "type": "event"
    },
    {
      "anonymous": false,
      "inputs": [
        {
          "indexed": true,
          "internalType": "string",
          "name": "didId",
          "type": "string"
        },
        {
          "indexed": true,
          "internalType": "address",
          "name": "controller",
          "type": "address"
        },
        {
          "indexed": false,
          "internalType": "string",
          "name": "publicKey",
          "type": "string"
        }
      ],
      "name": "DIDCreated",
      "type": "event"
    },
    {
      "anonymous": false,
      "inputs": [
        {
          "indexed": true,
          "internalType": "string",
          "name": "didId",
          "type": "string"
        }
      ],
      "name": "DIDDeactivated",
      "type": "event"
    },
    {
      "anonymous": false,
      "inputs": [
        {
          "indexed": true,
          "internalType": "string",
          "name": "didId",
          "type": "string"
        }
      ],
      "name": "DIDUpdated",
      "type": "event"
    },
    {
      "anonymous": false,
      "inputs": [
        {
          "indexed": true,
          "internalType": "address",
          "name": "previousOwner",
          "type": "address"
        },
        {
          "indexed": true,
          "internalType": "address",
          "name": "newOwner",
          "type": "address"
        }
      ],
      "name": "OwnershipTransferred",
      "type": "event"
    },
    {
      "anonymous": false,
      "inputs": [
        {
          "indexed": true,
          "internalType": "string",
          "name": "issuerDID",
          "type": "string"
        },
        {
          "indexed": false,
          "internalType": "uint256",
          "name": "newTrustScore",
          "type": "uint256"
        }
      ],
      "name": "TrustScoreUpdated",
      "type": "event"
    },
    {
      "anonymous": false,
      "inputs": [
        {
          "indexed": true,
          "internalType": "string",
          "name": "issuerDID",
          "type": "string"
        }
      ],
      "name": "TrustedIssuerAdded",
      "type": "event"
    },
    {
      "anonymous": false,
      "inputs": [
        {
          "indexed": true,
          "internalType": "string",
          "name": "issuerDID",
          "type": "string"
        }
      ],
      "name": "TrustedIssuerRemoved",
      "type": "event"
    },
    {
      "inputs": [
        {
          "internalType": "uint256",
          "name": "",
          "type": "uint256"
        }
      ],
      "name": "acceptanceHistory",
      "outputs": [
        {
          "internalType": "string",
          "name": "issuerDID",
          "type": "string"
        },
        {
          "internalType": "string",
          "name": "recipientDID",
          "type": "string"
        },
        {
          "internalType": "uint256",
          "name": "timestamp",
          "type": "uint256"
        }
      ],
      "stateMutability": "view",
      "type": "function",
      "constant": true
    },
    {
      "inputs": [],
      "name": "adminDID",
      "outputs": [
        {
          "internalType": "string",
          "name": "",
          "type": "string"
        }
      ],
      "stateMutability": "view",
      "type": "function",
      "constant": true
    },
    {
      "inputs": [],
      "name": "adminSet",
      "outputs": [
        {
          "internalType": "bool",
          "name": "",
          "type": "bool"
        }
      ],
      "stateMutability": "view",
      "type": "function",
      "constant": true
    },
    {
      "inputs": [
        {
          "internalType": "uint256",
          "name": "",
          "type": "uint256"
        }
      ],
      "name": "allDIDs",
      "outputs": [
        {
          "internalType": "string",
          "name": "",
          "type": "string"
        }
      ],
      "stateMutability": "view",
      "type": "function",
      "constant": true
    },
    {
      "inputs": [
        {
          "internalType": "address",
          "name": "",
          "type": "address"
        },
        {
          "internalType": "uint256",
          "name": "",
          "type": "uint256"
        }
      ],
      "name": "controllerToDIDs",
      "outputs": [
        {
          "internalType": "string",
          "name": "",
          "type": "string"
        }
      ],
      "stateMutability": "view",
      "type": "function",
      "constant": true
    },
    {
      "inputs": [
        {
          "internalType": "string",
          "name": "",
          "type": "string"
        }
      ],
      "name": "didDocuments",
      "outputs": [
        {
          "internalType": "string",
          "name": "id",
          "type": "string"
        },
        {
          "internalType": "address",
          "name": "controller",
          "type": "address"
        },
        {
          "internalType": "string",
          "name": "publicKey",
          "type": "string"
        },
        {
          "internalType": "uint256",
          "name": "created",
          "type": "uint256"
        },
        {
          "internalType": "uint256",
          "name": "updated",
          "type": "uint256"
        },
        {
          "internalType": "bool",
          "name": "isActive",
          "type": "bool"
        },
        {
          "internalType": "bool",
          "name": "isTrustedIssuer",
          "type": "bool"
        }
      ],
      "stateMutability": "view",
      "type": "function",
      "constant": true
    },
    {
      "inputs": [
        {
          "internalType": "string",
          "name": "",
          "type": "string"
        },
        {
          "internalType": "uint256",
          "name": "",
          "type": "uint256"
        }
      ],
      "name": "issuerAcceptedBy",
      "outputs": [
        {
          "internalType": "string",
          "name": "",
          "type": "string"
        }
      ],
      "stateMutability": "view",
      "type": "function",
      "constant": true
    },
    {
      "inputs": [
        {
          "internalType": "string",
          "name": "",
          "type": "string"
        },
        {
          "internalType": "string",
          "name": "",
          "type": "string"
        }
      ],
      "name": "issuerToRecipientAcceptances",
      "outputs": [
        {
          "internalType": "uint256",
          "name": "",
          "type": "uint256"
        }
      ],
      "stateMutability": "view",
      "type": "function",
      "constant": true
    },
    {
      "inputs": [
        {
          "internalType": "string",
          "name": "",
          "type": "string"
        }
      ],
      "name": "issuerTrustMetrics",
      "outputs": [
        {
          "internalType": "uint256",
          "name": "totalIssued",
          "type": "uint256"
        },
        {
          "internalType": "uint256",
          "name": "totalAccepted",
          "type": "uint256"
        },
        {
          "internalType": "uint256",
          "name": "lastUpdated",
          "type": "uint256"
        },
        {
          "internalType": "uint256",
          "name": "trustScore",
          "type": "uint256"
        }
      ],
      "stateMutability": "view",
      "type": "function",
      "constant": true
    },
    {
      "inputs": [],
      "name": "owner",
      "outputs": [
        {
          "internalType": "address",
          "name": "",
          "type": "address"
        }
      ],
      "stateMutability": "view",
      "type": "function",
      "constant": true
    },
    {
      "inputs": [],
      "name": "renounceOwnership",
      "outputs": [],
      "stateMutability": "nonpayable",
      "type": "function"
    },
    {
      "inputs": [
        {
          "internalType": "address",
          "name": "newOwner",
          "type": "address"
        }
      ],
      "name": "transferOwnership",
      "outputs": [],
      "stateMutability": "nonpayable",
      "type": "function"
    },
    {
      "inputs": [
        {
          "internalType": "string",
          "name": "didId",
          "type": "string"
        },
        {
          "internalType": "string",
          "name": "publicKey",
          "type": "string"
        }
      ],
      "name": "createDID",
      "outputs": [],
      "stateMutability": "nonpayable",
      "type": "function"
    },
    {
      "inputs": [
        {
          "internalType": "string",
          "name": "didId",
          "type": "string"
        },
        {
          "internalType": "string",
          "name": "newPublicKey",
          "type": "string"
        }
      ],
      "name": "updateDID",
      "outputs": [],
      "stateMutability": "nonpayable",
      "type": "function"
    },
    {
      "inputs": [
        {
          "internalType": "string",
          "name": "didId",
          "type": "string"
        }
      ],
      "name": "deactivateDID",
      "outputs": [],
      "stateMutability": "nonpayable",
      "type": "function"
    },
    {
      "inputs": [
        {
          "internalType": "string",
          "name": "issuerDID",
          "type": "string"
        }
      ],
      "name": "addTrustedIssuer",
      "outputs": [],
      "stateMutability": "nonpayable",
      "type": "function"
    },
    {
      "inputs": [
        {
          "internalType": "string",
          "name": "issuerDID",
          "type": "string"
        }
      ],
      "name": "removeTrustedIssuer",
      "outputs": [],
      "stateMutability": "nonpayable",
      "type": "function"
    },
    {
      "inputs": [
        {
          "internalType": "string",
          "name": "didId",
          "type": "string"
        },
        {
          "internalType": "bytes32",
          "name": "messageHash",
          "type": "bytes32"
        },
        {
          "internalType": "bytes",
          "name": "signature",
          "type": "bytes"
        }
      ],
      "name": "verifySignature",
      "outputs": [
        {
          "internalType": "bool",
          "name": "",
          "type": "bool"
        }
      ],
      "stateMutability": "view",
      "type": "function",
      "constant": true
    },
    {
      "inputs": [
        {
          "internalType": "string",
          "name": "didId",
          "type": "string"
        },
        {
          "internalType": "bytes",
          "name": "data",
          "type": "bytes"
        },
        {
          "internalType": "bytes",
          "name": "signature",
          "type": "bytes"
        }
      ],
      "name": "verifyDataSignature",
      "outputs": [
        {
          "internalType": "bool",
          "name": "",
          "type": "bool"
        }
      ],
      "stateMutability": "view",
      "type": "function",
      "constant": true
    },
    {
      "inputs": [
        {
          "internalType": "string",
          "name": "didId",
          "type": "string"
        }
      ],
      "name": "getDIDDocument",
      "outputs": [
        {
          "components": [
            {
              "internalType": "string",
              "name": "id",
              "type": "string"
            },
            {
              "internalType": "address",
              "name": "controller",
              "type": "address"
            },
            {
              "internalType": "string",
              "name": "publicKey",
              "type": "string"
            },
            {
              "internalType": "uint256",
              "name": "created",
              "type": "uint256"
            },
            {
              "internalType": "uint256",
              "name": "updated",
              "type": "uint256"
            },
            {
              "internalType": "bool",
              "name": "isActive",
              "type": "bool"
            },
            {
              "internalType": "bool",
              "name": "isTrustedIssuer",
              "type": "bool"
            }
          ],
          "internalType": "struct DIDRegistry.DIDDocument",
          "name": "",
          "type": "tuple"
        }
      ],
      "stateMutability": "view",
      "type": "function",
      "constant": true
    },
    {
      "inputs": [
        {
          "internalType": "string",
          "name": "didId",
          "type": "string"
        }
      ],
      "name": "isTrustedIssuer",
      "outputs": [
        {
          "internalType": "bool",
          "name": "",
          "type": "bool"
        }
      ],
      "stateMutability": "view",
      "type": "function",
      "constant": true
    },
    {
      "inputs": [
        {
          "internalType": "string",
          "name": "didId",
          "type": "string"
        }
      ],
      "name": "isAdminDID",
      "outputs": [
        {
          "internalType": "bool",
          "name": "",
          "type": "bool"
        }
      ],
      "stateMutability": "view",
      "type": "function",
      "constant": true
    },
    {
      "inputs": [
        {
          "internalType": "address",
          "name": "controller",
          "type": "address"
        }
      ],
      "name": "getDIDsByController",
      "outputs": [
        {
          "internalType": "string[]",
          "name": "",
          "type": "string[]"
        }
      ],
      "stateMutability": "view",
      "type": "function",
      "constant": true
    },
    {
      "inputs": [
        {
          "internalType": "string",
          "name": "didId",
          "type": "string"
        }
      ],
      "name": "isDIDActive",
      "outputs": [
        {
          "internalType": "bool",
          "name": "",
          "type": "bool"
        }
      ],
      "stateMutability": "view",
      "type": "function",
      "constant": true
    },
    {
      "inputs": [],
      "name": "getAllDIDs",
      "outputs": [
        {
          "internalType": "string[]",
          "name": "",
          "type": "string[]"
        }
      ],
      "stateMutability": "view",
      "type": "function",
      "constant": true
    },
    {
      "inputs": [],
      "name": "getAllDIDsCount",
      "outputs": [
        {
          "internalType": "uint256",
          "name": "",
          "type": "uint256"
        }
      ],
      "stateMutability": "view",
      "type": "function",
      "constant": true
    },
    {
      "inputs": [
        {
          "internalType": "string",
          "name": "issuerDID",
          "type": "string"
        },
        {
          "internalType": "string",
          "name": "recipientDID",
          "type": "string"
        }
      ],
      "name": "recordCredentialIssuance",
      "outputs": [],
      "stateMutability": "nonpayable",
      "type": "function"
    },
    {
      "inputs": [
        {
          "internalType": "string",
          "name": "issuerDID",
          "type": "string"
        },
        {
          "internalType": "string",
          "name": "recipientDID",
          "type": "string"
        }
      ],
      "name": "recordCredentialAcceptance",
      "outputs": [],
      "stateMutability": "nonpayable",
      "type": "function"
    },
    {
      "inputs": [
        {
          "internalType": "string",
          "name": "issuerDID",
          "type": "string"
        },
        {
          "internalType": "uint256",
          "name": "newScore",
          "type": "uint256"
        }
      ],
      "name": "updateTrustScore",
      "outputs": [],
      "stateMutability": "nonpayable",
      "type": "function"
    },
    {
      "inputs": [
        {
          "internalType": "string",
          "name": "issuerDID",
          "type": "string"
        }
      ],
      "name": "getTrustMetrics",
      "outputs": [
        {
          "components": [
            {
              "internalType": "uint256",
              "name": "totalIssued",
              "type": "uint256"
            },
            {
              "internalType": "uint256",
              "name": "totalAccepted",
              "type": "uint256"
            },
            {
              "internalType": "uint256",
              "name": "lastUpdated",
              "type": "uint256"
            },
            {
              "internalType": "uint256",
              "name": "trustScore",
              "type": "uint256"
            }
          ],
          "internalType": "struct DIDRegistry.TrustMetrics",
          "name": "",
          "type": "tuple"
        }
      ],
      "stateMutability": "view",
      "type": "function",
      "constant": true
    },
    {
      "inputs": [
        {
          "internalType": "string",
          "name": "issuerDID",
          "type": "string"
        },
        {
          "internalType": "string",
          "name": "recipientDID",
          "type": "string"
        }
      ],
      "name": "getAcceptanceCount",
      "outputs": [
        {
          "internalType": "uint256",
          "name": "",
          "type": "uint256"
        }
      ],
      "stateMutability": "view",
      "type": "function",
      "constant": true
    },
    {
      "inputs": [
        {
          "internalType": "string",
          "name": "issuerDID",
          "type": "string"
        }
      ],
      "name": "getAcceptedByList",
      "outputs": [
        {
          "internalType": "string[]",
          "name": "",
          "type": "string[]"
        }
      ],
      "stateMutability": "view",
      "type": "function",
      "constant": true
    },
    {
      "inputs": [],
      "name": "getAcceptanceHistoryLength",
      "outputs": [
        {
          "internalType": "uint256",
          "name": "",
          "type": "uint256"
        }
      ],
      "stateMutability": "view",
      "type": "function",
      "constant": true
    },
    {
      "inputs": [
        {
          "internalType": "uint256",
          "name": "index",
          "type": "uint256"
        }
      ],
      "name": "getAcceptanceRecord",
      "outputs": [
        {
          "components": [
            {
              "internalType": "string",
              "name": "issuerDID",
              "type": "string"
            },
            {
              "internalType": "string",
              "name": "recipientDID",
              "type": "string"
            },
            {
              "internalType": "uint256",
              "name": "timestamp",
              "type": "uint256"
            }
          ],
          "internalType": "struct DIDRegistry.AcceptanceRecord",
          "name": "",
          "type": "tuple"
        }
      ],
      "stateMutability": "view",
      "type": "function",
      "constant": true
    }
  ],
  "bytecode": "0x608060405234801561001057600080fd5b5033600073ffffffffffffffffffffffffffffffffffffffff168173ffffffffffffffffffffffffffffffffffffffff16036100845760006040517f1e4fbdf700000000000000000000000000000000000000000000000000000000815260040161007b91906101b9565b60405180910390fd5b610093816100b460201b60201c565b506000600860006101000a81548160ff0219169083151502179055506101d4565b60008060009054906101000a900473ffffffffffffffffffffffffffffffffffffffff169050816000806101000a81548173ffffffffffffffffffffffffffffffffffffffff021916908373ffffffffffffffffffffffffffffffffffffffff1602179055508173ffffffffffffffffffffffffffffffffffffffff168173ffffffffffffffffffffffffffffffffffffffff167f8be0079c531659141344cd1fd0a4f28419497f9722a3daafe3b4186f6b6457e060405160405180910390a35050565b600073ffffffffffffffffffffffffffffffffffffffff82169050919050565b60006101a382610178565b9050919050565b6101b381610198565b82525050565b60006020820190506101ce60008301846101aa565b92915050565b614ea4806101e36000396000f3fe608060405234801561001057600080fd5b50600436106102065760003560e01c8063715018a61161011a5780639e031f81116100ad578063b42a02b51161007c578063b42a02b51461067c578063d25a06f414610698578063e4e91ad9146106b4578063ee047bfa146106e4578063f2fde38b1461071457610206565b80639e031f81146105d0578063a78be31a146105ec578063ae46c1471461061c578063b363cff31461064c57610206565b806382ccb005116100e957806382ccb005146105365780638da5cb5b146105525780638fa62173146105705780639c970acf146105a057610206565b8063715018a6146104ac578063784afc4e146104b65780637b602cd4146104e657806380710f201461051857610206565b80633b253b231161019d5780634c95303a1161016c5780634c95303a146104065780635cd49ebb146104245780635ee2b4e41461044257806364312cd71461046057806370d876701461047c57610206565b80633b253b231461036b5780633cf362d11461038757806344b0b5d5146103a3578063476caace146103d357610206565b806321fffa2c116101d957806321fffa2c146102b757806324c483a5146102e75780632ae73ee11461031d5780632b9620fa1461034d57610206565b80630f37a5d51461020b5780631154e0111461023b5780631539a5071461026b57806320c9d73a14610287575b600080fd5b61022560048036038101906102209190613652565b610730565b604051610232919061370f565b60405180910390f35b61025560048036038101906102509190613866565b6107dc565b60405161026291906138ca565b60405180910390f35b610285600480360381019061028091906138e5565b610805565b005b6102a1600480360381019061029c9190613866565b610c05565b6040516102ae91906138ca565b60405180910390f35b6102d160048036038101906102cc91906138e5565b610cef565b6040516102de919061396c565b60405180910390f35b61030160048036038101906102fc9190613866565b610d40565b60405161031497969594939291906139c8565b60405180910390f35b61033760048036038101906103329190613866565b610ee2565b60405161034491906138ca565b60405180910390f35b610355610f51565b604051610362919061396c565b60405180910390f35b61038560048036038101906103809190613866565b610f5e565b005b6103a1600480360381019061039c91906138e5565b6111f0565b005b6103bd60048036038101906103b89190613ae6565b6113dc565b6040516103ca91906138ca565b60405180910390f35b6103ed60048036038101906103e89190613866565b6115aa565b6040516103fd9493929190613b8d565b60405180910390f35b61040e6115f0565b60405161041b9190613cde565b60405180910390f35b61042c6116c9565b604051610439919061370f565b60405180910390f35b61044a611757565b604051610457919061396c565b60405180910390f35b61047a60048036038101906104759190613866565b611764565b005b61049660048036038101906104919190613d36565b611a53565b6040516104a391906138ca565b60405180910390f35b6104b4611c14565b005b6104d060048036038101906104cb9190613866565b611c28565b6040516104dd9190613e91565b60405180910390f35b61050060048036038101906104fb9190613652565b611ed6565b60405161050f93929190613eb3565b60405180910390f35b610520612020565b60405161052d91906138ca565b60405180910390f35b610550600480360381019061054b91906138e5565b612033565b005b61055a6123d9565b6040516105679190613ef8565b60405180910390f35b61058a60048036038101906105859190613f3f565b612402565b604051610597919061370f565b60405180910390f35b6105ba60048036038101906105b591906138e5565b6124bb565b6040516105c7919061396c565b60405180910390f35b6105ea60048036038101906105e59190613866565b612500565b005b61060660048036038101906106019190613f7f565b612781565b604051610613919061370f565b60405180910390f35b61063660048036038101906106319190613866565b612850565b6040516106439190614030565b60405180910390f35b6106666004803603810190610661919061404b565b6128b0565b6040516106739190613cde565b60405180910390f35b610696600480360381019061069191906138e5565b6129c8565b005b6106b260048036038101906106ad9190613f7f565b612bc6565b005b6106ce60048036038101906106c99190613652565b612dd1565b6040516106db91906140cf565b60405180910390f35b6106fe60048036038101906106f99190613866565b612f82565b60405161070b9190613cde565b60405180910390f35b61072e6004803603810190610729919061404b565b613079565b005b6006818154811061074057600080fd5b90600052602060002001600091509050805461075b90614120565b80601f016020809104026020016040519081016040528092919081815260200182805461078790614120565b80156107d45780601f106107a9576101008083540402835291602001916107d4565b820191906000526020600020905b8154815290600101906020018083116107b757829003601f168201915b505050505081565b600060076040516107ed91906141f4565b60405180910390208280519060200120149050919050565b6000825111610849576040517f08c379a000000000000000000000000000000000000000000000000000000000815260040161084090614257565b60405180910390fd5b600081511161088d576040517f08c379a0000000000000000000000000000000000000000000000000000000008152600401610884906142c3565b60405180910390fd5b600073ffffffffffffffffffffffffffffffffffffffff166001836040516108b5919061431f565b908152602001604051809103902060010160009054906101000a900473ffffffffffffffffffffffffffffffffffffffff1673ffffffffffffffffffffffffffffffffffffffff161461093d576040517f08c379a000000000000000000000000000000000000000000000000000000000815260040161093490614382565b60405180910390fd5b6040518060e001604052808381526020013373ffffffffffffffffffffffffffffffffffffffff1681526020018281526020014281526020014281526020016001151581526020016000151581525060018360405161099c919061431f565b908152602001604051809103902060008201518160000190816109bf919061454e565b5060208201518160010160006101000a81548173ffffffffffffffffffffffffffffffffffffffff021916908373ffffffffffffffffffffffffffffffffffffffff1602179055506040820151816002019081610a1c919061454e565b50606082015181600301556080820151816004015560a08201518160050160006101000a81548160ff02191690831515021790555060c08201518160050160016101000a81548160ff021916908315150217905550905050600260003373ffffffffffffffffffffffffffffffffffffffff1673ffffffffffffffffffffffffffffffffffffffff16815260200190815260200160002082908060018154018082558091505060019003906000526020600020016000909190919091509081610ae5919061454e565b50600682908060018154018082558091505060019003906000526020600020016000909190919091509081610b1a919061454e565b50600860009054906101000a900460ff16610b9d578160079081610b3e919061454e565b506001600860006101000a81548160ff02191690831515021790555081604051610b68919061431f565b60405180910390207f99fa2459ec4d365b8ea32c99c7a5b785cb3b22136b768fca4bf544a531f3eca360405160405180910390a25b3373ffffffffffffffffffffffffffffffffffffffff1682604051610bc2919061431f565b60405180910390207f63b814845f107bcec35c851cf55cdd7236e563def52caa46cb6857f52b755cac83604051610bf9919061370f565b60405180910390a35050565b600081600073ffffffffffffffffffffffffffffffffffffffff16600182604051610c30919061431f565b908152602001604051809103902060010160009054906101000a900473ffffffffffffffffffffffffffffffffffffffff1673ffffffffffffffffffffffffffffffffffffffff1603610cb8576040517f08c379a0000000000000000000000000000000000000000000000000000000008152600401610caf9061466c565b60405180910390fd5b600183604051610cc8919061431f565b908152602001604051809103902060050160009054906101000a900460ff16915050919050565b60048280516020810182018051848252602083016020850120818352809550505050505081805160208101820180518482526020830160208501208183528095505050505050600091509150505481565b600181805160208101820180518482526020830160208501208183528095505050505050600091509050806000018054610d7990614120565b80601f0160208091040260200160405190810160405280929190818152602001828054610da590614120565b8015610df25780601f10610dc757610100808354040283529160200191610df2565b820191906000526020600020905b815481529060010190602001808311610dd557829003601f168201915b5050505050908060010160009054906101000a900473ffffffffffffffffffffffffffffffffffffffff1690806002018054610e2d90614120565b80601f0160208091040260200160405190810160405280929190818152602001828054610e5990614120565b8015610ea65780601f10610e7b57610100808354040283529160200191610ea6565b820191906000526020600020905b815481529060010190602001808311610e8957829003601f168201915b5050505050908060030154908060040154908060050160009054906101000a900460ff16908060050160019054906101000a900460ff16905087565b6000600182604051610ef4919061431f565b908152602001604051809103902060050160019054906101000a900460ff168015610f4a5750600182604051610f2a919061431f565b908152602001604051809103902060050160009054906101000a900460ff165b9050919050565b6000600680549050905090565b803373ffffffffffffffffffffffffffffffffffffffff16600182604051610f86919061431f565b908152602001604051809103902060010160009054906101000a900473ffffffffffffffffffffffffffffffffffffffff1673ffffffffffffffffffffffffffffffffffffffff161461100e576040517f08c379a0000000000000000000000000000000000000000000000000000000008152600401611005906146d8565b60405180910390fd5b60018160405161101e919061431f565b908152602001604051809103902060050160009054906101000a900460ff1661107c576040517f08c379a000000000000000000000000000000000000000000000000000000000815260040161107390614744565b60405180910390fd5b600760405161108b91906141f4565b60405180910390208280519060200120036110db576040517f08c379a00000000000000000000000000000000000000000000000000000000081526004016110d2906147b0565b60405180910390fd5b6001826040516110eb919061431f565b908152602001604051809103902060050160019054906101000a900460ff161561114a576040517f08c379a00000000000000000000000000000000000000000000000000000000081526004016111419061481c565b60405180910390fd5b600060018360405161115c919061431f565b908152602001604051809103902060050160006101000a81548160ff02191690831515021790555042600183604051611195919061431f565b908152602001604051809103902060040181905550816040516111b8919061431f565b60405180910390207f4360f12f602ccecefb32480e5314d0d3f57d38db8f52c76d8fdf4c39596c1c2860405160405180910390a25050565b3373ffffffffffffffffffffffffffffffffffffffff16600183604051611217919061431f565b908152602001604051809103902060010160009054906101000a900473ffffffffffffffffffffffffffffffffffffffff1673ffffffffffffffffffffffffffffffffffffffff161461129f576040517f08c379a000000000000000000000000000000000000000000000000000000000815260040161129690614888565b60405180910390fd5b6001826040516112af919061431f565b908152602001604051809103902060050160009054906101000a900460ff1661130d576040517f08c379a0000000000000000000000000000000000000000000000000000000008152600401611304906148f4565b60405180910390fd5b60018160405161131d919061431f565b908152602001604051809103902060050160009054906101000a900460ff1661137b576040517f08c379a000000000000000000000000000000000000000000000000000000000815260040161137290614960565b60405180910390fd5b60038260405161138b919061431f565b908152602001604051809103902060000160008154809291906113ad906149af565b9190505550426003836040516113c3919061431f565b9081526020016040518091039020600201819055505050565b600083600073ffffffffffffffffffffffffffffffffffffffff16600182604051611407919061431f565b908152602001604051809103902060010160009054906101000a900473ffffffffffffffffffffffffffffffffffffffff1673ffffffffffffffffffffffffffffffffffffffff160361148f576040517f08c379a00000000000000000000000000000000000000000000000000000000081526004016114869061466c565b60405180910390fd5b60018560405161149f919061431f565b908152602001604051809103902060050160009054906101000a900460ff166114fd576040517f08c379a00000000000000000000000000000000000000000000000000000000081526004016114f490614744565b60405180910390fd5b6000848051906020012090506000611514826130ff565b9050600061152b868361313590919063ffffffff16565b905060018860405161153d919061431f565b908152602001604051809103902060010160009054906101000a900473ffffffffffffffffffffffffffffffffffffffff1673ffffffffffffffffffffffffffffffffffffffff168173ffffffffffffffffffffffffffffffffffffffff16149450505050509392505050565b6003818051602081018201805184825260208301602085012081835280955050505050506000915090508060000154908060010154908060020154908060030154905084565b60606006805480602002602001604051908101604052809291908181526020016000905b828210156116c057838290600052602060002001805461163390614120565b80601f016020809104026020016040519081016040528092919081815260200182805461165f90614120565b80156116ac5780601f10611681576101008083540402835291602001916116ac565b820191906000526020600020905b81548152906001019060200180831161168f57829003601f168201915b505050505081526020019060010190611614565b50505050905090565b600780546116d690614120565b80601f016020809104026020016040519081016040528092919081815260200182805461170290614120565b801561174f5780601f106117245761010080835404028352916020019161174f565b820191906000526020600020905b81548152906001019060200180831161173257829003601f168201915b505050505081565b6000600980549050905090565b600860009054906101000a900460ff166117b3576040517f08c379a00000000000000000000000000000000000000000000000000000000081526004016117aa90614a43565b60405180910390fd5b3373ffffffffffffffffffffffffffffffffffffffff16600160076040516117db9190614ae6565b908152602001604051809103902060010160009054906101000a900473ffffffffffffffffffffffffffffffffffffffff1673ffffffffffffffffffffffffffffffffffffffff1614611863576040517f08c379a000000000000000000000000000000000000000000000000000000000815260040161185a90614b49565b60405180910390fd5b600160076040516118749190614ae6565b908152602001604051809103902060050160009054906101000a900460ff166118d2576040517f08c379a00000000000000000000000000000000000000000000000000000000081526004016118c990614bb5565b60405180910390fd5b6001816040516118e2919061431f565b908152602001604051809103902060050160009054906101000a900460ff16611940576040517f08c379a0000000000000000000000000000000000000000000000000000000008152600401611937906148f4565b60405180910390fd5b600181604051611950919061431f565b908152602001604051809103902060050160019054906101000a900460ff16156119af576040517f08c379a00000000000000000000000000000000000000000000000000000000081526004016119a690614c21565b60405180910390fd5b600180826040516119c0919061431f565b908152602001604051809103902060050160016101000a81548160ff021916908315150217905550426001826040516119f9919061431f565b90815260200160405180910390206004018190555080604051611a1c919061431f565b60405180910390207f3fa3ab3bac0cccd0cb57495c0a834d60cfa7421c8150780ec693705cd636516560405160405180910390a250565b600083600073ffffffffffffffffffffffffffffffffffffffff16600182604051611a7e919061431f565b908152602001604051809103902060010160009054906101000a900473ffffffffffffffffffffffffffffffffffffffff1673ffffffffffffffffffffffffffffffffffffffff1603611b06576040517f08c379a0000000000000000000000000000000000000000000000000000000008152600401611afd9061466c565b60405180910390fd5b600185604051611b16919061431f565b908152602001604051809103902060050160009054906101000a900460ff16611b74576040517f08c379a0000000000000000000000000000000000000000000000000000000008152600401611b6b90614744565b60405180910390fd5b6000611b7f856130ff565b90506000611b96858361313590919063ffffffff16565b9050600187604051611ba8919061431f565b908152602001604051809103902060010160009054906101000a900473ffffffffffffffffffffffffffffffffffffffff1673ffffffffffffffffffffffffffffffffffffffff168173ffffffffffffffffffffffffffffffffffffffff161493505050509392505050565b611c1c613161565b611c2660006131e8565b565b611c30613568565b81600073ffffffffffffffffffffffffffffffffffffffff16600182604051611c59919061431f565b908152602001604051809103902060010160009054906101000a900473ffffffffffffffffffffffffffffffffffffffff1673ffffffffffffffffffffffffffffffffffffffff1603611ce1576040517f08c379a0000000000000000000000000000000000000000000000000000000008152600401611cd89061466c565b60405180910390fd5b600183604051611cf1919061431f565b90815260200160405180910390206040518060e0016040529081600082018054611d1a90614120565b80601f0160208091040260200160405190810160405280929190818152602001828054611d4690614120565b8015611d935780601f10611d6857610100808354040283529160200191611d93565b820191906000526020600020905b815481529060010190602001808311611d7657829003601f168201915b505050505081526020016001820160009054906101000a900473ffffffffffffffffffffffffffffffffffffffff1673ffffffffffffffffffffffffffffffffffffffff1673ffffffffffffffffffffffffffffffffffffffff168152602001600282018054611e0290614120565b80601f0160208091040260200160405190810160405280929190818152602001828054611e2e90614120565b8015611e7b5780601f10611e5057610100808354040283529160200191611e7b565b820191906000526020600020905b815481529060010190602001808311611e5e57829003601f168201915b5050505050815260200160038201548152602001600482015481526020016005820160009054906101000a900460ff161515151581526020016005820160019054906101000a900460ff161515151581525050915050919050565b60098181548110611ee657600080fd5b9060005260206000209060030201600091509050806000018054611f0990614120565b80601f0160208091040260200160405190810160405280929190818152602001828054611f3590614120565b8015611f825780601f10611f5757610100808354040283529160200191611f82565b820191906000526020600020905b815481529060010190602001808311611f6557829003601f168201915b505050505090806001018054611f9790614120565b80601f0160208091040260200160405190810160405280929190818152602001828054611fc390614120565b80156120105780601f10611fe557610100808354040283529160200191612010565b820191906000526020600020905b815481529060010190602001808311611ff357829003601f168201915b5050505050908060020154905083565b600860009054906101000a900460ff1681565b3373ffffffffffffffffffffffffffffffffffffffff1660018260405161205a919061431f565b908152602001604051809103902060010160009054906101000a900473ffffffffffffffffffffffffffffffffffffffff1673ffffffffffffffffffffffffffffffffffffffff16146120e2576040517f08c379a00000000000000000000000000000000000000000000000000000000081526004016120d990614c8d565b60405180910390fd5b6001826040516120f2919061431f565b908152602001604051809103902060050160009054906101000a900460ff16612150576040517f08c379a0000000000000000000000000000000000000000000000000000000008152600401612147906148f4565b60405180910390fd5b600181604051612160919061431f565b908152602001604051809103902060050160009054906101000a900460ff166121be576040517f08c379a00000000000000000000000000000000000000000000000000000000081526004016121b590614960565b60405180910390fd5b60006004836040516121d0919061431f565b9081526020016040518091039020826040516121ec919061431f565b9081526020016040518091039020540361225257600582604051612210919061431f565b908152602001604051809103902081908060018154018082558091505060019003906000526020600020016000909190919091509081612250919061454e565b505b600482604051612262919061431f565b90815260200160405180910390208160405161227e919061431f565b9081526020016040518091039020600081548092919061229d906149af565b91905055506003826040516122b2919061431f565b908152602001604051809103902060010160008154809291906122d4906149af565b9190505550426003836040516122ea919061431f565b90815260200160405180910390206002018190555060096040518060600160405280848152602001838152602001428152509080600181540180825580915050600190039060005260206000209060030201600090919091909150600082015181600001908161235a919061454e565b506020820151816001019081612370919061454e565b506040820151816002015550508060405161238b919061431f565b6040518091039020826040516123a1919061431f565b60405180910390207f8153fccaa356ece260a5824d255a291e5b11dacea39885212e565e451913835e60405160405180910390a35050565b60008060009054906101000a900473ffffffffffffffffffffffffffffffffffffffff16905090565b6002602052816000526040600020818154811061241e57600080fd5b9060005260206000200160009150915050805461243a90614120565b80601f016020809104026020016040519081016040528092919081815260200182805461246690614120565b80156124b35780601f10612488576101008083540402835291602001916124b3565b820191906000526020600020905b81548152906001019060200180831161249657829003601f168201915b505050505081565b60006004836040516124cd919061431f565b9081526020016040518091039020826040516124e9919061431f565b908152602001604051809103902054905092915050565b600860009054906101000a900460ff1661254f576040517f08c379a000000000000000000000000000000000000000000000000000000000815260040161254690614a43565b60405180910390fd5b3373ffffffffffffffffffffffffffffffffffffffff16600160076040516125779190614ae6565b908152602001604051809103902060010160009054906101000a900473ffffffffffffffffffffffffffffffffffffffff1673ffffffffffffffffffffffffffffffffffffffff16146125ff576040517f08c379a00000000000000000000000000000000000000000000000000000000081526004016125f690614b49565b60405180910390fd5b600160076040516126109190614ae6565b908152602001604051809103902060050160009054906101000a900460ff1661266e576040517f08c379a000000000000000000000000000000000000000000000000000000000815260040161266590614bb5565b60405180910390fd5b60018160405161267e919061431f565b908152602001604051809103902060050160019054906101000a900460ff166126dc576040517f08c379a00000000000000000000000000000000000000000000000000000000081526004016126d390614cf9565b60405180910390fd5b60006001826040516126ee919061431f565b908152602001604051809103902060050160016101000a81548160ff02191690831515021790555042600182604051612727919061431f565b9081526020016040518091039020600401819055508060405161274a919061431f565b60405180910390207f681faa00c7b37242bbf8b47f00f510cff20f12f295e1e29690b497232596f84a60405160405180910390a250565b60058280516020810182018051848252602083016020850120818352809550505050505081815481106127b357600080fd5b906000526020600020016000915091505080546127cf90614120565b80601f01602080910402602001604051908101604052809291908181526020018280546127fb90614120565b80156128485780601f1061281d57610100808354040283529160200191612848565b820191906000526020600020905b81548152906001019060200180831161282b57829003601f168201915b505050505081565b6128586135bf565b600382604051612868919061431f565b90815260200160405180910390206040518060800160405290816000820154815260200160018201548152602001600282015481526020016003820154815250509050919050565b6060600260008373ffffffffffffffffffffffffffffffffffffffff1673ffffffffffffffffffffffffffffffffffffffff168152602001908152602001600020805480602002602001604051908101604052809291908181526020016000905b828210156129bd57838290600052602060002001805461293090614120565b80601f016020809104026020016040519081016040528092919081815260200182805461295c90614120565b80156129a95780601f1061297e576101008083540402835291602001916129a9565b820191906000526020600020905b81548152906001019060200180831161298c57829003601f168201915b505050505081526020019060010190612911565b505050509050919050565b813373ffffffffffffffffffffffffffffffffffffffff166001826040516129f0919061431f565b908152602001604051809103902060010160009054906101000a900473ffffffffffffffffffffffffffffffffffffffff1673ffffffffffffffffffffffffffffffffffffffff1614612a78576040517f08c379a0000000000000000000000000000000000000000000000000000000008152600401612a6f906146d8565b60405180910390fd5b600181604051612a88919061431f565b908152602001604051809103902060050160009054906101000a900460ff16612ae6576040517f08c379a0000000000000000000000000000000000000000000000000000000008152600401612add90614744565b60405180910390fd5b6000825111612b2a576040517f08c379a0000000000000000000000000000000000000000000000000000000008152600401612b21906142c3565b60405180910390fd5b81600184604051612b3b919061431f565b90815260200160405180910390206002019081612b58919061454e565b5042600184604051612b6a919061431f565b90815260200160405180910390206004018190555082604051612b8d919061431f565b60405180910390207f7e7500a71b0209575a3b4858a2a662e94b0cad314ecb249f3526e9b2f86a014660405160405180910390a2505050565b600860009054906101000a900460ff16612c15576040517f08c379a0000000000000000000000000000000000000000000000000000000008152600401612c0c90614a43565b60405180910390fd5b3373ffffffffffffffffffffffffffffffffffffffff1660016007604051612c3d9190614ae6565b908152602001604051809103902060010160009054906101000a900473ffffffffffffffffffffffffffffffffffffffff1673ffffffffffffffffffffffffffffffffffffffff1614612cc5576040517f08c379a0000000000000000000000000000000000000000000000000000000008152600401612cbc90614b49565b60405180910390fd5b60016007604051612cd69190614ae6565b908152602001604051809103902060050160009054906101000a900460ff16612d34576040517f08c379a0000000000000000000000000000000000000000000000000000000008152600401612d2b90614bb5565b60405180910390fd5b80600383604051612d45919061431f565b90815260200160405180910390206003018190555042600383604051612d6b919061431f565b90815260200160405180910390206002018190555081604051612d8e919061431f565b60405180910390207fb43428490af27a1462be03e9f1584d951d01e99e832b8cbd206223c137d4ae7482604051612dc5919061396c565b60405180910390a25050565b612dd96135e7565b6009805490508210612e20576040517f08c379a0000000000000000000000000000000000000000000000000000000008152600401612e1790614d65565b60405180910390fd5b60098281548110612e3457612e33614d85565b5b9060005260206000209060030201604051806060016040529081600082018054612e5d90614120565b80601f0160208091040260200160405190810160405280929190818152602001828054612e8990614120565b8015612ed65780601f10612eab57610100808354040283529160200191612ed6565b820191906000526020600020905b815481529060010190602001808311612eb957829003601f168201915b50505050508152602001600182018054612eef90614120565b80601f0160208091040260200160405190810160405280929190818152602001828054612f1b90614120565b8015612f685780601f10612f3d57610100808354040283529160200191612f68565b820191906000526020600020905b815481529060010190602001808311612f4b57829003601f168201915b505050505081526020016002820154815250509050919050565b6060600582604051612f94919061431f565b9081526020016040518091039020805480602002602001604051908101604052809291908181526020016000905b8282101561306e578382906000526020600020018054612fe190614120565b80601f016020809104026020016040519081016040528092919081815260200182805461300d90614120565b801561305a5780601f1061302f5761010080835404028352916020019161305a565b820191906000526020600020905b81548152906001019060200180831161303d57829003601f168201915b505050505081526020019060010190612fc2565b505050509050919050565b613081613161565b600073ffffffffffffffffffffffffffffffffffffffff168173ffffffffffffffffffffffffffffffffffffffff16036130f35760006040517f1e4fbdf70000000000000000000000000000000000000000000000000000000081526004016130ea9190613ef8565b60405180910390fd5b6130fc816131e8565b50565b60007f19457468657265756d205369676e6564204d6573736167653a0a33320000000060005281601c52603c6000209050919050565b60008060008061314586866132ac565b9250925092506131558282613308565b82935050505092915050565b61316961346c565b73ffffffffffffffffffffffffffffffffffffffff166131876123d9565b73ffffffffffffffffffffffffffffffffffffffff16146131e6576131aa61346c565b6040517f118cdaa70000000000000000000000000000000000000000000000000000000081526004016131dd9190613ef8565b60405180910390fd5b565b60008060009054906101000a900473ffffffffffffffffffffffffffffffffffffffff169050816000806101000a81548173ffffffffffffffffffffffffffffffffffffffff021916908373ffffffffffffffffffffffffffffffffffffffff1602179055508173ffffffffffffffffffffffffffffffffffffffff168173ffffffffffffffffffffffffffffffffffffffff167f8be0079c531659141344cd1fd0a4f28419497f9722a3daafe3b4186f6b6457e060405160405180910390a35050565b600080600060418451036132f15760008060006020870151925060408701519150606087015160001a90506132e388828585613474565b955095509550505050613301565b60006002855160001b9250925092505b9250925092565b6000600381111561331c5761331b614db4565b5b82600381111561332f5761332e614db4565b5b0315613468576001600381111561334957613348614db4565b5b82600381111561335c5761335b614db4565b5b03613393576040517ff645eedf00000000000000000000000000000000000000000000000000000000815260040160405180910390fd5b600260038111156133a7576133a6614db4565b5b8260038111156133ba576133b9614db4565b5b036133ff578060001c6040517ffce698f70000000000000000000000000000000000000000000000000000000081526004016133f6919061396c565b60405180910390fd5b60038081111561341257613411614db4565b5b82600381111561342557613424614db4565b5b0361346757806040517fd78bce0c00000000000000000000000000000000000000000000000000000000815260040161345e9190614df2565b60405180910390fd5b5b5050565b600033905090565b60008060007f7fffffffffffffffffffffffffffffff5d576e7357a4501ddfe92f46681b20a08460001c11156134b457600060038592509250925061355e565b6000600188888888604051600081526020016040526040516134d99493929190614e29565b6020604051602081039080840390855afa1580156134fb573d6000803e3d6000fd5b505050602060405103519050600073ffffffffffffffffffffffffffffffffffffffff168173ffffffffffffffffffffffffffffffffffffffff160361354f57600060016000801b9350935093505061355e565b8060008060001b935093509350505b9450945094915050565b6040518060e0016040528060608152602001600073ffffffffffffffffffffffffffffffffffffffff1681526020016060815260200160008152602001600081526020016000151581526020016000151581525090565b6040518060800160405280600081526020016000815260200160008152602001600081525090565b60405180606001604052806060815260200160608152602001600081525090565b6000604051905090565b600080fd5b600080fd5b6000819050919050565b61362f8161361c565b811461363a57600080fd5b50565b60008135905061364c81613626565b92915050565b60006020828403121561366857613667613612565b5b60006136768482850161363d565b91505092915050565b600081519050919050565b600082825260208201905092915050565b60005b838110156136b957808201518184015260208101905061369e565b60008484015250505050565b6000601f19601f8301169050919050565b60006136e18261367f565b6136eb818561368a565b93506136fb81856020860161369b565b613704816136c5565b840191505092915050565b6000602082019050818103600083015261372981846136d6565b905092915050565b600080fd5b600080fd5b7f4e487b7100000000000000000000000000000000000000000000000000000000600052604160045260246000fd5b613773826136c5565b810181811067ffffffffffffffff821117156137925761379161373b565b5b80604052505050565b60006137a5613608565b90506137b1828261376a565b919050565b600067ffffffffffffffff8211156137d1576137d061373b565b5b6137da826136c5565b9050602081019050919050565b82818337600083830152505050565b6000613809613804846137b6565b61379b565b90508281526020810184848401111561382557613824613736565b5b6138308482856137e7565b509392505050565b600082601f83011261384d5761384c613731565b5b813561385d8482602086016137f6565b91505092915050565b60006020828403121561387c5761387b613612565b5b600082013567ffffffffffffffff81111561389a57613899613617565b5b6138a684828501613838565b91505092915050565b60008115159050919050565b6138c4816138af565b82525050565b60006020820190506138df60008301846138bb565b92915050565b600080604083850312156138fc576138fb613612565b5b600083013567ffffffffffffffff81111561391a57613919613617565b5b61392685828601613838565b925050602083013567ffffffffffffffff81111561394757613946613617565b5b61395385828601613838565b9150509250929050565b6139668161361c565b82525050565b6000602082019050613981600083018461395d565b92915050565b600073ffffffffffffffffffffffffffffffffffffffff82169050919050565b60006139b282613987565b9050919050565b6139c2816139a7565b82525050565b600060e08201905081810360008301526139e2818a6136d6565b90506139f160208301896139b9565b8181036040830152613a0381886136d6565b9050613a12606083018761395d565b613a1f608083018661395d565b613a2c60a08301856138bb565b613a3960c08301846138bb565b98975050505050505050565b600067ffffffffffffffff821115613a6057613a5f61373b565b5b613a69826136c5565b9050602081019050919050565b6000613a89613a8484613a45565b61379b565b905082815260208101848484011115613aa557613aa4613736565b5b613ab08482856137e7565b509392505050565b600082601f830112613acd57613acc613731565b5b8135613add848260208601613a76565b91505092915050565b600080600060608486031215613aff57613afe613612565b5b600084013567ffffffffffffffff811115613b1d57613b1c613617565b5b613b2986828701613838565b935050602084013567ffffffffffffffff811115613b4a57613b49613617565b5b613b5686828701613ab8565b925050604084013567ffffffffffffffff811115613b7757613b76613617565b5b613b8386828701613ab8565b9150509250925092565b6000608082019050613ba2600083018761395d565b613baf602083018661395d565b613bbc604083018561395d565b613bc9606083018461395d565b95945050505050565b600081519050919050565b600082825260208201905092915050565b6000819050602082019050919050565b600082825260208201905092915050565b6000613c1a8261367f565b613c248185613bfe565b9350613c3481856020860161369b565b613c3d816136c5565b840191505092915050565b6000613c548383613c0f565b905092915050565b6000602082019050919050565b6000613c7482613bd2565b613c7e8185613bdd565b935083602082028501613c9085613bee565b8060005b85811015613ccc5784840389528151613cad8582613c48565b9450613cb883613c5c565b925060208a01995050600181019050613c94565b50829750879550505050505092915050565b60006020820190508181036000830152613cf88184613c69565b905092915050565b6000819050919050565b613d1381613d00565b8114613d1e57600080fd5b50565b600081359050613d3081613d0a565b92915050565b600080600060608486031215613d4f57613d4e613612565b5b600084013567ffffffffffffffff811115613d6d57613d6c613617565b5b613d7986828701613838565b9350506020613d8a86828701613d21565b925050604084013567ffffffffffffffff811115613dab57613daa613617565b5b613db786828701613ab8565b9150509250925092565b613dca816139a7565b82525050565b613dd98161361c565b82525050565b613de8816138af565b82525050565b600060e0830160008301518482036000860152613e0b8282613c0f565b9150506020830151613e206020860182613dc1565b5060408301518482036040860152613e388282613c0f565b9150506060830151613e4d6060860182613dd0565b506080830151613e606080860182613dd0565b5060a0830151613e7360a0860182613ddf565b5060c0830151613e8660c0860182613ddf565b508091505092915050565b60006020820190508181036000830152613eab8184613dee565b905092915050565b60006060820190508181036000830152613ecd81866136d6565b90508181036020830152613ee181856136d6565b9050613ef0604083018461395d565b949350505050565b6000602082019050613f0d60008301846139b9565b92915050565b613f1c816139a7565b8114613f2757600080fd5b50565b600081359050613f3981613f13565b92915050565b60008060408385031215613f5657613f55613612565b5b6000613f6485828601613f2a565b9250506020613f758582860161363d565b9150509250929050565b60008060408385031215613f9657613f95613612565b5b600083013567ffffffffffffffff811115613fb457613fb3613617565b5b613fc085828601613838565b9250506020613fd18582860161363d565b9150509250929050565b608082016000820151613ff16000850182613dd0565b5060208201516140046020850182613dd0565b5060408201516140176040850182613dd0565b50606082015161402a6060850182613dd0565b50505050565b60006080820190506140456000830184613fdb565b92915050565b60006020828403121561406157614060613612565b5b600061406f84828501613f2a565b91505092915050565b600060608301600083015184820360008601526140958282613c0f565b915050602083015184820360208601526140af8282613c0f565b91505060408301516140c46040860182613dd0565b508091505092915050565b600060208201905081810360008301526140e98184614078565b905092915050565b7f4e487b7100000000000000000000000000000000000000000000000000000000600052602260045260246000fd5b6000600282049050600182168061413857607f821691505b60208210810361414b5761414a6140f1565b5b50919050565b600081905092915050565b60008190508160005260206000209050919050565b6000815461417e81614120565b6141888186614151565b945060018216600081146141a357600181146141b8576141eb565b60ff19831686528115158202860193506141eb565b6141c18561415c565b60005b838110156141e3578154818901526001820191506020810190506141c4565b838801955050505b50505092915050565b60006142008284614171565b915081905092915050565b7f4449442049442063616e6e6f7420626520656d70747900000000000000000000600082015250565b600061424160168361368a565b915061424c8261420b565b602082019050919050565b6000602082019050818103600083015261427081614234565b9050919050565b7f5075626c6963206b65792063616e6e6f7420626520656d707479000000000000600082015250565b60006142ad601a8361368a565b91506142b882614277565b602082019050919050565b600060208201905081810360008301526142dc816142a0565b9050919050565b600081905092915050565b60006142f98261367f565b61430381856142e3565b935061431381856020860161369b565b80840191505092915050565b600061432b82846142ee565b915081905092915050565b7f44494420616c7265616479206578697374730000000000000000000000000000600082015250565b600061436c60128361368a565b915061437782614336565b602082019050919050565b6000602082019050818103600083015261439b8161435f565b9050919050565b60008190508160005260206000209050919050565b60006020601f8301049050919050565b600082821b905092915050565b6000600883026144047fffffffffffffffffffffffffffffffffffffffffffffffffffffffffffffffff826143c7565b61440e86836143c7565b95508019841693508086168417925050509392505050565b6000819050919050565b600061444b6144466144418461361c565b614426565b61361c565b9050919050565b6000819050919050565b61446583614430565b61447961447182614452565b8484546143d4565b825550505050565b600090565b61448e614481565b61449981848461445c565b505050565b5b818110156144bd576144b2600082614486565b60018101905061449f565b5050565b601f821115614502576144d3816143a2565b6144dc846143b7565b810160208510156144eb578190505b6144ff6144f7856143b7565b83018261449e565b50505b505050565b600082821c905092915050565b600061452560001984600802614507565b1980831691505092915050565b600061453e8383614514565b9150826002028217905092915050565b6145578261367f565b67ffffffffffffffff8111156145705761456f61373b565b5b61457a8254614120565b6145858282856144c1565b600060209050601f8311600181146145b857600084156145a6578287015190505b6145b08582614532565b865550614618565b601f1984166145c6866143a2565b60005b828110156145ee578489015182556001820191506020850194506020810190506145c9565b8683101561460b5784890151614607601f891682614514565b8355505b6001600288020188555050505b505050505050565b7f44494420646f6573206e6f742065786973740000000000000000000000000000600082015250565b600061465660128361368a565b915061466182614620565b602082019050919050565b6000602082019050818103600083015261468581614649565b9050919050565b7f4e6f742044494420636f6e74726f6c6c65720000000000000000000000000000600082015250565b60006146c260128361368a565b91506146cd8261468c565b602082019050919050565b600060208201905081810360008301526146f1816146b5565b9050919050565b7f444944206e6f7420616374697665000000000000000000000000000000000000600082015250565b600061472e600e8361368a565b9150614739826146f8565b602082019050919050565b6000602082019050818103600083015261475d81614721565b9050919050565b7f43616e6e6f7420646561637469766174652061646d696e204449440000000000600082015250565b600061479a601b8361368a565b91506147a582614764565b602082019050919050565b600060208201905081810360008301526147c98161478d565b9050919050565b7f43616e6e6f742064656163746976617465207472757374656420697373756572600082015250565b600061480660208361368a565b9150614811826147d0565b602082019050919050565b60006020820190508181036000830152614835816147f9565b9050919050565b7f4e6f74206973737565722044494420636f6e74726f6c6c657200000000000000600082015250565b600061487260198361368a565b915061487d8261483c565b602082019050919050565b600060208201905081810360008301526148a181614865565b9050919050565b7f49737375657220444944206e6f74206163746976650000000000000000000000600082015250565b60006148de60158361368a565b91506148e9826148a8565b602082019050919050565b6000602082019050818103600083015261490d816148d1565b9050919050565b7f526563697069656e7420444944206e6f74206163746976650000000000000000600082015250565b600061494a60188361368a565b915061495582614914565b602082019050919050565b600060208201905081810360008301526149798161493d565b9050919050565b7f4e487b7100000000000000000000000000000000000000000000000000000000600052601160045260246000fd5b60006149ba8261361c565b91507fffffffffffffffffffffffffffffffffffffffffffffffffffffffffffffffff82036149ec576149eb614980565b5b600182019050919050565b7f41646d696e20444944206e6f7420736574000000000000000000000000000000600082015250565b6000614a2d60118361368a565b9150614a38826149f7565b602082019050919050565b60006020820190508181036000830152614a5c81614a20565b9050919050565b60008154614a7081614120565b614a7a81866142e3565b94506001821660008114614a955760018114614aaa57614add565b60ff1983168652811515820286019350614add565b614ab3856143a2565b60005b83811015614ad557815481890152600182019150602081019050614ab6565b838801955050505b50505092915050565b6000614af28284614a63565b915081905092915050565b7f4e6f742061646d696e0000000000000000000000000000000000000000000000600082015250565b6000614b3360098361368a565b9150614b3e82614afd565b602082019050919050565b60006020820190508181036000830152614b6281614b26565b9050919050565b7f41646d696e20444944206e6f7420616374697665000000000000000000000000600082015250565b6000614b9f60148361368a565b9150614baa82614b69565b602082019050919050565b60006020820190508181036000830152614bce81614b92565b9050919050565b7f49737375657220616c7265616479207472757374656400000000000000000000600082015250565b6000614c0b60168361368a565b9150614c1682614bd5565b602082019050919050565b60006020820190508181036000830152614c3a81614bfe565b9050919050565b7f4e6f7420726563697069656e742044494420636f6e74726f6c6c657200000000600082015250565b6000614c77601c8361368a565b9150614c8282614c41565b602082019050919050565b60006020820190508181036000830152614ca681614c6a565b9050919050565b7f497373756572206e6f7420747275737465640000000000000000000000000000600082015250565b6000614ce360128361368a565b9150614cee82614cad565b602082019050919050565b60006020820190508181036000830152614d1281614cd6565b9050919050565b7f496e646578206f7574206f6620626f756e647300000000000000000000000000600082015250565b6000614d4f60138361368a565b9150614d5a82614d19565b602082019050919050565b60006020820190508181036000830152614d7e81614d42565b9050919050565b7f4e487b7100000000000000000000000000000000000000000000000000000000600052603260045260246000fd5b7f4e487b7100000000000000000000000000000000000000000000000000000000600052602160045260246000fd5b614dec81613d00565b82525050565b6000602082019050614e076000830184614de3565b92915050565b600060ff82169050919050565b614e2381614e0d565b82525050565b6000608082019050614e3e6000830187614de3565b614e4b6020830186614e1a565b614e586040830185614de3565b614e656060830184614de3565b9594505050505056fea2646970667358221220d5a1958912098cfe1980b78981082a820fa0b2867b343615ff5455c1e5e6cc4064736f6c634300081a0033",
  "immutableReferences": {},
  "source": "// SPDX-License-Identifier: MIT\npragma solidity ^0.8.19;\n\nimport \"@openzeppelin/contracts/utils/cryptography/ECDSA.sol\";\nimport \"@openzeppelin/contracts/utils/cryptography/MessageHashUtils.sol\";\nimport \"@openzeppelin/contracts/access/Ownable.sol\";\n\ncontract DIDRegistry is Ownable {\n    using ECDSA for bytes32;\n    using MessageHashUtils for bytes32;\n\n    struct DIDDocument {\n        string id;\n        address controller;\n        string publicKey;\n        uint256 created;\n        uint256 updated;\n        bool isActive;\n        bool isTrustedIssuer;\n    }\n\n    struct AcceptanceRecord {\n        string issuerDID;\n        string recipientDID;\n        uint256 timestamp;\n    }\n\n    struct TrustMetrics {\n        uint256 totalIssued;\n        uint256 totalAccepted;\n        uint256 lastUpdated;\n        uint256 trustScore;\n    }\n\n    mapping(string => DIDDocument) public didDocuments;\n    mapping(address => string[]) public controllerToDIDs;\n    mapping(string => TrustMetrics) public issuerTrustMetrics;\n    mapping(string => mapping(string => uint256)) public issuerToRecipientAcceptances;\n    mapping(string => string[]) public issuerAcceptedBy;\n    \n    string[] public allDIDs;\n    string public adminDID;\n    bool public adminSet;\n    AcceptanceRecord[] public acceptanceHistory;\n\n    event DIDCreated(string indexed didId, address indexed controller, string publicKey);\n    event DIDUpdated(string indexed didId);\n    event DIDDeactivated(string indexed didId);\n    event TrustedIssuerAdded(string indexed issuerDID);\n    event TrustedIssuerRemoved(string indexed issuerDID);\n    event AdminDIDSet(string indexed adminDID);\n    event CredentialAccepted(string indexed issuerDID, string indexed recipientDID);\n    event TrustScoreUpdated(string indexed issuerDID, uint256 newTrustScore);\n\n    constructor() Ownable(msg.sender) {\n        adminSet = false;\n    }\n\n    modifier onlyDIDController(string memory didId) {\n        require(didDocuments[didId].controller == msg.sender, \"Not DID controller\");\n        require(didDocuments[didId].isActive, \"DID not active\");\n        _;\n    }\n\n    modifier onlyAdmin() {\n        require(adminSet, \"Admin DID not set\");\n        require(didDocuments[adminDID].controller == msg.sender, \"Not admin\");\n        require(didDocuments[adminDID].isActive, \"Admin DID not active\");\n        _;\n    }\n\n    modifier didExists(string memory didId) {\n        require(didDocuments[didId].controller != address(0), \"DID does not exist\");\n        _;\n    }\n\n    function createDID(string memory didId, string memory publicKey) external {\n        require(bytes(didId).length > 0, \"DID ID cannot be empty\");\n        require(bytes(publicKey).length > 0, \"Public key cannot be empty\");\n        require(didDocuments[didId].controller == address(0), \"DID already exists\");\n\n        didDocuments[didId] = DIDDocument({\n            id: didId,\n            controller: msg.sender,\n            publicKey: publicKey,\n            created: block.timestamp,\n            updated: block.timestamp,\n            isActive: true,\n            isTrustedIssuer: false\n        });\n\n        controllerToDIDs[msg.sender].push(didId);\n        allDIDs.push(didId);\n\n        if (!adminSet) {\n            adminDID = didId;\n            adminSet = true;\n            emit AdminDIDSet(didId);\n        }\n\n        emit DIDCreated(didId, msg.sender, publicKey);\n    }\n\n    function updateDID(string memory didId, string memory newPublicKey) external onlyDIDController(didId) {\n        require(bytes(newPublicKey).length > 0, \"Public key cannot be empty\");\n        \n        didDocuments[didId].publicKey = newPublicKey;\n        didDocuments[didId].updated = block.timestamp;\n        \n        emit DIDUpdated(didId);\n    }\n\n    function deactivateDID(string memory didId) external onlyDIDController(didId) {\n        require(keccak256(bytes(didId)) != keccak256(bytes(adminDID)), \"Cannot deactivate admin DID\");\n        \n        require(!didDocuments[didId].isTrustedIssuer, \"Cannot deactivate trusted issuer\");\n        \n        didDocuments[didId].isActive = false;\n        didDocuments[didId].updated = block.timestamp;\n        emit DIDDeactivated(didId);\n    }\n\n    function addTrustedIssuer(string memory issuerDID) external onlyAdmin {\n        require(didDocuments[issuerDID].isActive, \"Issuer DID not active\");\n        require(!didDocuments[issuerDID].isTrustedIssuer, \"Issuer already trusted\");\n        \n        didDocuments[issuerDID].isTrustedIssuer = true;\n        didDocuments[issuerDID].updated = block.timestamp;\n        \n        emit TrustedIssuerAdded(issuerDID);\n    }\n\n    function removeTrustedIssuer(string memory issuerDID) external onlyAdmin {\n        require(didDocuments[issuerDID].isTrustedIssuer, \"Issuer not trusted\");\n        \n        didDocuments[issuerDID].isTrustedIssuer = false;\n        didDocuments[issuerDID].updated = block.timestamp;\n        \n        emit TrustedIssuerRemoved(issuerDID);\n    }\n\n    function verifySignature(string memory didId, bytes32 messageHash, bytes memory signature\n    ) external view didExists(didId) returns (bool) {\n        require(didDocuments[didId].isActive, \"DID not active\");\n\n        bytes32 ethSignedMessageHash = messageHash.toEthSignedMessageHash();\n        address recoveredSigner = ethSignedMessageHash.recover(signature);\n        return recoveredSigner == didDocuments[didId].controller;\n    }\n\n    function verifyDataSignature(string memory didId, bytes memory data, bytes memory signature\n    ) external view didExists(didId) returns (bool) {\n        require(didDocuments[didId].isActive, \"DID not active\");\n        \n        bytes32 dataHash = keccak256(data);\n        bytes32 ethSignedMessageHash = dataHash.toEthSignedMessageHash();\n\n        address recoveredSigner = ethSignedMessageHash.recover(signature);\n        return recoveredSigner == didDocuments[didId].controller;\n    }\n\n    function getDIDDocument(string memory didId) external view didExists(didId) returns (DIDDocument memory) {\n        return didDocuments[didId];\n    }\n\n    function isTrustedIssuer(string memory didId) external view returns (bool) {\n        return didDocuments[didId].isTrustedIssuer && didDocuments[didId].isActive;\n    }\n\n    function isAdminDID(string memory didId) external view returns (bool) {\n        return keccak256(bytes(didId)) == keccak256(bytes(adminDID));\n    }\n\n    function getDIDsByController(address controller) external view returns (string[] memory) {\n        return controllerToDIDs[controller];\n    }\n\n    function isDIDActive(string memory didId) external view didExists(didId) returns (bool) {\n        return didDocuments[didId].isActive;\n    }\n\n    function getAllDIDs() external view returns (string[] memory) {\n        return allDIDs;\n    }\n\n    function getAllDIDsCount() external view returns (uint256) {\n        return allDIDs.length;\n    }\n\n    function recordCredentialIssuance(string memory issuerDID, string memory recipientDID) external {\n        require(didDocuments[issuerDID].controller == msg.sender, \"Not issuer DID controller\");\n        require(didDocuments[issuerDID].isActive, \"Issuer DID not active\");\n        require(didDocuments[recipientDID].isActive, \"Recipient DID not active\");\n\n        issuerTrustMetrics[issuerDID].totalIssued++;\n        issuerTrustMetrics[issuerDID].lastUpdated = block.timestamp;\n    }\n\n    function recordCredentialAcceptance(string memory issuerDID, string memory recipientDID) external {\n        require(didDocuments[recipientDID].controller == msg.sender, \"Not recipient DID controller\");\n        require(didDocuments[issuerDID].isActive, \"Issuer DID not active\");\n        require(didDocuments[recipientDID].isActive, \"Recipient DID not active\");\n\n        if (issuerToRecipientAcceptances[issuerDID][recipientDID] == 0) {\n            issuerAcceptedBy[issuerDID].push(recipientDID);\n        }\n        \n        issuerToRecipientAcceptances[issuerDID][recipientDID]++;\n        issuerTrustMetrics[issuerDID].totalAccepted++;\n        issuerTrustMetrics[issuerDID].lastUpdated = block.timestamp;\n        \n        acceptanceHistory.push(AcceptanceRecord({\n            issuerDID: issuerDID,\n            recipientDID: recipientDID,\n            timestamp: block.timestamp\n        }));\n\n        emit CredentialAccepted(issuerDID, recipientDID);\n    }\n\n    function updateTrustScore(string memory issuerDID, uint256 newScore) external onlyAdmin {\n        issuerTrustMetrics[issuerDID].trustScore = newScore;\n        issuerTrustMetrics[issuerDID].lastUpdated = block.timestamp;\n        emit TrustScoreUpdated(issuerDID, newScore);\n    }\n\n    function getTrustMetrics(string memory issuerDID) external view returns (TrustMetrics memory) {\n        return issuerTrustMetrics[issuerDID];\n    }\n\n    function getAcceptanceCount(string memory issuerDID, string memory recipientDID) external view returns (uint256) {\n        return issuerToRecipientAcceptances[issuerDID][recipientDID];\n    }\n\n    function getAcceptedByList(string memory issuerDID) external view returns (string[] memory) {\n        return issuerAcceptedBy[issuerDID];\n    }\n\n    function getAcceptanceHistoryLength() external view returns (uint256) {\n        return acceptanceHistory.length;\n    }\n\n    function getAcceptanceRecord(uint256 index) external view returns (AcceptanceRecord memory) {\n        require(index < acceptanceHistory.length, \"Index out of bounds\");\n        return acceptanceHistory[index];\n    }\n    \n}\n",
  "sourcePath": "/Users/raphaelabderrahmani/Desktop/Blockchain/Code/DID-project/contracts/DIDRegistry.sol",
  "compiler": {
    "name": "solc",
    "version": "0.8.26+commit.8a97fa7a.Emscripten.clang"
  },
  "schemaVersion": "3.4.16",
  "updatedAt": "2025-08-14T18:59:01.058Z",
  "networkType": "ethereum",
  "devdoc": {
    "errors": {
      "ECDSAInvalidSignature()": [
        {
          "details": "The signature derives the `address(0)`."
        }
      ],
      "ECDSAInvalidSignatureLength(uint256)": [
        {
          "details": "The signature has an invalid length."
        }
      ],
      "ECDSAInvalidSignatureS(bytes32)": [
        {
          "details": "The signature has an S value that is in the upper half order."
        }
      ],
      "OwnableInvalidOwner(address)": [
        {
          "details": "The owner is not a valid owner account. (eg. `address(0)`)"
        }
      ],
      "OwnableUnauthorizedAccount(address)": [
        {
          "details": "The caller account is not authorized to perform an operation."
        }
      ]
    },
    "kind": "dev",
    "methods": {
      "owner()": {
        "details": "Returns the address of the current owner."
      },
      "renounceOwnership()": {
        "details": "Leaves the contract without owner. It will not be possible to call `onlyOwner` functions. Can only be called by the current owner. NOTE: Renouncing ownership will leave the contract without an owner, thereby disabling any functionality that is only available to the owner."
      },
      "transferOwnership(address)": {
        "details": "Transfers ownership of the contract to a new account (`newOwner`). Can only be called by the current owner."
      }
    },
    "version": 1
  },
  "userdoc": {
    "kind": "user",
    "methods": {},
    "version": 1
  }
}