{
  "contractName": "DIDRegistry",
  "abi": [
    {
      "inputs": [],
      "stateMutability": "nonpayable",
      "type": "constructor"
    },
    {
      "inputs": [],
      "name": "ECDSAInvalidSignature",
      "type": "error"
    },
    {
      "inputs": [
        {
          "internalType": "uint256",
          "name": "length",
          "type": "uint256"
        }
      ],
      "name": "ECDSAInvalidSignatureLength",
      "type": "error"
    },
    {
      "inputs": [
        {
          "internalType": "bytes32",
          "name": "s",
          "type": "bytes32"
        }
      ],
      "name": "ECDSAInvalidSignatureS",
      "type": "error"
    },
    {
      "inputs": [
        {
          "internalType": "address",
          "name": "owner",
          "type": "address"
        }
      ],
      "name": "OwnableInvalidOwner",
      "type": "error"
    },
    {
      "inputs": [
        {
          "internalType": "address",
          "name": "account",
          "type": "address"
        }
      ],
      "name": "OwnableUnauthorizedAccount",
      "type": "error"
    },
    {
      "anonymous": false,
      "inputs": [
        {
          "indexed": true,
          "internalType": "string",
          "name": "adminDID",
          "type": "string"
        }
      ],
      "name": "AdminDIDSet",
      "type": "event"
    },
    {
      "anonymous": false,
      "inputs": [
        {
          "indexed": true,
          "internalType": "string",
          "name": "issuerDID",
          "type": "string"
        },
        {
          "indexed": true,
          "internalType": "string",
          "name": "recipientDID",
          "type": "string"
        }
      ],
      "name": "CredentialAccepted",
      "type": "event"
    },
    {
      "anonymous": false,
      "inputs": [
        {
          "indexed": true,
          "internalType": "string",
          "name": "didId",
          "type": "string"
        },
        {
          "indexed": true,
          "internalType": "address",
          "name": "controller",
          "type": "address"
        },
        {
          "indexed": false,
          "internalType": "string",
          "name": "publicKey",
          "type": "string"
        }
      ],
      "name": "DIDCreated",
      "type": "event"
    },
    {
      "anonymous": false,
      "inputs": [
        {
          "indexed": true,
          "internalType": "string",
          "name": "didId",
          "type": "string"
        }
      ],
      "name": "DIDDeactivated",
      "type": "event"
    },
    {
      "anonymous": false,
      "inputs": [
        {
          "indexed": true,
          "internalType": "string",
          "name": "didId",
          "type": "string"
        }
      ],
      "name": "DIDUpdated",
      "type": "event"
    },
    {
      "anonymous": false,
      "inputs": [
        {
          "indexed": true,
          "internalType": "address",
          "name": "previousOwner",
          "type": "address"
        },
        {
          "indexed": true,
          "internalType": "address",
          "name": "newOwner",
          "type": "address"
        }
      ],
      "name": "OwnershipTransferred",
      "type": "event"
    },
    {
      "anonymous": false,
      "inputs": [
        {
          "indexed": true,
          "internalType": "string",
          "name": "issuerDID",
          "type": "string"
        },
        {
          "indexed": false,
          "internalType": "uint256",
          "name": "newTrustScore",
          "type": "uint256"
        }
      ],
      "name": "TrustScoreUpdated",
      "type": "event"
    },
    {
      "anonymous": false,
      "inputs": [
        {
          "indexed": true,
          "internalType": "string",
          "name": "issuerDID",
          "type": "string"
        }
      ],
      "name": "TrustedIssuerAdded",
      "type": "event"
    },
    {
      "anonymous": false,
      "inputs": [
        {
          "indexed": true,
          "internalType": "string",
          "name": "issuerDID",
          "type": "string"
        }
      ],
      "name": "TrustedIssuerRemoved",
      "type": "event"
    },
    {
      "inputs": [
        {
          "internalType": "uint256",
          "name": "",
          "type": "uint256"
        }
      ],
      "name": "acceptanceHistory",
      "outputs": [
        {
          "internalType": "string",
          "name": "issuerDID",
          "type": "string"
        },
        {
          "internalType": "string",
          "name": "recipientDID",
          "type": "string"
        },
        {
          "internalType": "uint256",
          "name": "timestamp",
          "type": "uint256"
        }
      ],
      "stateMutability": "view",
      "type": "function",
      "constant": true
    },
    {
      "inputs": [],
      "name": "adminDID",
      "outputs": [
        {
          "internalType": "string",
          "name": "",
          "type": "string"
        }
      ],
      "stateMutability": "view",
      "type": "function",
      "constant": true
    },
    {
      "inputs": [],
      "name": "adminSet",
      "outputs": [
        {
          "internalType": "bool",
          "name": "",
          "type": "bool"
        }
      ],
      "stateMutability": "view",
      "type": "function",
      "constant": true
    },
    {
      "inputs": [
        {
          "internalType": "uint256",
          "name": "",
          "type": "uint256"
        }
      ],
      "name": "allDIDs",
      "outputs": [
        {
          "internalType": "string",
          "name": "",
          "type": "string"
        }
      ],
      "stateMutability": "view",
      "type": "function",
      "constant": true
    },
    {
      "inputs": [
        {
          "internalType": "address",
          "name": "",
          "type": "address"
        },
        {
          "internalType": "uint256",
          "name": "",
          "type": "uint256"
        }
      ],
      "name": "controllerToDIDs",
      "outputs": [
        {
          "internalType": "string",
          "name": "",
          "type": "string"
        }
      ],
      "stateMutability": "view",
      "type": "function",
      "constant": true
    },
    {
      "inputs": [
        {
          "internalType": "string",
          "name": "",
          "type": "string"
        }
      ],
      "name": "didDocuments",
      "outputs": [
        {
          "internalType": "string",
          "name": "id",
          "type": "string"
        },
        {
          "internalType": "address",
          "name": "controller",
          "type": "address"
        },
        {
          "internalType": "string",
          "name": "publicKey",
          "type": "string"
        },
        {
          "internalType": "uint256",
          "name": "created",
          "type": "uint256"
        },
        {
          "internalType": "uint256",
          "name": "updated",
          "type": "uint256"
        },
        {
          "internalType": "bool",
          "name": "isActive",
          "type": "bool"
        },
        {
          "internalType": "bool",
          "name": "isTrustedIssuer",
          "type": "bool"
        }
      ],
      "stateMutability": "view",
      "type": "function",
      "constant": true
    },
    {
      "inputs": [
        {
          "internalType": "string",
          "name": "",
          "type": "string"
        },
        {
          "internalType": "uint256",
          "name": "",
          "type": "uint256"
        }
      ],
      "name": "issuerAcceptedBy",
      "outputs": [
        {
          "internalType": "string",
          "name": "",
          "type": "string"
        }
      ],
      "stateMutability": "view",
      "type": "function",
      "constant": true
    },
    {
      "inputs": [
        {
          "internalType": "string",
          "name": "",
          "type": "string"
        },
        {
          "internalType": "string",
          "name": "",
          "type": "string"
        }
      ],
      "name": "issuerToRecipientAcceptances",
      "outputs": [
        {
          "internalType": "uint256",
          "name": "",
          "type": "uint256"
        }
      ],
      "stateMutability": "view",
      "type": "function",
      "constant": true
    },
    {
      "inputs": [
        {
          "internalType": "string",
          "name": "",
          "type": "string"
        }
      ],
      "name": "issuerTrustMetrics",
      "outputs": [
        {
          "internalType": "uint256",
          "name": "totalIssued",
          "type": "uint256"
        },
        {
          "internalType": "uint256",
          "name": "totalAccepted",
          "type": "uint256"
        },
        {
          "internalType": "uint256",
          "name": "lastUpdated",
          "type": "uint256"
        },
        {
          "internalType": "uint256",
          "name": "trustScore",
          "type": "uint256"
        }
      ],
      "stateMutability": "view",
      "type": "function",
      "constant": true
    },
    {
      "inputs": [],
      "name": "owner",
      "outputs": [
        {
          "internalType": "address",
          "name": "",
          "type": "address"
        }
      ],
      "stateMutability": "view",
      "type": "function",
      "constant": true
    },
    {
      "inputs": [],
      "name": "renounceOwnership",
      "outputs": [],
      "stateMutability": "nonpayable",
      "type": "function"
    },
    {
      "inputs": [
        {
          "internalType": "address",
          "name": "newOwner",
          "type": "address"
        }
      ],
      "name": "transferOwnership",
      "outputs": [],
      "stateMutability": "nonpayable",
      "type": "function"
    },
    {
      "inputs": [
        {
          "internalType": "string",
          "name": "didId",
          "type": "string"
        },
        {
          "internalType": "string",
          "name": "publicKey",
          "type": "string"
        }
      ],
      "name": "createDID",
      "outputs": [],
      "stateMutability": "nonpayable",
      "type": "function"
    },
    {
      "inputs": [
        {
          "internalType": "string",
          "name": "didId",
          "type": "string"
        },
        {
          "internalType": "string",
          "name": "newPublicKey",
          "type": "string"
        }
      ],
      "name": "updateDID",
      "outputs": [],
      "stateMutability": "nonpayable",
      "type": "function"
    },
    {
      "inputs": [
        {
          "internalType": "string",
          "name": "didId",
          "type": "string"
        }
      ],
      "name": "deactivateDID",
      "outputs": [],
      "stateMutability": "nonpayable",
      "type": "function"
    },
    {
      "inputs": [
        {
          "internalType": "string",
          "name": "issuerDID",
          "type": "string"
        }
      ],
      "name": "addTrustedIssuer",
      "outputs": [],
      "stateMutability": "nonpayable",
      "type": "function"
    },
    {
      "inputs": [
        {
          "internalType": "string",
          "name": "issuerDID",
          "type": "string"
        }
      ],
      "name": "removeTrustedIssuer",
      "outputs": [],
      "stateMutability": "nonpayable",
      "type": "function"
    },
    {
      "inputs": [
        {
          "internalType": "string",
          "name": "didId",
          "type": "string"
        },
        {
          "internalType": "bytes32",
          "name": "messageHash",
          "type": "bytes32"
        },
        {
          "internalType": "bytes",
          "name": "signature",
          "type": "bytes"
        }
      ],
      "name": "verifySignature",
      "outputs": [
        {
          "internalType": "bool",
          "name": "",
          "type": "bool"
        }
      ],
      "stateMutability": "view",
      "type": "function",
      "constant": true
    },
    {
      "inputs": [
        {
          "internalType": "string",
          "name": "didId",
          "type": "string"
        },
        {
          "internalType": "bytes",
          "name": "data",
          "type": "bytes"
        },
        {
          "internalType": "bytes",
          "name": "signature",
          "type": "bytes"
        }
      ],
      "name": "verifyDataSignature",
      "outputs": [
        {
          "internalType": "bool",
          "name": "",
          "type": "bool"
        }
      ],
      "stateMutability": "view",
      "type": "function",
      "constant": true
    },
    {
      "inputs": [
        {
          "internalType": "string",
          "name": "didId",
          "type": "string"
        }
      ],
      "name": "getDIDDocument",
      "outputs": [
        {
          "components": [
            {
              "internalType": "string",
              "name": "id",
              "type": "string"
            },
            {
              "internalType": "address",
              "name": "controller",
              "type": "address"
            },
            {
              "internalType": "string",
              "name": "publicKey",
              "type": "string"
            },
            {
              "internalType": "uint256",
              "name": "created",
              "type": "uint256"
            },
            {
              "internalType": "uint256",
              "name": "updated",
              "type": "uint256"
            },
            {
              "internalType": "bool",
              "name": "isActive",
              "type": "bool"
            },
            {
              "internalType": "bool",
              "name": "isTrustedIssuer",
              "type": "bool"
            }
          ],
          "internalType": "struct DIDRegistry.DIDDocument",
          "name": "",
          "type": "tuple"
        }
      ],
      "stateMutability": "view",
      "type": "function",
      "constant": true
    },
    {
      "inputs": [
        {
          "internalType": "string",
          "name": "didId",
          "type": "string"
        }
      ],
      "name": "isTrustedIssuer",
      "outputs": [
        {
          "internalType": "bool",
          "name": "",
          "type": "bool"
        }
      ],
      "stateMutability": "view",
      "type": "function",
      "constant": true
    },
    {
      "inputs": [
        {
          "internalType": "string",
          "name": "didId",
          "type": "string"
        }
      ],
      "name": "isAdminDID",
      "outputs": [
        {
          "internalType": "bool",
          "name": "",
          "type": "bool"
        }
      ],
      "stateMutability": "view",
      "type": "function",
      "constant": true
    },
    {
      "inputs": [
        {
          "internalType": "address",
          "name": "controller",
          "type": "address"
        }
      ],
      "name": "getDIDsByController",
      "outputs": [
        {
          "internalType": "string[]",
          "name": "",
          "type": "string[]"
        }
      ],
      "stateMutability": "view",
      "type": "function",
      "constant": true
    },
    {
      "inputs": [
        {
          "internalType": "string",
          "name": "didId",
          "type": "string"
        }
      ],
      "name": "isDIDActive",
      "outputs": [
        {
          "internalType": "bool",
          "name": "",
          "type": "bool"
        }
      ],
      "stateMutability": "view",
      "type": "function",
      "constant": true
    },
    {
      "inputs": [],
      "name": "getAllDIDs",
      "outputs": [
        {
          "internalType": "string[]",
          "name": "",
          "type": "string[]"
        }
      ],
      "stateMutability": "view",
      "type": "function",
      "constant": true
    },
    {
      "inputs": [],
      "name": "getAllDIDsCount",
      "outputs": [
        {
          "internalType": "uint256",
          "name": "",
          "type": "uint256"
        }
      ],
      "stateMutability": "view",
      "type": "function",
      "constant": true
    },
    {
      "inputs": [
        {
          "internalType": "string",
          "name": "issuerDID",
          "type": "string"
        },
        {
          "internalType": "string",
          "name": "recipientDID",
          "type": "string"
        }
      ],
      "name": "recordCredentialIssuance",
      "outputs": [],
      "stateMutability": "nonpayable",
      "type": "function"
    },
    {
      "inputs": [
        {
          "internalType": "string",
          "name": "issuerDID",
          "type": "string"
        },
        {
          "internalType": "string",
          "name": "recipientDID",
          "type": "string"
        }
      ],
      "name": "recordCredentialAcceptance",
      "outputs": [],
      "stateMutability": "nonpayable",
      "type": "function"
    },
    {
      "inputs": [
        {
          "internalType": "string",
          "name": "issuerDID",
          "type": "string"
        },
        {
          "internalType": "string",
          "name": "recipientDID",
          "type": "string"
        },
        {
          "internalType": "bytes32",
          "name": "vcHash",
          "type": "bytes32"
        }
      ],
      "name": "recordCredentialOfferAcceptance",
      "outputs": [],
      "stateMutability": "nonpayable",
      "type": "function"
    },
    {
      "inputs": [
        {
          "internalType": "string",
          "name": "issuerDID",
          "type": "string"
        },
        {
          "internalType": "uint256",
          "name": "newScore",
          "type": "uint256"
        }
      ],
      "name": "updateTrustScore",
      "outputs": [],
      "stateMutability": "nonpayable",
      "type": "function"
    },
    {
      "inputs": [
        {
          "internalType": "string",
          "name": "issuerDID",
          "type": "string"
        }
      ],
      "name": "getTrustMetrics",
      "outputs": [
        {
          "components": [
            {
              "internalType": "uint256",
              "name": "totalIssued",
              "type": "uint256"
            },
            {
              "internalType": "uint256",
              "name": "totalAccepted",
              "type": "uint256"
            },
            {
              "internalType": "uint256",
              "name": "lastUpdated",
              "type": "uint256"
            },
            {
              "internalType": "uint256",
              "name": "trustScore",
              "type": "uint256"
            }
          ],
          "internalType": "struct DIDRegistry.TrustMetrics",
          "name": "",
          "type": "tuple"
        }
      ],
      "stateMutability": "view",
      "type": "function",
      "constant": true
    },
    {
      "inputs": [
        {
          "internalType": "string",
          "name": "issuerDID",
          "type": "string"
        },
        {
          "internalType": "string",
          "name": "recipientDID",
          "type": "string"
        }
      ],
      "name": "getAcceptanceCount",
      "outputs": [
        {
          "internalType": "uint256",
          "name": "",
          "type": "uint256"
        }
      ],
      "stateMutability": "view",
      "type": "function",
      "constant": true
    },
    {
      "inputs": [
        {
          "internalType": "string",
          "name": "issuerDID",
          "type": "string"
        }
      ],
      "name": "getAcceptedByList",
      "outputs": [
        {
          "internalType": "string[]",
          "name": "",
          "type": "string[]"
        }
      ],
      "stateMutability": "view",
      "type": "function",
      "constant": true
    },
    {
      "inputs": [],
      "name": "getAcceptanceHistoryLength",
      "outputs": [
        {
          "internalType": "uint256",
          "name": "",
          "type": "uint256"
        }
      ],
      "stateMutability": "view",
      "type": "function",
      "constant": true
    },
    {
      "inputs": [
        {
          "internalType": "uint256",
          "name": "index",
          "type": "uint256"
        }
      ],
      "name": "getAcceptanceRecord",
      "outputs": [
        {
          "components": [
            {
              "internalType": "string",
              "name": "issuerDID",
              "type": "string"
            },
            {
              "internalType": "string",
              "name": "recipientDID",
              "type": "string"
            },
            {
              "internalType": "uint256",
              "name": "timestamp",
              "type": "uint256"
            }
          ],
          "internalType": "struct DIDRegistry.AcceptanceRecord",
          "name": "",
          "type": "tuple"
        }
      ],
      "stateMutability": "view",
      "type": "function",
      "constant": true
    }
  ],
  "bytecode": "0x608060405234801561001057600080fd5b5033600073ffffffffffffffffffffffffffffffffffffffff168173ffffffffffffffffffffffffffffffffffffffff16036100845760006040517f1e4fbdf700000000000000000000000000000000000000000000000000000000815260040161007b91906101b9565b60405180910390fd5b610093816100b460201b60201c565b506000600860006101000a81548160ff0219169083151502179055506101d4565b60008060009054906101000a900473ffffffffffffffffffffffffffffffffffffffff169050816000806101000a81548173ffffffffffffffffffffffffffffffffffffffff021916908373ffffffffffffffffffffffffffffffffffffffff1602179055508173ffffffffffffffffffffffffffffffffffffffff168173ffffffffffffffffffffffffffffffffffffffff167f8be0079c531659141344cd1fd0a4f28419497f9722a3daafe3b4186f6b6457e060405160405180910390a35050565b600073ffffffffffffffffffffffffffffffffffffffff82169050919050565b60006101a382610178565b9050919050565b6101b381610198565b82525050565b60006020820190506101ce60008301846101aa565b92915050565b6153e5806101e36000396000f3fe608060405234801561001057600080fd5b50600436106102115760003560e01c806370d87670116101255780639e031f81116100ad578063b42a02b51161007c578063b42a02b5146106a3578063d25a06f4146106bf578063e4e91ad9146106db578063ee047bfa1461070b578063f2fde38b1461073b57610211565b80639e031f81146105f7578063a78be31a14610613578063ae46c14714610643578063b363cff31461067357610211565b806380710f20116100f457806380710f201461053f57806382ccb0051461055d5780638da5cb5b146105795780638fa62173146105975780639c970acf146105c757610211565b806370d87670146104a3578063715018a6146104d3578063784afc4e146104dd5780637b602cd41461050d57610211565b80632b9620fa116101a8578063476caace11610177578063476caace146103fa5780634c95303a1461042d5780635cd49ebb1461044b5780635ee2b4e41461046957806364312cd71461048757610211565b80632b9620fa146103745780633b253b23146103925780633cf362d1146103ae57806344b0b5d5146103ca57610211565b806320c9d73a116101e457806320c9d73a146102ae57806321fffa2c146102de57806324c483a51461030e5780632ae73ee11461034457610211565b80630f37a5d5146102165780631154e01114610246578063136fad99146102765780631539a50714610292575b600080fd5b610230600480360381019061022b9190613a9c565b610757565b60405161023d9190613b59565b60405180910390f35b610260600480360381019061025b9190613cb0565b610803565b60405161026d9190613d14565b60405180910390f35b610290600480360381019061028b9190613d65565b61082c565b005b6102ac60048036038101906102a79190613df0565b610c4f565b005b6102c860048036038101906102c39190613cb0565b61104f565b6040516102d59190613d14565b60405180910390f35b6102f860048036038101906102f39190613df0565b611139565b6040516103059190613e77565b60405180910390f35b61032860048036038101906103239190613cb0565b61118a565b60405161033b9796959493929190613ed3565b60405180910390f35b61035e60048036038101906103599190613cb0565b61132c565b60405161036b9190613d14565b60405180910390f35b61037c61139b565b6040516103899190613e77565b60405180910390f35b6103ac60048036038101906103a79190613cb0565b6113a8565b005b6103c860048036038101906103c39190613df0565b61163a565b005b6103e460048036038101906103df9190613ff1565b611826565b6040516103f19190613d14565b60405180910390f35b610414600480360381019061040f9190613cb0565b6119f4565b6040516104249493929190614098565b60405180910390f35b610435611a3a565b60405161044291906141e9565b60405180910390f35b610453611b13565b6040516104609190613b59565b60405180910390f35b610471611ba1565b60405161047e9190613e77565b60405180910390f35b6104a1600480360381019061049c9190613cb0565b611bae565b005b6104bd60048036038101906104b8919061420b565b611e9d565b6040516104ca9190613d14565b60405180910390f35b6104db61205e565b005b6104f760048036038101906104f29190613cb0565b612072565b6040516105049190614366565b60405180910390f35b61052760048036038101906105229190613a9c565b612320565b60405161053693929190614388565b60405180910390f35b61054761246a565b6040516105549190613d14565b60405180910390f35b61057760048036038101906105729190613df0565b61247d565b005b610581612823565b60405161058e91906143cd565b60405180910390f35b6105b160048036038101906105ac9190614414565b61284c565b6040516105be9190613b59565b60405180910390f35b6105e160048036038101906105dc9190613df0565b612905565b6040516105ee9190613e77565b60405180910390f35b610611600480360381019061060c9190613cb0565b61294a565b005b61062d60048036038101906106289190614454565b612bcb565b60405161063a9190613b59565b60405180910390f35b61065d60048036038101906106589190613cb0565b612c9a565b60405161066a9190614505565b60405180910390f35b61068d60048036038101906106889190614520565b612cfa565b60405161069a91906141e9565b60405180910390f35b6106bd60048036038101906106b89190613df0565b612e12565b005b6106d960048036038101906106d49190614454565b613010565b005b6106f560048036038101906106f09190613a9c565b61321b565b60405161070291906145a4565b60405180910390f35b61072560048036038101906107209190613cb0565b6133cc565b60405161073291906141e9565b60405180910390f35b61075560048036038101906107509190614520565b6134c3565b005b6006818154811061076757600080fd5b906000526020600020016000915090508054610782906145f5565b80601f01602080910402602001604051908101604052809291908181526020018280546107ae906145f5565b80156107fb5780601f106107d0576101008083540402835291602001916107fb565b820191906000526020600020905b8154815290600101906020018083116107de57829003601f168201915b505050505081565b6000600760405161081491906146c9565b60405180910390208280519060200120149050919050565b3373ffffffffffffffffffffffffffffffffffffffff16600183604051610853919061471c565b908152602001604051809103902060010160009054906101000a900473ffffffffffffffffffffffffffffffffffffffff1673ffffffffffffffffffffffffffffffffffffffff16146108db576040517f08c379a00000000000000000000000000000000000000000000000000000000081526004016108d29061477f565b60405180910390fd5b6001836040516108eb919061471c565b908152602001604051809103902060050160009054906101000a900460ff16610949576040517f08c379a0000000000000000000000000000000000000000000000000000000008152600401610940906147eb565b60405180910390fd5b600182604051610959919061471c565b908152602001604051809103902060050160009054906101000a900460ff166109b7576040517f08c379a00000000000000000000000000000000000000000000000000000000081526004016109ae90614857565b60405180910390fd5b6000801b81036109fc576040517f08c379a00000000000000000000000000000000000000000000000000000000081526004016109f3906148c3565b60405180910390fd5b600383604051610a0c919061471c565b90815260200160405180910390206000016000815480929190610a2e90614912565b91905055506000600484604051610a45919061471c565b908152602001604051809103902083604051610a61919061471c565b90815260200160405180910390205403610ac757600583604051610a85919061471c565b908152602001604051809103902082908060018154018082558091505060019003906000526020600020016000909190919091509081610ac59190614b06565b505b600483604051610ad7919061471c565b908152602001604051809103902082604051610af3919061471c565b90815260200160405180910390206000815480929190610b1290614912565b9190505550600383604051610b27919061471c565b90815260200160405180910390206001016000815480929190610b4990614912565b919050555042600384604051610b5f919061471c565b908152602001604051809103902060020181905550600960405180606001604052808581526020018481526020014281525090806001815401808255809150506001900390600052602060002090600302016000909190919091506000820151816000019081610bcf9190614b06565b506020820151816001019081610be59190614b06565b5060408201518160020155505081604051610c00919061471c565b604051809103902083604051610c16919061471c565b60405180910390207f8153fccaa356ece260a5824d255a291e5b11dacea39885212e565e451913835e60405160405180910390a3505050565b6000825111610c93576040517f08c379a0000000000000000000000000000000000000000000000000000000008152600401610c8a90614c24565b60405180910390fd5b6000815111610cd7576040517f08c379a0000000000000000000000000000000000000000000000000000000008152600401610cce90614c90565b60405180910390fd5b600073ffffffffffffffffffffffffffffffffffffffff16600183604051610cff919061471c565b908152602001604051809103902060010160009054906101000a900473ffffffffffffffffffffffffffffffffffffffff1673ffffffffffffffffffffffffffffffffffffffff1614610d87576040517f08c379a0000000000000000000000000000000000000000000000000000000008152600401610d7e90614cfc565b60405180910390fd5b6040518060e001604052808381526020013373ffffffffffffffffffffffffffffffffffffffff16815260200182815260200142815260200142815260200160011515815260200160001515815250600183604051610de6919061471c565b90815260200160405180910390206000820151816000019081610e099190614b06565b5060208201518160010160006101000a81548173ffffffffffffffffffffffffffffffffffffffff021916908373ffffffffffffffffffffffffffffffffffffffff1602179055506040820151816002019081610e669190614b06565b50606082015181600301556080820151816004015560a08201518160050160006101000a81548160ff02191690831515021790555060c08201518160050160016101000a81548160ff021916908315150217905550905050600260003373ffffffffffffffffffffffffffffffffffffffff1673ffffffffffffffffffffffffffffffffffffffff16815260200190815260200160002082908060018154018082558091505060019003906000526020600020016000909190919091509081610f2f9190614b06565b50600682908060018154018082558091505060019003906000526020600020016000909190919091509081610f649190614b06565b50600860009054906101000a900460ff16610fe7578160079081610f889190614b06565b506001600860006101000a81548160ff02191690831515021790555081604051610fb2919061471c565b60405180910390207f99fa2459ec4d365b8ea32c99c7a5b785cb3b22136b768fca4bf544a531f3eca360405160405180910390a25b3373ffffffffffffffffffffffffffffffffffffffff168260405161100c919061471c565b60405180910390207f63b814845f107bcec35c851cf55cdd7236e563def52caa46cb6857f52b755cac836040516110439190613b59565b60405180910390a35050565b600081600073ffffffffffffffffffffffffffffffffffffffff1660018260405161107a919061471c565b908152602001604051809103902060010160009054906101000a900473ffffffffffffffffffffffffffffffffffffffff1673ffffffffffffffffffffffffffffffffffffffff1603611102576040517f08c379a00000000000000000000000000000000000000000000000000000000081526004016110f990614d68565b60405180910390fd5b600183604051611112919061471c565b908152602001604051809103902060050160009054906101000a900460ff16915050919050565b60048280516020810182018051848252602083016020850120818352809550505050505081805160208101820180518482526020830160208501208183528095505050505050600091509150505481565b6001818051602081018201805184825260208301602085012081835280955050505050506000915090508060000180546111c3906145f5565b80601f01602080910402602001604051908101604052809291908181526020018280546111ef906145f5565b801561123c5780601f106112115761010080835404028352916020019161123c565b820191906000526020600020905b81548152906001019060200180831161121f57829003601f168201915b5050505050908060010160009054906101000a900473ffffffffffffffffffffffffffffffffffffffff1690806002018054611277906145f5565b80601f01602080910402602001604051908101604052809291908181526020018280546112a3906145f5565b80156112f05780601f106112c5576101008083540402835291602001916112f0565b820191906000526020600020905b8154815290600101906020018083116112d357829003601f168201915b5050505050908060030154908060040154908060050160009054906101000a900460ff16908060050160019054906101000a900460ff16905087565b600060018260405161133e919061471c565b908152602001604051809103902060050160019054906101000a900460ff1680156113945750600182604051611374919061471c565b908152602001604051809103902060050160009054906101000a900460ff165b9050919050565b6000600680549050905090565b803373ffffffffffffffffffffffffffffffffffffffff166001826040516113d0919061471c565b908152602001604051809103902060010160009054906101000a900473ffffffffffffffffffffffffffffffffffffffff1673ffffffffffffffffffffffffffffffffffffffff1614611458576040517f08c379a000000000000000000000000000000000000000000000000000000000815260040161144f90614dd4565b60405180910390fd5b600181604051611468919061471c565b908152602001604051809103902060050160009054906101000a900460ff166114c6576040517f08c379a00000000000000000000000000000000000000000000000000000000081526004016114bd90614e40565b60405180910390fd5b60076040516114d591906146c9565b6040518091039020828051906020012003611525576040517f08c379a000000000000000000000000000000000000000000000000000000000815260040161151c90614eac565b60405180910390fd5b600182604051611535919061471c565b908152602001604051809103902060050160019054906101000a900460ff1615611594576040517f08c379a000000000000000000000000000000000000000000000000000000000815260040161158b90614f18565b60405180910390fd5b60006001836040516115a6919061471c565b908152602001604051809103902060050160006101000a81548160ff021916908315150217905550426001836040516115df919061471c565b90815260200160405180910390206004018190555081604051611602919061471c565b60405180910390207f4360f12f602ccecefb32480e5314d0d3f57d38db8f52c76d8fdf4c39596c1c2860405160405180910390a25050565b3373ffffffffffffffffffffffffffffffffffffffff16600183604051611661919061471c565b908152602001604051809103902060010160009054906101000a900473ffffffffffffffffffffffffffffffffffffffff1673ffffffffffffffffffffffffffffffffffffffff16146116e9576040517f08c379a00000000000000000000000000000000000000000000000000000000081526004016116e090614f84565b60405180910390fd5b6001826040516116f9919061471c565b908152602001604051809103902060050160009054906101000a900460ff16611757576040517f08c379a000000000000000000000000000000000000000000000000000000000815260040161174e906147eb565b60405180910390fd5b600181604051611767919061471c565b908152602001604051809103902060050160009054906101000a900460ff166117c5576040517f08c379a00000000000000000000000000000000000000000000000000000000081526004016117bc90614857565b60405180910390fd5b6003826040516117d5919061471c565b908152602001604051809103902060000160008154809291906117f790614912565b91905055504260038360405161180d919061471c565b9081526020016040518091039020600201819055505050565b600083600073ffffffffffffffffffffffffffffffffffffffff16600182604051611851919061471c565b908152602001604051809103902060010160009054906101000a900473ffffffffffffffffffffffffffffffffffffffff1673ffffffffffffffffffffffffffffffffffffffff16036118d9576040517f08c379a00000000000000000000000000000000000000000000000000000000081526004016118d090614d68565b60405180910390fd5b6001856040516118e9919061471c565b908152602001604051809103902060050160009054906101000a900460ff16611947576040517f08c379a000000000000000000000000000000000000000000000000000000000815260040161193e90614e40565b60405180910390fd5b600084805190602001209050600061195e82613549565b90506000611975868361357f90919063ffffffff16565b9050600188604051611987919061471c565b908152602001604051809103902060010160009054906101000a900473ffffffffffffffffffffffffffffffffffffffff1673ffffffffffffffffffffffffffffffffffffffff168173ffffffffffffffffffffffffffffffffffffffff16149450505050509392505050565b6003818051602081018201805184825260208301602085012081835280955050505050506000915090508060000154908060010154908060020154908060030154905084565b60606006805480602002602001604051908101604052809291908181526020016000905b82821015611b0a578382906000526020600020018054611a7d906145f5565b80601f0160208091040260200160405190810160405280929190818152602001828054611aa9906145f5565b8015611af65780601f10611acb57610100808354040283529160200191611af6565b820191906000526020600020905b815481529060010190602001808311611ad957829003601f168201915b505050505081526020019060010190611a5e565b50505050905090565b60078054611b20906145f5565b80601f0160208091040260200160405190810160405280929190818152602001828054611b4c906145f5565b8015611b995780601f10611b6e57610100808354040283529160200191611b99565b820191906000526020600020905b815481529060010190602001808311611b7c57829003601f168201915b505050505081565b6000600980549050905090565b600860009054906101000a900460ff16611bfd576040517f08c379a0000000000000000000000000000000000000000000000000000000008152600401611bf490614ff0565b60405180910390fd5b3373ffffffffffffffffffffffffffffffffffffffff1660016007604051611c259190615093565b908152602001604051809103902060010160009054906101000a900473ffffffffffffffffffffffffffffffffffffffff1673ffffffffffffffffffffffffffffffffffffffff1614611cad576040517f08c379a0000000000000000000000000000000000000000000000000000000008152600401611ca4906150f6565b60405180910390fd5b60016007604051611cbe9190615093565b908152602001604051809103902060050160009054906101000a900460ff16611d1c576040517f08c379a0000000000000000000000000000000000000000000000000000000008152600401611d1390615162565b60405180910390fd5b600181604051611d2c919061471c565b908152602001604051809103902060050160009054906101000a900460ff16611d8a576040517f08c379a0000000000000000000000000000000000000000000000000000000008152600401611d81906147eb565b60405180910390fd5b600181604051611d9a919061471c565b908152602001604051809103902060050160019054906101000a900460ff1615611df9576040517f08c379a0000000000000000000000000000000000000000000000000000000008152600401611df0906151ce565b60405180910390fd5b60018082604051611e0a919061471c565b908152602001604051809103902060050160016101000a81548160ff02191690831515021790555042600182604051611e43919061471c565b90815260200160405180910390206004018190555080604051611e66919061471c565b60405180910390207f3fa3ab3bac0cccd0cb57495c0a834d60cfa7421c8150780ec693705cd636516560405160405180910390a250565b600083600073ffffffffffffffffffffffffffffffffffffffff16600182604051611ec8919061471c565b908152602001604051809103902060010160009054906101000a900473ffffffffffffffffffffffffffffffffffffffff1673ffffffffffffffffffffffffffffffffffffffff1603611f50576040517f08c379a0000000000000000000000000000000000000000000000000000000008152600401611f4790614d68565b60405180910390fd5b600185604051611f60919061471c565b908152602001604051809103902060050160009054906101000a900460ff16611fbe576040517f08c379a0000000000000000000000000000000000000000000000000000000008152600401611fb590614e40565b60405180910390fd5b6000611fc985613549565b90506000611fe0858361357f90919063ffffffff16565b9050600187604051611ff2919061471c565b908152602001604051809103902060010160009054906101000a900473ffffffffffffffffffffffffffffffffffffffff1673ffffffffffffffffffffffffffffffffffffffff168173ffffffffffffffffffffffffffffffffffffffff161493505050509392505050565b6120666135ab565b6120706000613632565b565b61207a6139b2565b81600073ffffffffffffffffffffffffffffffffffffffff166001826040516120a3919061471c565b908152602001604051809103902060010160009054906101000a900473ffffffffffffffffffffffffffffffffffffffff1673ffffffffffffffffffffffffffffffffffffffff160361212b576040517f08c379a000000000000000000000000000000000000000000000000000000000815260040161212290614d68565b60405180910390fd5b60018360405161213b919061471c565b90815260200160405180910390206040518060e0016040529081600082018054612164906145f5565b80601f0160208091040260200160405190810160405280929190818152602001828054612190906145f5565b80156121dd5780601f106121b2576101008083540402835291602001916121dd565b820191906000526020600020905b8154815290600101906020018083116121c057829003601f168201915b505050505081526020016001820160009054906101000a900473ffffffffffffffffffffffffffffffffffffffff1673ffffffffffffffffffffffffffffffffffffffff1673ffffffffffffffffffffffffffffffffffffffff16815260200160028201805461224c906145f5565b80601f0160208091040260200160405190810160405280929190818152602001828054612278906145f5565b80156122c55780601f1061229a576101008083540402835291602001916122c5565b820191906000526020600020905b8154815290600101906020018083116122a857829003601f168201915b5050505050815260200160038201548152602001600482015481526020016005820160009054906101000a900460ff161515151581526020016005820160019054906101000a900460ff161515151581525050915050919050565b6009818154811061233057600080fd5b9060005260206000209060030201600091509050806000018054612353906145f5565b80601f016020809104026020016040519081016040528092919081815260200182805461237f906145f5565b80156123cc5780601f106123a1576101008083540402835291602001916123cc565b820191906000526020600020905b8154815290600101906020018083116123af57829003601f168201915b5050505050908060010180546123e1906145f5565b80601f016020809104026020016040519081016040528092919081815260200182805461240d906145f5565b801561245a5780601f1061242f5761010080835404028352916020019161245a565b820191906000526020600020905b81548152906001019060200180831161243d57829003601f168201915b5050505050908060020154905083565b600860009054906101000a900460ff1681565b3373ffffffffffffffffffffffffffffffffffffffff166001826040516124a4919061471c565b908152602001604051809103902060010160009054906101000a900473ffffffffffffffffffffffffffffffffffffffff1673ffffffffffffffffffffffffffffffffffffffff161461252c576040517f08c379a00000000000000000000000000000000000000000000000000000000081526004016125239061477f565b60405180910390fd5b60018260405161253c919061471c565b908152602001604051809103902060050160009054906101000a900460ff1661259a576040517f08c379a0000000000000000000000000000000000000000000000000000000008152600401612591906147eb565b60405180910390fd5b6001816040516125aa919061471c565b908152602001604051809103902060050160009054906101000a900460ff16612608576040517f08c379a00000000000000000000000000000000000000000000000000000000081526004016125ff90614857565b60405180910390fd5b600060048360405161261a919061471c565b908152602001604051809103902082604051612636919061471c565b9081526020016040518091039020540361269c5760058260405161265a919061471c565b90815260200160405180910390208190806001815401808255809150506001900390600052602060002001600090919091909150908161269a9190614b06565b505b6004826040516126ac919061471c565b9081526020016040518091039020816040516126c8919061471c565b908152602001604051809103902060008154809291906126e790614912565b91905055506003826040516126fc919061471c565b9081526020016040518091039020600101600081548092919061271e90614912565b919050555042600383604051612734919061471c565b9081526020016040518091039020600201819055506009604051806060016040528084815260200183815260200142815250908060018154018082558091505060019003906000526020600020906003020160009091909190915060008201518160000190816127a49190614b06565b5060208201518160010190816127ba9190614b06565b50604082015181600201555050806040516127d5919061471c565b6040518091039020826040516127eb919061471c565b60405180910390207f8153fccaa356ece260a5824d255a291e5b11dacea39885212e565e451913835e60405160405180910390a35050565b60008060009054906101000a900473ffffffffffffffffffffffffffffffffffffffff16905090565b6002602052816000526040600020818154811061286857600080fd5b90600052602060002001600091509150508054612884906145f5565b80601f01602080910402602001604051908101604052809291908181526020018280546128b0906145f5565b80156128fd5780601f106128d2576101008083540402835291602001916128fd565b820191906000526020600020905b8154815290600101906020018083116128e057829003601f168201915b505050505081565b6000600483604051612917919061471c565b908152602001604051809103902082604051612933919061471c565b908152602001604051809103902054905092915050565b600860009054906101000a900460ff16612999576040517f08c379a000000000000000000000000000000000000000000000000000000000815260040161299090614ff0565b60405180910390fd5b3373ffffffffffffffffffffffffffffffffffffffff16600160076040516129c19190615093565b908152602001604051809103902060010160009054906101000a900473ffffffffffffffffffffffffffffffffffffffff1673ffffffffffffffffffffffffffffffffffffffff1614612a49576040517f08c379a0000000000000000000000000000000000000000000000000000000008152600401612a40906150f6565b60405180910390fd5b60016007604051612a5a9190615093565b908152602001604051809103902060050160009054906101000a900460ff16612ab8576040517f08c379a0000000000000000000000000000000000000000000000000000000008152600401612aaf90615162565b60405180910390fd5b600181604051612ac8919061471c565b908152602001604051809103902060050160019054906101000a900460ff16612b26576040517f08c379a0000000000000000000000000000000000000000000000000000000008152600401612b1d9061523a565b60405180910390fd5b6000600182604051612b38919061471c565b908152602001604051809103902060050160016101000a81548160ff02191690831515021790555042600182604051612b71919061471c565b90815260200160405180910390206004018190555080604051612b94919061471c565b60405180910390207f681faa00c7b37242bbf8b47f00f510cff20f12f295e1e29690b497232596f84a60405160405180910390a250565b6005828051602081018201805184825260208301602085012081835280955050505050508181548110612bfd57600080fd5b90600052602060002001600091509150508054612c19906145f5565b80601f0160208091040260200160405190810160405280929190818152602001828054612c45906145f5565b8015612c925780601f10612c6757610100808354040283529160200191612c92565b820191906000526020600020905b815481529060010190602001808311612c7557829003601f168201915b505050505081565b612ca2613a09565b600382604051612cb2919061471c565b90815260200160405180910390206040518060800160405290816000820154815260200160018201548152602001600282015481526020016003820154815250509050919050565b6060600260008373ffffffffffffffffffffffffffffffffffffffff1673ffffffffffffffffffffffffffffffffffffffff168152602001908152602001600020805480602002602001604051908101604052809291908181526020016000905b82821015612e07578382906000526020600020018054612d7a906145f5565b80601f0160208091040260200160405190810160405280929190818152602001828054612da6906145f5565b8015612df35780601f10612dc857610100808354040283529160200191612df3565b820191906000526020600020905b815481529060010190602001808311612dd657829003601f168201915b505050505081526020019060010190612d5b565b505050509050919050565b813373ffffffffffffffffffffffffffffffffffffffff16600182604051612e3a919061471c565b908152602001604051809103902060010160009054906101000a900473ffffffffffffffffffffffffffffffffffffffff1673ffffffffffffffffffffffffffffffffffffffff1614612ec2576040517f08c379a0000000000000000000000000000000000000000000000000000000008152600401612eb990614dd4565b60405180910390fd5b600181604051612ed2919061471c565b908152602001604051809103902060050160009054906101000a900460ff16612f30576040517f08c379a0000000000000000000000000000000000000000000000000000000008152600401612f2790614e40565b60405180910390fd5b6000825111612f74576040517f08c379a0000000000000000000000000000000000000000000000000000000008152600401612f6b90614c90565b60405180910390fd5b81600184604051612f85919061471c565b90815260200160405180910390206002019081612fa29190614b06565b5042600184604051612fb4919061471c565b90815260200160405180910390206004018190555082604051612fd7919061471c565b60405180910390207f7e7500a71b0209575a3b4858a2a662e94b0cad314ecb249f3526e9b2f86a014660405160405180910390a2505050565b600860009054906101000a900460ff1661305f576040517f08c379a000000000000000000000000000000000000000000000000000000000815260040161305690614ff0565b60405180910390fd5b3373ffffffffffffffffffffffffffffffffffffffff16600160076040516130879190615093565b908152602001604051809103902060010160009054906101000a900473ffffffffffffffffffffffffffffffffffffffff1673ffffffffffffffffffffffffffffffffffffffff161461310f576040517f08c379a0000000000000000000000000000000000000000000000000000000008152600401613106906150f6565b60405180910390fd5b600160076040516131209190615093565b908152602001604051809103902060050160009054906101000a900460ff1661317e576040517f08c379a000000000000000000000000000000000000000000000000000000000815260040161317590615162565b60405180910390fd5b8060038360405161318f919061471c565b908152602001604051809103902060030181905550426003836040516131b5919061471c565b908152602001604051809103902060020181905550816040516131d8919061471c565b60405180910390207fb43428490af27a1462be03e9f1584d951d01e99e832b8cbd206223c137d4ae748260405161320f9190613e77565b60405180910390a25050565b613223613a31565b600980549050821061326a576040517f08c379a0000000000000000000000000000000000000000000000000000000008152600401613261906152a6565b60405180910390fd5b6009828154811061327e5761327d6152c6565b5b90600052602060002090600302016040518060600160405290816000820180546132a7906145f5565b80601f01602080910402602001604051908101604052809291908181526020018280546132d3906145f5565b80156133205780601f106132f557610100808354040283529160200191613320565b820191906000526020600020905b81548152906001019060200180831161330357829003601f168201915b50505050508152602001600182018054613339906145f5565b80601f0160208091040260200160405190810160405280929190818152602001828054613365906145f5565b80156133b25780601f10613387576101008083540402835291602001916133b2565b820191906000526020600020905b81548152906001019060200180831161339557829003601f168201915b505050505081526020016002820154815250509050919050565b60606005826040516133de919061471c565b9081526020016040518091039020805480602002602001604051908101604052809291908181526020016000905b828210156134b857838290600052602060002001805461342b906145f5565b80601f0160208091040260200160405190810160405280929190818152602001828054613457906145f5565b80156134a45780601f10613479576101008083540402835291602001916134a4565b820191906000526020600020905b81548152906001019060200180831161348757829003601f168201915b50505050508152602001906001019061340c565b505050509050919050565b6134cb6135ab565b600073ffffffffffffffffffffffffffffffffffffffff168173ffffffffffffffffffffffffffffffffffffffff160361353d5760006040517f1e4fbdf700000000000000000000000000000000000000000000000000000000815260040161353491906143cd565b60405180910390fd5b61354681613632565b50565b60007f19457468657265756d205369676e6564204d6573736167653a0a33320000000060005281601c52603c6000209050919050565b60008060008061358f86866136f6565b92509250925061359f8282613752565b82935050505092915050565b6135b36138b6565b73ffffffffffffffffffffffffffffffffffffffff166135d1612823565b73ffffffffffffffffffffffffffffffffffffffff1614613630576135f46138b6565b6040517f118cdaa700000000000000000000000000000000000000000000000000000000815260040161362791906143cd565b60405180910390fd5b565b60008060009054906101000a900473ffffffffffffffffffffffffffffffffffffffff169050816000806101000a81548173ffffffffffffffffffffffffffffffffffffffff021916908373ffffffffffffffffffffffffffffffffffffffff1602179055508173ffffffffffffffffffffffffffffffffffffffff168173ffffffffffffffffffffffffffffffffffffffff167f8be0079c531659141344cd1fd0a4f28419497f9722a3daafe3b4186f6b6457e060405160405180910390a35050565b6000806000604184510361373b5760008060006020870151925060408701519150606087015160001a905061372d888285856138be565b95509550955050505061374b565b60006002855160001b9250925092505b9250925092565b60006003811115613766576137656152f5565b5b826003811115613779576137786152f5565b5b03156138b25760016003811115613793576137926152f5565b5b8260038111156137a6576137a56152f5565b5b036137dd576040517ff645eedf00000000000000000000000000000000000000000000000000000000815260040160405180910390fd5b600260038111156137f1576137f06152f5565b5b826003811115613804576138036152f5565b5b03613849578060001c6040517ffce698f70000000000000000000000000000000000000000000000000000000081526004016138409190613e77565b60405180910390fd5b60038081111561385c5761385b6152f5565b5b82600381111561386f5761386e6152f5565b5b036138b157806040517fd78bce0c0000000000000000000000000000000000000000000000000000000081526004016138a89190615333565b60405180910390fd5b5b5050565b600033905090565b60008060007f7fffffffffffffffffffffffffffffff5d576e7357a4501ddfe92f46681b20a08460001c11156138fe5760006003859250925092506139a8565b600060018888888860405160008152602001604052604051613923949392919061536a565b6020604051602081039080840390855afa158015613945573d6000803e3d6000fd5b505050602060405103519050600073ffffffffffffffffffffffffffffffffffffffff168173ffffffffffffffffffffffffffffffffffffffff160361399957600060016000801b935093509350506139a8565b8060008060001b935093509350505b9450945094915050565b6040518060e0016040528060608152602001600073ffffffffffffffffffffffffffffffffffffffff1681526020016060815260200160008152602001600081526020016000151581526020016000151581525090565b6040518060800160405280600081526020016000815260200160008152602001600081525090565b60405180606001604052806060815260200160608152602001600081525090565b6000604051905090565b600080fd5b600080fd5b6000819050919050565b613a7981613a66565b8114613a8457600080fd5b50565b600081359050613a9681613a70565b92915050565b600060208284031215613ab257613ab1613a5c565b5b6000613ac084828501613a87565b91505092915050565b600081519050919050565b600082825260208201905092915050565b60005b83811015613b03578082015181840152602081019050613ae8565b60008484015250505050565b6000601f19601f8301169050919050565b6000613b2b82613ac9565b613b358185613ad4565b9350613b45818560208601613ae5565b613b4e81613b0f565b840191505092915050565b60006020820190508181036000830152613b738184613b20565b905092915050565b600080fd5b600080fd5b7f4e487b7100000000000000000000000000000000000000000000000000000000600052604160045260246000fd5b613bbd82613b0f565b810181811067ffffffffffffffff82111715613bdc57613bdb613b85565b5b80604052505050565b6000613bef613a52565b9050613bfb8282613bb4565b919050565b600067ffffffffffffffff821115613c1b57613c1a613b85565b5b613c2482613b0f565b9050602081019050919050565b82818337600083830152505050565b6000613c53613c4e84613c00565b613be5565b905082815260208101848484011115613c6f57613c6e613b80565b5b613c7a848285613c31565b509392505050565b600082601f830112613c9757613c96613b7b565b5b8135613ca7848260208601613c40565b91505092915050565b600060208284031215613cc657613cc5613a5c565b5b600082013567ffffffffffffffff811115613ce457613ce3613a61565b5b613cf084828501613c82565b91505092915050565b60008115159050919050565b613d0e81613cf9565b82525050565b6000602082019050613d296000830184613d05565b92915050565b6000819050919050565b613d4281613d2f565b8114613d4d57600080fd5b50565b600081359050613d5f81613d39565b92915050565b600080600060608486031215613d7e57613d7d613a5c565b5b600084013567ffffffffffffffff811115613d9c57613d9b613a61565b5b613da886828701613c82565b935050602084013567ffffffffffffffff811115613dc957613dc8613a61565b5b613dd586828701613c82565b9250506040613de686828701613d50565b9150509250925092565b60008060408385031215613e0757613e06613a5c565b5b600083013567ffffffffffffffff811115613e2557613e24613a61565b5b613e3185828601613c82565b925050602083013567ffffffffffffffff811115613e5257613e51613a61565b5b613e5e85828601613c82565b9150509250929050565b613e7181613a66565b82525050565b6000602082019050613e8c6000830184613e68565b92915050565b600073ffffffffffffffffffffffffffffffffffffffff82169050919050565b6000613ebd82613e92565b9050919050565b613ecd81613eb2565b82525050565b600060e0820190508181036000830152613eed818a613b20565b9050613efc6020830189613ec4565b8181036040830152613f0e8188613b20565b9050613f1d6060830187613e68565b613f2a6080830186613e68565b613f3760a0830185613d05565b613f4460c0830184613d05565b98975050505050505050565b600067ffffffffffffffff821115613f6b57613f6a613b85565b5b613f7482613b0f565b9050602081019050919050565b6000613f94613f8f84613f50565b613be5565b905082815260208101848484011115613fb057613faf613b80565b5b613fbb848285613c31565b509392505050565b600082601f830112613fd857613fd7613b7b565b5b8135613fe8848260208601613f81565b91505092915050565b60008060006060848603121561400a57614009613a5c565b5b600084013567ffffffffffffffff81111561402857614027613a61565b5b61403486828701613c82565b935050602084013567ffffffffffffffff81111561405557614054613a61565b5b61406186828701613fc3565b925050604084013567ffffffffffffffff81111561408257614081613a61565b5b61408e86828701613fc3565b9150509250925092565b60006080820190506140ad6000830187613e68565b6140ba6020830186613e68565b6140c76040830185613e68565b6140d46060830184613e68565b95945050505050565b600081519050919050565b600082825260208201905092915050565b6000819050602082019050919050565b600082825260208201905092915050565b600061412582613ac9565b61412f8185614109565b935061413f818560208601613ae5565b61414881613b0f565b840191505092915050565b600061415f838361411a565b905092915050565b6000602082019050919050565b600061417f826140dd565b61418981856140e8565b93508360208202850161419b856140f9565b8060005b858110156141d757848403895281516141b88582614153565b94506141c383614167565b925060208a0199505060018101905061419f565b50829750879550505050505092915050565b600060208201905081810360008301526142038184614174565b905092915050565b60008060006060848603121561422457614223613a5c565b5b600084013567ffffffffffffffff81111561424257614241613a61565b5b61424e86828701613c82565b935050602061425f86828701613d50565b925050604084013567ffffffffffffffff8111156142805761427f613a61565b5b61428c86828701613fc3565b9150509250925092565b61429f81613eb2565b82525050565b6142ae81613a66565b82525050565b6142bd81613cf9565b82525050565b600060e08301600083015184820360008601526142e0828261411a565b91505060208301516142f56020860182614296565b506040830151848203604086015261430d828261411a565b915050606083015161432260608601826142a5565b50608083015161433560808601826142a5565b5060a083015161434860a08601826142b4565b5060c083015161435b60c08601826142b4565b508091505092915050565b6000602082019050818103600083015261438081846142c3565b905092915050565b600060608201905081810360008301526143a28186613b20565b905081810360208301526143b68185613b20565b90506143c56040830184613e68565b949350505050565b60006020820190506143e26000830184613ec4565b92915050565b6143f181613eb2565b81146143fc57600080fd5b50565b60008135905061440e816143e8565b92915050565b6000806040838503121561442b5761442a613a5c565b5b6000614439858286016143ff565b925050602061444a85828601613a87565b9150509250929050565b6000806040838503121561446b5761446a613a5c565b5b600083013567ffffffffffffffff81111561448957614488613a61565b5b61449585828601613c82565b92505060206144a685828601613a87565b9150509250929050565b6080820160008201516144c660008501826142a5565b5060208201516144d960208501826142a5565b5060408201516144ec60408501826142a5565b5060608201516144ff60608501826142a5565b50505050565b600060808201905061451a60008301846144b0565b92915050565b60006020828403121561453657614535613a5c565b5b6000614544848285016143ff565b91505092915050565b6000606083016000830151848203600086015261456a828261411a565b91505060208301518482036020860152614584828261411a565b915050604083015161459960408601826142a5565b508091505092915050565b600060208201905081810360008301526145be818461454d565b905092915050565b7f4e487b7100000000000000000000000000000000000000000000000000000000600052602260045260246000fd5b6000600282049050600182168061460d57607f821691505b6020821081036146205761461f6145c6565b5b50919050565b600081905092915050565b60008190508160005260206000209050919050565b60008154614653816145f5565b61465d8186614626565b94506001821660008114614678576001811461468d576146c0565b60ff19831686528115158202860193506146c0565b61469685614631565b60005b838110156146b857815481890152600182019150602081019050614699565b838801955050505b50505092915050565b60006146d58284614646565b915081905092915050565b600081905092915050565b60006146f682613ac9565b61470081856146e0565b9350614710818560208601613ae5565b80840191505092915050565b600061472882846146eb565b915081905092915050565b7f4e6f7420726563697069656e742044494420636f6e74726f6c6c657200000000600082015250565b6000614769601c83613ad4565b915061477482614733565b602082019050919050565b600060208201905081810360008301526147988161475c565b9050919050565b7f49737375657220444944206e6f74206163746976650000000000000000000000600082015250565b60006147d5601583613ad4565b91506147e08261479f565b602082019050919050565b60006020820190508181036000830152614804816147c8565b9050919050565b7f526563697069656e7420444944206e6f74206163746976650000000000000000600082015250565b6000614841601883613ad4565b915061484c8261480b565b602082019050919050565b6000602082019050818103600083015261487081614834565b9050919050565b7f564320686173682063616e6e6f7420626520656d707479000000000000000000600082015250565b60006148ad601783613ad4565b91506148b882614877565b602082019050919050565b600060208201905081810360008301526148dc816148a0565b9050919050565b7f4e487b7100000000000000000000000000000000000000000000000000000000600052601160045260246000fd5b600061491d82613a66565b91507fffffffffffffffffffffffffffffffffffffffffffffffffffffffffffffffff820361494f5761494e6148e3565b5b600182019050919050565b60008190508160005260206000209050919050565b60006020601f8301049050919050565b600082821b905092915050565b6000600883026149bc7fffffffffffffffffffffffffffffffffffffffffffffffffffffffffffffffff8261497f565b6149c6868361497f565b95508019841693508086168417925050509392505050565b6000819050919050565b6000614a036149fe6149f984613a66565b6149de565b613a66565b9050919050565b6000819050919050565b614a1d836149e8565b614a31614a2982614a0a565b84845461498c565b825550505050565b600090565b614a46614a39565b614a51818484614a14565b505050565b5b81811015614a7557614a6a600082614a3e565b600181019050614a57565b5050565b601f821115614aba57614a8b8161495a565b614a948461496f565b81016020851015614aa3578190505b614ab7614aaf8561496f565b830182614a56565b50505b505050565b600082821c905092915050565b6000614add60001984600802614abf565b1980831691505092915050565b6000614af68383614acc565b9150826002028217905092915050565b614b0f82613ac9565b67ffffffffffffffff811115614b2857614b27613b85565b5b614b3282546145f5565b614b3d828285614a79565b600060209050601f831160018114614b705760008415614b5e578287015190505b614b688582614aea565b865550614bd0565b601f198416614b7e8661495a565b60005b82811015614ba657848901518255600182019150602085019450602081019050614b81565b86831015614bc35784890151614bbf601f891682614acc565b8355505b6001600288020188555050505b505050505050565b7f4449442049442063616e6e6f7420626520656d70747900000000000000000000600082015250565b6000614c0e601683613ad4565b9150614c1982614bd8565b602082019050919050565b60006020820190508181036000830152614c3d81614c01565b9050919050565b7f5075626c6963206b65792063616e6e6f7420626520656d707479000000000000600082015250565b6000614c7a601a83613ad4565b9150614c8582614c44565b602082019050919050565b60006020820190508181036000830152614ca981614c6d565b9050919050565b7f44494420616c7265616479206578697374730000000000000000000000000000600082015250565b6000614ce6601283613ad4565b9150614cf182614cb0565b602082019050919050565b60006020820190508181036000830152614d1581614cd9565b9050919050565b7f44494420646f6573206e6f742065786973740000000000000000000000000000600082015250565b6000614d52601283613ad4565b9150614d5d82614d1c565b602082019050919050565b60006020820190508181036000830152614d8181614d45565b9050919050565b7f4e6f742044494420636f6e74726f6c6c65720000000000000000000000000000600082015250565b6000614dbe601283613ad4565b9150614dc982614d88565b602082019050919050565b60006020820190508181036000830152614ded81614db1565b9050919050565b7f444944206e6f7420616374697665000000000000000000000000000000000000600082015250565b6000614e2a600e83613ad4565b9150614e3582614df4565b602082019050919050565b60006020820190508181036000830152614e5981614e1d565b9050919050565b7f43616e6e6f7420646561637469766174652061646d696e204449440000000000600082015250565b6000614e96601b83613ad4565b9150614ea182614e60565b602082019050919050565b60006020820190508181036000830152614ec581614e89565b9050919050565b7f43616e6e6f742064656163746976617465207472757374656420697373756572600082015250565b6000614f02602083613ad4565b9150614f0d82614ecc565b602082019050919050565b60006020820190508181036000830152614f3181614ef5565b9050919050565b7f4e6f74206973737565722044494420636f6e74726f6c6c657200000000000000600082015250565b6000614f6e601983613ad4565b9150614f7982614f38565b602082019050919050565b60006020820190508181036000830152614f9d81614f61565b9050919050565b7f41646d696e20444944206e6f7420736574000000000000000000000000000000600082015250565b6000614fda601183613ad4565b9150614fe582614fa4565b602082019050919050565b6000602082019050818103600083015261500981614fcd565b9050919050565b6000815461501d816145f5565b61502781866146e0565b9450600182166000811461504257600181146150575761508a565b60ff198316865281151582028601935061508a565b6150608561495a565b60005b8381101561508257815481890152600182019150602081019050615063565b838801955050505b50505092915050565b600061509f8284615010565b915081905092915050565b7f4e6f742061646d696e0000000000000000000000000000000000000000000000600082015250565b60006150e0600983613ad4565b91506150eb826150aa565b602082019050919050565b6000602082019050818103600083015261510f816150d3565b9050919050565b7f41646d696e20444944206e6f7420616374697665000000000000000000000000600082015250565b600061514c601483613ad4565b915061515782615116565b602082019050919050565b6000602082019050818103600083015261517b8161513f565b9050919050565b7f49737375657220616c7265616479207472757374656400000000000000000000600082015250565b60006151b8601683613ad4565b91506151c382615182565b602082019050919050565b600060208201905081810360008301526151e7816151ab565b9050919050565b7f497373756572206e6f7420747275737465640000000000000000000000000000600082015250565b6000615224601283613ad4565b915061522f826151ee565b602082019050919050565b6000602082019050818103600083015261525381615217565b9050919050565b7f496e646578206f7574206f6620626f756e647300000000000000000000000000600082015250565b6000615290601383613ad4565b915061529b8261525a565b602082019050919050565b600060208201905081810360008301526152bf81615283565b9050919050565b7f4e487b7100000000000000000000000000000000000000000000000000000000600052603260045260246000fd5b7f4e487b7100000000000000000000000000000000000000000000000000000000600052602160045260246000fd5b61532d81613d2f565b82525050565b60006020820190506153486000830184615324565b92915050565b600060ff82169050919050565b6153648161534e565b82525050565b600060808201905061537f6000830187615324565b61538c602083018661535b565b6153996040830185615324565b6153a66060830184615324565b9594505050505056fea26469706673582212205efd397a83e4038ca5fa8cf83075bad1ece6aca9c2cd41374906a66bac1ac8b564736f6c634300081a0033",
  "immutableReferences": {},
  "source": "// SPDX-License-Identifier: MIT\npragma solidity ^0.8.19;\n\nimport \"@openzeppelin/contracts/utils/cryptography/ECDSA.sol\";\nimport \"@openzeppelin/contracts/utils/cryptography/MessageHashUtils.sol\";\nimport \"@openzeppelin/contracts/access/Ownable.sol\";\n\ncontract DIDRegistry is Ownable {\n    using ECDSA for bytes32;\n    using MessageHashUtils for bytes32;\n\n    struct DIDDocument {\n        string id;\n        address controller;\n        string publicKey;\n        uint256 created;\n        uint256 updated;\n        bool isActive;\n        bool isTrustedIssuer;\n    }\n\n    struct AcceptanceRecord {\n        string issuerDID;\n        string recipientDID;\n        uint256 timestamp;\n    }\n\n    struct TrustMetrics {\n        uint256 totalIssued;\n        uint256 totalAccepted;\n        uint256 lastUpdated;\n        uint256 trustScore;\n    }\n\n    mapping(string => DIDDocument) public didDocuments;\n    mapping(address => string[]) public controllerToDIDs;\n    mapping(string => TrustMetrics) public issuerTrustMetrics;\n    mapping(string => mapping(string => uint256)) public issuerToRecipientAcceptances;\n    mapping(string => string[]) public issuerAcceptedBy;\n    \n    string[] public allDIDs;\n    string public adminDID;\n    bool public adminSet;\n    AcceptanceRecord[] public acceptanceHistory;\n\n    event DIDCreated(string indexed didId, address indexed controller, string publicKey);\n    event DIDUpdated(string indexed didId);\n    event DIDDeactivated(string indexed didId);\n    event TrustedIssuerAdded(string indexed issuerDID);\n    event TrustedIssuerRemoved(string indexed issuerDID);\n    event AdminDIDSet(string indexed adminDID);\n    event CredentialAccepted(string indexed issuerDID, string indexed recipientDID);\n    event TrustScoreUpdated(string indexed issuerDID, uint256 newTrustScore);\n\n    constructor() Ownable(msg.sender) {\n        adminSet = false;\n    }\n\n    modifier onlyDIDController(string memory didId) {\n        require(didDocuments[didId].controller == msg.sender, \"Not DID controller\");\n        require(didDocuments[didId].isActive, \"DID not active\");\n        _;\n    }\n\n    modifier onlyAdmin() {\n        require(adminSet, \"Admin DID not set\");\n        require(didDocuments[adminDID].controller == msg.sender, \"Not admin\");\n        require(didDocuments[adminDID].isActive, \"Admin DID not active\");\n        _;\n    }\n\n    modifier didExists(string memory didId) {\n        require(didDocuments[didId].controller != address(0), \"DID does not exist\");\n        _;\n    }\n\n    function createDID(string memory didId, string memory publicKey) external {\n        require(bytes(didId).length > 0, \"DID ID cannot be empty\");\n        require(bytes(publicKey).length > 0, \"Public key cannot be empty\");\n        require(didDocuments[didId].controller == address(0), \"DID already exists\");\n\n        didDocuments[didId] = DIDDocument({\n            id: didId,\n            controller: msg.sender,\n            publicKey: publicKey,\n            created: block.timestamp,\n            updated: block.timestamp,\n            isActive: true,\n            isTrustedIssuer: false\n        });\n\n        controllerToDIDs[msg.sender].push(didId);\n        allDIDs.push(didId);\n\n        if (!adminSet) {\n            adminDID = didId;\n            adminSet = true;\n            emit AdminDIDSet(didId);\n        }\n\n        emit DIDCreated(didId, msg.sender, publicKey);\n    }\n\n    function updateDID(string memory didId, string memory newPublicKey) external onlyDIDController(didId) {\n        require(bytes(newPublicKey).length > 0, \"Public key cannot be empty\");\n        \n        didDocuments[didId].publicKey = newPublicKey;\n        didDocuments[didId].updated = block.timestamp;\n        \n        emit DIDUpdated(didId);\n    }\n\n    function deactivateDID(string memory didId) external onlyDIDController(didId) {\n        require(keccak256(bytes(didId)) != keccak256(bytes(adminDID)), \"Cannot deactivate admin DID\");\n        \n        require(!didDocuments[didId].isTrustedIssuer, \"Cannot deactivate trusted issuer\");\n        \n        didDocuments[didId].isActive = false;\n        didDocuments[didId].updated = block.timestamp;\n        emit DIDDeactivated(didId);\n    }\n\n    function addTrustedIssuer(string memory issuerDID) external onlyAdmin {\n        require(didDocuments[issuerDID].isActive, \"Issuer DID not active\");\n        require(!didDocuments[issuerDID].isTrustedIssuer, \"Issuer already trusted\");\n        \n        didDocuments[issuerDID].isTrustedIssuer = true;\n        didDocuments[issuerDID].updated = block.timestamp;\n        \n        emit TrustedIssuerAdded(issuerDID);\n    }\n\n    function removeTrustedIssuer(string memory issuerDID) external onlyAdmin {\n        require(didDocuments[issuerDID].isTrustedIssuer, \"Issuer not trusted\");\n        \n        didDocuments[issuerDID].isTrustedIssuer = false;\n        didDocuments[issuerDID].updated = block.timestamp;\n        \n        emit TrustedIssuerRemoved(issuerDID);\n    }\n\n    function verifySignature(string memory didId, bytes32 messageHash, bytes memory signature\n    ) external view didExists(didId) returns (bool) {\n        require(didDocuments[didId].isActive, \"DID not active\");\n\n        bytes32 ethSignedMessageHash = messageHash.toEthSignedMessageHash();\n        address recoveredSigner = ethSignedMessageHash.recover(signature);\n        return recoveredSigner == didDocuments[didId].controller;\n    }\n\n    function verifyDataSignature(string memory didId, bytes memory data, bytes memory signature\n    ) external view didExists(didId) returns (bool) {\n        require(didDocuments[didId].isActive, \"DID not active\");\n        \n        bytes32 dataHash = keccak256(data);\n        bytes32 ethSignedMessageHash = dataHash.toEthSignedMessageHash();\n\n        address recoveredSigner = ethSignedMessageHash.recover(signature);\n        return recoveredSigner == didDocuments[didId].controller;\n    }\n\n    function getDIDDocument(string memory didId) external view didExists(didId) returns (DIDDocument memory) {\n        return didDocuments[didId];\n    }\n\n    function isTrustedIssuer(string memory didId) external view returns (bool) {\n        return didDocuments[didId].isTrustedIssuer && didDocuments[didId].isActive;\n    }\n\n    function isAdminDID(string memory didId) external view returns (bool) {\n        return keccak256(bytes(didId)) == keccak256(bytes(adminDID));\n    }\n\n    function getDIDsByController(address controller) external view returns (string[] memory) {\n        return controllerToDIDs[controller];\n    }\n\n    function isDIDActive(string memory didId) external view didExists(didId) returns (bool) {\n        return didDocuments[didId].isActive;\n    }\n\n    function getAllDIDs() external view returns (string[] memory) {\n        return allDIDs;\n    }\n\n    function getAllDIDsCount() external view returns (uint256) {\n        return allDIDs.length;\n    }\n\n    function recordCredentialIssuance(string memory issuerDID, string memory recipientDID) external {\n        require(didDocuments[issuerDID].controller == msg.sender, \"Not issuer DID controller\");\n        require(didDocuments[issuerDID].isActive, \"Issuer DID not active\");\n        require(didDocuments[recipientDID].isActive, \"Recipient DID not active\");\n\n        issuerTrustMetrics[issuerDID].totalIssued++;\n        issuerTrustMetrics[issuerDID].lastUpdated = block.timestamp;\n    }\n\n    function recordCredentialAcceptance(string memory issuerDID, string memory recipientDID) external {\n        require(didDocuments[recipientDID].controller == msg.sender, \"Not recipient DID controller\");\n        require(didDocuments[issuerDID].isActive, \"Issuer DID not active\");\n        require(didDocuments[recipientDID].isActive, \"Recipient DID not active\");\n\n        if (issuerToRecipientAcceptances[issuerDID][recipientDID] == 0) {\n            issuerAcceptedBy[issuerDID].push(recipientDID);\n        }\n        \n        issuerToRecipientAcceptances[issuerDID][recipientDID]++;\n        issuerTrustMetrics[issuerDID].totalAccepted++;\n        issuerTrustMetrics[issuerDID].lastUpdated = block.timestamp;\n        \n        acceptanceHistory.push(AcceptanceRecord({\n            issuerDID: issuerDID,\n            recipientDID: recipientDID,\n            timestamp: block.timestamp\n        }));\n\n        emit CredentialAccepted(issuerDID, recipientDID);\n    }\n\n    function recordCredentialOfferAcceptance(string memory issuerDID, string memory recipientDID, bytes32 vcHash) external {\n        require(didDocuments[recipientDID].controller == msg.sender, \"Not recipient DID controller\");\n        require(didDocuments[issuerDID].isActive, \"Issuer DID not active\");\n        require(didDocuments[recipientDID].isActive, \"Recipient DID not active\");\n        require(vcHash != 0, \"VC hash cannot be empty\");\n\n        issuerTrustMetrics[issuerDID].totalIssued++;\n        \n        if (issuerToRecipientAcceptances[issuerDID][recipientDID] == 0) {\n            issuerAcceptedBy[issuerDID].push(recipientDID);\n        }\n        \n        issuerToRecipientAcceptances[issuerDID][recipientDID]++;\n        issuerTrustMetrics[issuerDID].totalAccepted++;\n        issuerTrustMetrics[issuerDID].lastUpdated = block.timestamp;\n        \n        acceptanceHistory.push(AcceptanceRecord({\n            issuerDID: issuerDID,\n            recipientDID: recipientDID,\n            timestamp: block.timestamp\n        }));\n\n        emit CredentialAccepted(issuerDID, recipientDID);\n    }\n\n    function updateTrustScore(string memory issuerDID, uint256 newScore) external onlyAdmin {\n        issuerTrustMetrics[issuerDID].trustScore = newScore;\n        issuerTrustMetrics[issuerDID].lastUpdated = block.timestamp;\n        emit TrustScoreUpdated(issuerDID, newScore);\n    }\n\n    function getTrustMetrics(string memory issuerDID) external view returns (TrustMetrics memory) {\n        return issuerTrustMetrics[issuerDID];\n    }\n\n    function getAcceptanceCount(string memory issuerDID, string memory recipientDID) external view returns (uint256) {\n        return issuerToRecipientAcceptances[issuerDID][recipientDID];\n    }\n\n    function getAcceptedByList(string memory issuerDID) external view returns (string[] memory) {\n        return issuerAcceptedBy[issuerDID];\n    }\n\n    function getAcceptanceHistoryLength() external view returns (uint256) {\n        return acceptanceHistory.length;\n    }\n\n    function getAcceptanceRecord(uint256 index) external view returns (AcceptanceRecord memory) {\n        require(index < acceptanceHistory.length, \"Index out of bounds\");\n        return acceptanceHistory[index];\n    }\n    \n}\n",
  "sourcePath": "/Users/raphaelabderrahmani/Desktop/Blockchain/Code/DID-project/contracts/DIDRegistry.sol",
  "compiler": {
    "name": "solc",
    "version": "0.8.26+commit.8a97fa7a.Emscripten.clang"
  },
  "schemaVersion": "3.4.16",
  "updatedAt": "2025-08-15T15:03:23.046Z",
  "networkType": "ethereum",
  "devdoc": {
    "errors": {
      "ECDSAInvalidSignature()": [
        {
          "details": "The signature derives the `address(0)`."
        }
      ],
      "ECDSAInvalidSignatureLength(uint256)": [
        {
          "details": "The signature has an invalid length."
        }
      ],
      "ECDSAInvalidSignatureS(bytes32)": [
        {
          "details": "The signature has an S value that is in the upper half order."
        }
      ],
      "OwnableInvalidOwner(address)": [
        {
          "details": "The owner is not a valid owner account. (eg. `address(0)`)"
        }
      ],
      "OwnableUnauthorizedAccount(address)": [
        {
          "details": "The caller account is not authorized to perform an operation."
        }
      ]
    },
    "kind": "dev",
    "methods": {
      "owner()": {
        "details": "Returns the address of the current owner."
      },
      "renounceOwnership()": {
        "details": "Leaves the contract without owner. It will not be possible to call `onlyOwner` functions. Can only be called by the current owner. NOTE: Renouncing ownership will leave the contract without an owner, thereby disabling any functionality that is only available to the owner."
      },
      "transferOwnership(address)": {
        "details": "Transfers ownership of the contract to a new account (`newOwner`). Can only be called by the current owner."
      }
    },
    "version": 1
  },
  "userdoc": {
    "kind": "user",
    "methods": {},
    "version": 1
  }
}