{
  "contractName": "DIDRegistry",
  "abi": [
    {
      "inputs": [],
      "stateMutability": "nonpayable",
      "type": "constructor"
    },
    {
      "inputs": [],
      "name": "ECDSAInvalidSignature",
      "type": "error"
    },
    {
      "inputs": [
        {
          "internalType": "uint256",
          "name": "length",
          "type": "uint256"
        }
      ],
      "name": "ECDSAInvalidSignatureLength",
      "type": "error"
    },
    {
      "inputs": [
        {
          "internalType": "bytes32",
          "name": "s",
          "type": "bytes32"
        }
      ],
      "name": "ECDSAInvalidSignatureS",
      "type": "error"
    },
    {
      "anonymous": false,
      "inputs": [
        {
          "indexed": true,
          "internalType": "string",
          "name": "didId",
          "type": "string"
        },
        {
          "indexed": true,
          "internalType": "address",
          "name": "owner",
          "type": "address"
        },
        {
          "indexed": false,
          "internalType": "string",
          "name": "publicKey",
          "type": "string"
        }
      ],
      "name": "DIDCreated",
      "type": "event"
    },
    {
      "anonymous": false,
      "inputs": [
        {
          "indexed": true,
          "internalType": "string",
          "name": "didId",
          "type": "string"
        }
      ],
      "name": "DIDDeactivated",
      "type": "event"
    },
    {
      "anonymous": false,
      "inputs": [
        {
          "indexed": true,
          "internalType": "string",
          "name": "issuerDID",
          "type": "string"
        }
      ],
      "name": "TrustedIssuerAdded",
      "type": "event"
    },
    {
      "anonymous": false,
      "inputs": [
        {
          "indexed": true,
          "internalType": "string",
          "name": "issuerDID",
          "type": "string"
        }
      ],
      "name": "TrustedIssuerRemoved",
      "type": "event"
    },
    {
      "inputs": [],
      "name": "contractOwner",
      "outputs": [
        {
          "internalType": "address",
          "name": "",
          "type": "address"
        }
      ],
      "stateMutability": "view",
      "type": "function",
      "constant": true
    },
    {
      "inputs": [
        {
          "internalType": "string",
          "name": "",
          "type": "string"
        }
      ],
      "name": "dids",
      "outputs": [
        {
          "internalType": "address",
          "name": "owner",
          "type": "address"
        },
        {
          "internalType": "string",
          "name": "publicKey",
          "type": "string"
        },
        {
          "internalType": "uint256",
          "name": "created",
          "type": "uint256"
        },
        {
          "internalType": "bool",
          "name": "isActive",
          "type": "bool"
        }
      ],
      "stateMutability": "view",
      "type": "function",
      "constant": true
    },
    {
      "inputs": [
        {
          "internalType": "address",
          "name": "",
          "type": "address"
        }
      ],
      "name": "ownerToDID",
      "outputs": [
        {
          "internalType": "string",
          "name": "",
          "type": "string"
        }
      ],
      "stateMutability": "view",
      "type": "function",
      "constant": true
    },
    {
      "inputs": [
        {
          "internalType": "string",
          "name": "",
          "type": "string"
        }
      ],
      "name": "trustedIssuers",
      "outputs": [
        {
          "internalType": "bool",
          "name": "",
          "type": "bool"
        }
      ],
      "stateMutability": "view",
      "type": "function",
      "constant": true
    },
    {
      "inputs": [
        {
          "internalType": "string",
          "name": "didId",
          "type": "string"
        },
        {
          "internalType": "string",
          "name": "publicKey",
          "type": "string"
        }
      ],
      "name": "createDID",
      "outputs": [],
      "stateMutability": "nonpayable",
      "type": "function"
    },
    {
      "inputs": [
        {
          "internalType": "string",
          "name": "didId",
          "type": "string"
        }
      ],
      "name": "deactivateDID",
      "outputs": [],
      "stateMutability": "nonpayable",
      "type": "function"
    },
    {
      "inputs": [
        {
          "internalType": "string",
          "name": "issuerDID",
          "type": "string"
        }
      ],
      "name": "addTrustedIssuer",
      "outputs": [],
      "stateMutability": "nonpayable",
      "type": "function"
    },
    {
      "inputs": [
        {
          "internalType": "string",
          "name": "issuerDID",
          "type": "string"
        }
      ],
      "name": "removeTrustedIssuer",
      "outputs": [],
      "stateMutability": "nonpayable",
      "type": "function"
    },
    {
      "inputs": [
        {
          "internalType": "string",
          "name": "didId",
          "type": "string"
        },
        {
          "internalType": "bytes32",
          "name": "messageHash",
          "type": "bytes32"
        },
        {
          "internalType": "bytes",
          "name": "signature",
          "type": "bytes"
        }
      ],
      "name": "verifySignature",
      "outputs": [
        {
          "internalType": "bool",
          "name": "isValid",
          "type": "bool"
        }
      ],
      "stateMutability": "view",
      "type": "function",
      "constant": true
    },
    {
      "inputs": [
        {
          "internalType": "string",
          "name": "didId",
          "type": "string"
        },
        {
          "internalType": "bytes",
          "name": "data",
          "type": "bytes"
        },
        {
          "internalType": "bytes",
          "name": "signature",
          "type": "bytes"
        }
      ],
      "name": "verifyDataSignature",
      "outputs": [
        {
          "internalType": "bool",
          "name": "isValid",
          "type": "bool"
        }
      ],
      "stateMutability": "view",
      "type": "function",
      "constant": true
    },
    {
      "inputs": [
        {
          "internalType": "string",
          "name": "didId",
          "type": "string"
        }
      ],
      "name": "getDID",
      "outputs": [
        {
          "components": [
            {
              "internalType": "address",
              "name": "owner",
              "type": "address"
            },
            {
              "internalType": "string",
              "name": "publicKey",
              "type": "string"
            },
            {
              "internalType": "uint256",
              "name": "created",
              "type": "uint256"
            },
            {
              "internalType": "bool",
              "name": "isActive",
              "type": "bool"
            }
          ],
          "internalType": "struct DIDRegistry.DID",
          "name": "",
          "type": "tuple"
        }
      ],
      "stateMutability": "view",
      "type": "function",
      "constant": true
    },
    {
      "inputs": [
        {
          "internalType": "string",
          "name": "didId",
          "type": "string"
        }
      ],
      "name": "isTrustedIssuer",
      "outputs": [
        {
          "internalType": "bool",
          "name": "isTrusted",
          "type": "bool"
        }
      ],
      "stateMutability": "view",
      "type": "function",
      "constant": true
    },
    {
      "inputs": [
        {
          "internalType": "address",
          "name": "owner",
          "type": "address"
        }
      ],
      "name": "getDIDByOwner",
      "outputs": [
        {
          "internalType": "string",
          "name": "didId",
          "type": "string"
        }
      ],
      "stateMutability": "view",
      "type": "function",
      "constant": true
    }
  ],
  "bytecode": "0x6080604052348015600f57600080fd5b5033600360006101000a81548173ffffffffffffffffffffffffffffffffffffffff021916908373ffffffffffffffffffffffffffffffffffffffff16021790555061256d806100606000396000f3fe608060405234801561001057600080fd5b50600436106100ce5760003560e01c806370d876701161008c578063ce606ee011610066578063ce606ee014610233578063d0e3752c14610251578063e078389814610281578063f44ab516146102b1576100ce565b806370d87670146101b75780638efbfa52146101e75780639e031f8114610217576100ce565b806262d1ac146100d35780631539a507146101035780632ae73ee11461011f5780633b253b231461014f57806344b0b5d51461016b57806364312cd71461019b575b600080fd5b6100ed60048036038101906100e891906116a0565b6102e4565b6040516100fa919061175d565b60405180910390f35b61011d600480360381019061011891906118b4565b6103b5565b005b6101396004803603810190610134919061192c565b6107cb565b6040516101469190611990565b60405180910390f35b6101696004803603810190610164919061192c565b610837565b005b61018560048036038101906101809190611a4c565b610a1f565b6040516101929190611990565b60405180910390f35b6101b560048036038101906101b0919061192c565b610b3a565b005b6101d160048036038101906101cc9190611b29565b610d20565b6040516101de9190611990565b60405180910390f35b61020160048036038101906101fc919061192c565b610e2e565b60405161020e9190611990565b60405180910390f35b610231600480360381019061022c919061192c565b610e64565b005b61023b610f70565b6040516102489190611bc3565b60405180910390f35b61026b600480360381019061026691906116a0565b610f96565b604051610278919061175d565b60405180910390f35b61029b6004803603810190610296919061192c565b611036565b6040516102a89190611cc2565b60405180910390f35b6102cb60048036038101906102c6919061192c565b611180565b6040516102db9493929190611cf3565b60405180910390f35b6060600160008373ffffffffffffffffffffffffffffffffffffffff1673ffffffffffffffffffffffffffffffffffffffff168152602001908152602001600020805461033090611d6e565b80601f016020809104026020016040519081016040528092919081815260200182805461035c90611d6e565b80156103a95780601f1061037e576101008083540402835291602001916103a9565b820191906000526020600020905b81548152906001019060200180831161038c57829003601f168201915b50505050509050919050565b60008251116103f9576040517f08c379a00000000000000000000000000000000000000000000000000000000081526004016103f090611deb565b60405180910390fd5b600081511161043d576040517f08c379a000000000000000000000000000000000000000000000000000000000815260040161043490611e57565b60405180910390fd5b600073ffffffffffffffffffffffffffffffffffffffff166000836040516104659190611eb3565b908152602001604051809103902060000160009054906101000a900473ffffffffffffffffffffffffffffffffffffffff1673ffffffffffffffffffffffffffffffffffffffff16146104ed576040517f08c379a00000000000000000000000000000000000000000000000000000000081526004016104e490611f16565b60405180910390fd5b6000600160003373ffffffffffffffffffffffffffffffffffffffff1673ffffffffffffffffffffffffffffffffffffffff168152602001908152602001600020805461053990611d6e565b80601f016020809104026020016040519081016040528092919081815260200182805461056590611d6e565b80156105b25780601f10610587576101008083540402835291602001916105b2565b820191906000526020600020905b81548152906001019060200180831161059557829003601f168201915b50505050509050600081511115610633576000816040516105d39190611eb3565b908152602001604051809103902060030160009054906101000a900460ff1615610632576040517f08c379a000000000000000000000000000000000000000000000000000000000815260040161062990611fa8565b60405180910390fd5b5b60405180608001604052803373ffffffffffffffffffffffffffffffffffffffff1681526020018381526020014281526020016001151581525060008460405161067d9190611eb3565b908152602001604051809103902060008201518160000160006101000a81548173ffffffffffffffffffffffffffffffffffffffff021916908373ffffffffffffffffffffffffffffffffffffffff16021790555060208201518160010190816106e79190612174565b506040820151816002015560608201518160030160006101000a81548160ff02191690831515021790555090505082600160003373ffffffffffffffffffffffffffffffffffffffff1673ffffffffffffffffffffffffffffffffffffffff16815260200190815260200160002090816107619190612174565b503373ffffffffffffffffffffffffffffffffffffffff16836040516107879190611eb3565b60405180910390207f63b814845f107bcec35c851cf55cdd7236e563def52caa46cb6857f52b755cac846040516107be919061175d565b60405180910390a3505050565b60006002826040516107dd9190611eb3565b908152602001604051809103902060009054906101000a900460ff16801561083057506000826040516108109190611eb3565b908152602001604051809103902060030160009054906101000a900460ff165b9050919050565b803373ffffffffffffffffffffffffffffffffffffffff1660008260405161085f9190611eb3565b908152602001604051809103902060000160009054906101000a900473ffffffffffffffffffffffffffffffffffffffff1673ffffffffffffffffffffffffffffffffffffffff16146108e7576040517f08c379a00000000000000000000000000000000000000000000000000000000081526004016108de90612292565b60405180910390fd5b6000816040516108f79190611eb3565b908152602001604051809103902060030160009054906101000a900460ff16610955576040517f08c379a000000000000000000000000000000000000000000000000000000000815260040161094c906122fe565b60405180910390fd5b600080836040516109669190611eb3565b908152602001604051809103902060030160006101000a81548160ff021916908315150217905550600160003373ffffffffffffffffffffffffffffffffffffffff1673ffffffffffffffffffffffffffffffffffffffff16815260200190815260200160002060006109d99190611591565b816040516109e79190611eb3565b60405180910390207f4360f12f602ccecefb32480e5314d0d3f57d38db8f52c76d8fdf4c39596c1c2860405160405180910390a25050565b60008084604051610a309190611eb3565b908152602001604051809103902060030160009054906101000a900460ff16610a8e576040517f08c379a0000000000000000000000000000000000000000000000000000000008152600401610a85906122fe565b60405180910390fd5b6000838051906020012090506000610aa58261127b565b90506000610abc85836112b190919063ffffffff16565b9050600087604051610ace9190611eb3565b908152602001604051809103902060000160009054906101000a900473ffffffffffffffffffffffffffffffffffffffff1673ffffffffffffffffffffffffffffffffffffffff168173ffffffffffffffffffffffffffffffffffffffff161493505050509392505050565b600360009054906101000a900473ffffffffffffffffffffffffffffffffffffffff1673ffffffffffffffffffffffffffffffffffffffff163373ffffffffffffffffffffffffffffffffffffffff1614610bca576040517f08c379a0000000000000000000000000000000000000000000000000000000008152600401610bc19061236a565b60405180910390fd5b600081604051610bda9190611eb3565b908152602001604051809103902060030160009054906101000a900460ff16610c38576040517f08c379a0000000000000000000000000000000000000000000000000000000008152600401610c2f906123d6565b60405180910390fd5b600281604051610c489190611eb3565b908152602001604051809103902060009054906101000a900460ff1615610ca4576040517f08c379a0000000000000000000000000000000000000000000000000000000008152600401610c9b90612442565b60405180910390fd5b6001600282604051610cb69190611eb3565b908152602001604051809103902060006101000a81548160ff02191690831515021790555080604051610ce99190611eb3565b60405180910390207f3fa3ab3bac0cccd0cb57495c0a834d60cfa7421c8150780ec693705cd636516560405160405180910390a250565b60008084604051610d319190611eb3565b908152602001604051809103902060030160009054906101000a900460ff16610d8f576040517f08c379a0000000000000000000000000000000000000000000000000000000008152600401610d86906122fe565b60405180910390fd5b6000610d9a8461127b565b90506000610db184836112b190919063ffffffff16565b9050600086604051610dc39190611eb3565b908152602001604051809103902060000160009054906101000a900473ffffffffffffffffffffffffffffffffffffffff1673ffffffffffffffffffffffffffffffffffffffff168173ffffffffffffffffffffffffffffffffffffffff1614925050509392505050565b6002818051602081018201805184825260208301602085012081835280955050505050506000915054906101000a900460ff1681565b600360009054906101000a900473ffffffffffffffffffffffffffffffffffffffff1673ffffffffffffffffffffffffffffffffffffffff163373ffffffffffffffffffffffffffffffffffffffff1614610ef4576040517f08c379a0000000000000000000000000000000000000000000000000000000008152600401610eeb9061236a565b60405180910390fd5b6000600282604051610f069190611eb3565b908152602001604051809103902060006101000a81548160ff02191690831515021790555080604051610f399190611eb3565b60405180910390207f681faa00c7b37242bbf8b47f00f510cff20f12f295e1e29690b497232596f84a60405160405180910390a250565b600360009054906101000a900473ffffffffffffffffffffffffffffffffffffffff1681565b60016020528060005260406000206000915090508054610fb590611d6e565b80601f0160208091040260200160405190810160405280929190818152602001828054610fe190611d6e565b801561102e5780601f106110035761010080835404028352916020019161102e565b820191906000526020600020905b81548152906001019060200180831161101157829003601f168201915b505050505081565b61103e6115d1565b6000808360405161104f9190611eb3565b90815260200160405180910390209050806040518060800160405290816000820160009054906101000a900473ffffffffffffffffffffffffffffffffffffffff1673ffffffffffffffffffffffffffffffffffffffff1673ffffffffffffffffffffffffffffffffffffffff1681526020016001820180546110d190611d6e565b80601f01602080910402602001604051908101604052809291908181526020018280546110fd90611d6e565b801561114a5780601f1061111f5761010080835404028352916020019161114a565b820191906000526020600020905b81548152906001019060200180831161112d57829003601f168201915b50505050508152602001600282015481526020016003820160009054906101000a900460ff161515151581525050915050919050565b6000818051602081018201805184825260208301602085012081835280955050505050506000915090508060000160009054906101000a900473ffffffffffffffffffffffffffffffffffffffff16908060010180546111df90611d6e565b80601f016020809104026020016040519081016040528092919081815260200182805461120b90611d6e565b80156112585780601f1061122d57610100808354040283529160200191611258565b820191906000526020600020905b81548152906001019060200180831161123b57829003601f168201915b5050505050908060020154908060030160009054906101000a900460ff16905084565b60007f19457468657265756d205369676e6564204d6573736167653a0a33320000000060005281601c52603c6000209050919050565b6000806000806112c186866112dd565b9250925092506112d18282611339565b82935050505092915050565b600080600060418451036113225760008060006020870151925060408701519150606087015160001a90506113148882858561149d565b955095509550505050611332565b60006002855160001b9250925092505b9250925092565b6000600381111561134d5761134c612462565b5b8260038111156113605761135f612462565b5b0315611499576001600381111561137a57611379612462565b5b82600381111561138d5761138c612462565b5b036113c4576040517ff645eedf00000000000000000000000000000000000000000000000000000000815260040160405180910390fd5b600260038111156113d8576113d7612462565b5b8260038111156113eb576113ea612462565b5b03611430578060001c6040517ffce698f70000000000000000000000000000000000000000000000000000000081526004016114279190612491565b60405180910390fd5b60038081111561144357611442612462565b5b82600381111561145657611455612462565b5b0361149857806040517fd78bce0c00000000000000000000000000000000000000000000000000000000815260040161148f91906124bb565b60405180910390fd5b5b5050565b60008060007f7fffffffffffffffffffffffffffffff5d576e7357a4501ddfe92f46681b20a08460001c11156114dd576000600385925092509250611587565b60006001888888886040516000815260200160405260405161150294939291906124f2565b6020604051602081039080840390855afa158015611524573d6000803e3d6000fd5b505050602060405103519050600073ffffffffffffffffffffffffffffffffffffffff168173ffffffffffffffffffffffffffffffffffffffff160361157857600060016000801b93509350935050611587565b8060008060001b935093509350505b9450945094915050565b50805461159d90611d6e565b6000825580601f106115af57506115ce565b601f0160209004906000526020600020908101906115cd9190611611565b5b50565b6040518060800160405280600073ffffffffffffffffffffffffffffffffffffffff16815260200160608152602001600081526020016000151581525090565b5b8082111561162a576000816000905550600101611612565b5090565b6000604051905090565b600080fd5b600080fd5b600073ffffffffffffffffffffffffffffffffffffffff82169050919050565b600061166d82611642565b9050919050565b61167d81611662565b811461168857600080fd5b50565b60008135905061169a81611674565b92915050565b6000602082840312156116b6576116b5611638565b5b60006116c48482850161168b565b91505092915050565b600081519050919050565b600082825260208201905092915050565b60005b838110156117075780820151818401526020810190506116ec565b60008484015250505050565b6000601f19601f8301169050919050565b600061172f826116cd565b61173981856116d8565b93506117498185602086016116e9565b61175281611713565b840191505092915050565b600060208201905081810360008301526117778184611724565b905092915050565b600080fd5b600080fd5b7f4e487b7100000000000000000000000000000000000000000000000000000000600052604160045260246000fd5b6117c182611713565b810181811067ffffffffffffffff821117156117e0576117df611789565b5b80604052505050565b60006117f361162e565b90506117ff82826117b8565b919050565b600067ffffffffffffffff82111561181f5761181e611789565b5b61182882611713565b9050602081019050919050565b82818337600083830152505050565b600061185761185284611804565b6117e9565b90508281526020810184848401111561187357611872611784565b5b61187e848285611835565b509392505050565b600082601f83011261189b5761189a61177f565b5b81356118ab848260208601611844565b91505092915050565b600080604083850312156118cb576118ca611638565b5b600083013567ffffffffffffffff8111156118e9576118e861163d565b5b6118f585828601611886565b925050602083013567ffffffffffffffff8111156119165761191561163d565b5b61192285828601611886565b9150509250929050565b60006020828403121561194257611941611638565b5b600082013567ffffffffffffffff8111156119605761195f61163d565b5b61196c84828501611886565b91505092915050565b60008115159050919050565b61198a81611975565b82525050565b60006020820190506119a56000830184611981565b92915050565b600067ffffffffffffffff8211156119c6576119c5611789565b5b6119cf82611713565b9050602081019050919050565b60006119ef6119ea846119ab565b6117e9565b905082815260208101848484011115611a0b57611a0a611784565b5b611a16848285611835565b509392505050565b600082601f830112611a3357611a3261177f565b5b8135611a438482602086016119dc565b91505092915050565b600080600060608486031215611a6557611a64611638565b5b600084013567ffffffffffffffff811115611a8357611a8261163d565b5b611a8f86828701611886565b935050602084013567ffffffffffffffff811115611ab057611aaf61163d565b5b611abc86828701611a1e565b925050604084013567ffffffffffffffff811115611add57611adc61163d565b5b611ae986828701611a1e565b9150509250925092565b6000819050919050565b611b0681611af3565b8114611b1157600080fd5b50565b600081359050611b2381611afd565b92915050565b600080600060608486031215611b4257611b41611638565b5b600084013567ffffffffffffffff811115611b6057611b5f61163d565b5b611b6c86828701611886565b9350506020611b7d86828701611b14565b925050604084013567ffffffffffffffff811115611b9e57611b9d61163d565b5b611baa86828701611a1e565b9150509250925092565b611bbd81611662565b82525050565b6000602082019050611bd86000830184611bb4565b92915050565b611be781611662565b82525050565b600082825260208201905092915050565b6000611c09826116cd565b611c138185611bed565b9350611c238185602086016116e9565b611c2c81611713565b840191505092915050565b6000819050919050565b611c4a81611c37565b82525050565b611c5981611975565b82525050565b6000608083016000830151611c776000860182611bde565b5060208301518482036020860152611c8f8282611bfe565b9150506040830151611ca46040860182611c41565b506060830151611cb76060860182611c50565b508091505092915050565b60006020820190508181036000830152611cdc8184611c5f565b905092915050565b611ced81611c37565b82525050565b6000608082019050611d086000830187611bb4565b8181036020830152611d1a8186611724565b9050611d296040830185611ce4565b611d366060830184611981565b95945050505050565b7f4e487b7100000000000000000000000000000000000000000000000000000000600052602260045260246000fd5b60006002820490506001821680611d8657607f821691505b602082108103611d9957611d98611d3f565b5b50919050565b7f4449442049442063616e6e6f7420626520656d70747900000000000000000000600082015250565b6000611dd56016836116d8565b9150611de082611d9f565b602082019050919050565b60006020820190508181036000830152611e0481611dc8565b9050919050565b7f5075626c6963206b65792063616e6e6f7420626520656d707479000000000000600082015250565b6000611e41601a836116d8565b9150611e4c82611e0b565b602082019050919050565b60006020820190508181036000830152611e7081611e34565b9050919050565b600081905092915050565b6000611e8d826116cd565b611e978185611e77565b9350611ea78185602086016116e9565b80840191505092915050565b6000611ebf8284611e82565b915081905092915050565b7f44494420616c7265616479206578697374730000000000000000000000000000600082015250565b6000611f006012836116d8565b9150611f0b82611eca565b602082019050919050565b60006020820190508181036000830152611f2f81611ef3565b9050919050565b7f4164647265737320616c7265616479206f776e7320616e20616374697665204460008201527f49442e20446561637469766174652069742066697273742e0000000000000000602082015250565b6000611f926038836116d8565b9150611f9d82611f36565b604082019050919050565b60006020820190508181036000830152611fc181611f85565b9050919050565b60008190508160005260206000209050919050565b60006020601f8301049050919050565b600082821b905092915050565b60006008830261202a7fffffffffffffffffffffffffffffffffffffffffffffffffffffffffffffffff82611fed565b6120348683611fed565b95508019841693508086168417925050509392505050565b6000819050919050565b600061207161206c61206784611c37565b61204c565b611c37565b9050919050565b6000819050919050565b61208b83612056565b61209f61209782612078565b848454611ffa565b825550505050565b600090565b6120b46120a7565b6120bf818484612082565b505050565b5b818110156120e3576120d86000826120ac565b6001810190506120c5565b5050565b601f821115612128576120f981611fc8565b61210284611fdd565b81016020851015612111578190505b61212561211d85611fdd565b8301826120c4565b50505b505050565b600082821c905092915050565b600061214b6000198460080261212d565b1980831691505092915050565b6000612164838361213a565b9150826002028217905092915050565b61217d826116cd565b67ffffffffffffffff81111561219657612195611789565b5b6121a08254611d6e565b6121ab8282856120e7565b600060209050601f8311600181146121de57600084156121cc578287015190505b6121d68582612158565b86555061223e565b601f1984166121ec86611fc8565b60005b82811015612214578489015182556001820191506020850194506020810190506121ef565b86831015612231578489015161222d601f89168261213a565b8355505b6001600288020188555050505b505050505050565b7f4e6f7420444944206f776e657200000000000000000000000000000000000000600082015250565b600061227c600d836116d8565b915061228782612246565b602082019050919050565b600060208201905081810360008301526122ab8161226f565b9050919050565b7f444944206e6f7420616374697665000000000000000000000000000000000000600082015250565b60006122e8600e836116d8565b91506122f3826122b2565b602082019050919050565b60006020820190508181036000830152612317816122db565b9050919050565b7f4e6f7420636f6e7472616374206f776e65720000000000000000000000000000600082015250565b60006123546012836116d8565b915061235f8261231e565b602082019050919050565b6000602082019050818103600083015261238381612347565b9050919050565b7f49737375657220444944206e6f74206163746976650000000000000000000000600082015250565b60006123c06015836116d8565b91506123cb8261238a565b602082019050919050565b600060208201905081810360008301526123ef816123b3565b9050919050565b7f49737375657220616c7265616479207472757374656400000000000000000000600082015250565b600061242c6016836116d8565b9150612437826123f6565b602082019050919050565b6000602082019050818103600083015261245b8161241f565b9050919050565b7f4e487b7100000000000000000000000000000000000000000000000000000000600052602160045260246000fd5b60006020820190506124a66000830184611ce4565b92915050565b6124b581611af3565b82525050565b60006020820190506124d060008301846124ac565b92915050565b600060ff82169050919050565b6124ec816124d6565b82525050565b600060808201905061250760008301876124ac565b61251460208301866124e3565b61252160408301856124ac565b61252e60608301846124ac565b9594505050505056fea264697066735822122043febcf42757df81d648b59df5b637628aed586ba0122482906f2c161a26f99d64736f6c634300081a0033",
  "immutableReferences": {},
  "source": "// SPDX-License-Identifier: MIT\npragma solidity ^0.8.19;\n\nimport \"@openzeppelin/contracts/utils/cryptography/ECDSA.sol\";\nimport \"@openzeppelin/contracts/utils/cryptography/MessageHashUtils.sol\";\n\n\ncontract DIDRegistry {\n    using ECDSA for bytes32;\n    using MessageHashUtils for bytes32;\n\n    struct DID {\n        address owner;\n        string publicKey;\n        uint256 created;\n        bool isActive;\n    }\n\n    mapping(string => DID) public dids;\n    mapping(address => string) public ownerToDID;\n    mapping(string => bool) public trustedIssuers;\n\n    event DIDCreated(\n        string indexed didId,\n        address indexed owner,\n        string publicKey\n    );\n    event DIDDeactivated(string indexed didId);\n    event TrustedIssuerAdded(string indexed issuerDID);\n    event TrustedIssuerRemoved(string indexed issuerDID);\n\n    address public contractOwner;\n\n    constructor() {\n        contractOwner = msg.sender;\n    }\n\n    modifier onlyDIDOwner(string memory didId) {\n        require(dids[didId].owner == msg.sender, \"Not DID owner\");\n        require(dids[didId].isActive, \"DID not active\");\n        _;\n    }\n\n    modifier onlyContractOwner() {\n        require(msg.sender == contractOwner, \"Not contract owner\");\n        _;\n    }\n\n    modifier didExists(string memory didId) {\n        require(dids[didId].owner != address(0), \"DID does not exist\");\n        _;\n    }\n\n    function createDID(string memory didId, string memory publicKey) external {\n        require(bytes(didId).length > 0, \"DID ID cannot be empty\");\n        require(bytes(publicKey).length > 0, \"Public key cannot be empty\");\n        require(dids[didId].owner == address(0), \"DID already exists\");\n        \n        // Check if address has an existing DID and if it's active\n        string memory existingDID = ownerToDID[msg.sender];\n        if (bytes(existingDID).length > 0) {\n            require(!dids[existingDID].isActive, \"Address already owns an active DID. Deactivate it first.\");\n        }\n\n        dids[didId] = DID({\n            owner: msg.sender,\n            publicKey: publicKey,\n            created: block.timestamp,\n            isActive: true\n        });\n        ownerToDID[msg.sender] = didId;\n\n        emit DIDCreated(didId, msg.sender, publicKey);\n    }\n\n    function deactivateDID(string memory didId) external onlyDIDOwner(didId) {\n        dids[didId].isActive = false;\n        // Clear the ownerToDID mapping to allow creating new DIDs\n        delete ownerToDID[msg.sender];\n        emit DIDDeactivated(didId);\n    }\n\n    function addTrustedIssuer(string memory issuerDID) external onlyContractOwner {\n        require(dids[issuerDID].isActive, \"Issuer DID not active\");\n        require(!trustedIssuers[issuerDID], \"Issuer already trusted\");\n        trustedIssuers[issuerDID] = true;\n        emit TrustedIssuerAdded(issuerDID);\n    }\n\n    function removeTrustedIssuer(string memory issuerDID) external onlyContractOwner {\n        trustedIssuers[issuerDID] = false;\n        emit TrustedIssuerRemoved(issuerDID);\n    }\n\n    function verifySignature(string memory didId, bytes32 messageHash, bytes memory signature\n    ) external view returns (bool isValid) {\n        require(dids[didId].isActive, \"DID not active\");\n\n        bytes32 ethSignedMessagaHash = messageHash.toEthSignedMessageHash();\n        address recoverdSigner = ethSignedMessagaHash.recover(signature);\n        return recoverdSigner == dids[didId].owner;\n    }\n\n    function verifyDataSignature(string memory didId, bytes memory data, bytes memory signature\n    ) external view returns (bool isValid) {\n        require(dids[didId].isActive, \"DID not active\");\n        \n        bytes32 dataHash = keccak256(data);\n        bytes32 ethSignedMessageHash = dataHash.toEthSignedMessageHash();\n\n        address recoveredSigner = ethSignedMessageHash.recover(signature);\n        return recoveredSigner == dids[didId].owner;\n    }\n\n    function getDID (string memory didId) external view returns (DID memory) {\n    DID storage did = dids[didId];\n    return (did);\n    }\n\n    function isTrustedIssuer(string memory didId) external view returns (bool isTrusted) {\n    return trustedIssuers[didId] && dids[didId].isActive;\n    }\n\n    function getDIDByOwner(address owner) external view returns (string memory didId) {\n        return ownerToDID[owner];\n    }\n\n    \n}\n",
  "sourcePath": "/Users/raphaelabderrahmani/Desktop/Blockchain/Code/DID-project/contracts/DIDRegistry.sol",
  "compiler": {
    "name": "solc",
    "version": "0.8.26+commit.8a97fa7a.Emscripten.clang"
  },
  "schemaVersion": "3.4.16",
  "updatedAt": "2025-07-21T15:59:54.888Z",
  "networkType": "ethereum",
  "devdoc": {
    "errors": {
      "ECDSAInvalidSignature()": [
        {
          "details": "The signature derives the `address(0)`."
        }
      ],
      "ECDSAInvalidSignatureLength(uint256)": [
        {
          "details": "The signature has an invalid length."
        }
      ],
      "ECDSAInvalidSignatureS(bytes32)": [
        {
          "details": "The signature has an S value that is in the upper half order."
        }
      ]
    },
    "kind": "dev",
    "methods": {},
    "version": 1
  },
  "userdoc": {
    "kind": "user",
    "methods": {},
    "version": 1
  }
}