{
  "contractName": "DIDRegistry",
  "abi": [
    {
      "inputs": [],
      "stateMutability": "nonpayable",
      "type": "constructor"
    },
    {
      "inputs": [],
      "name": "ECDSAInvalidSignature",
      "type": "error"
    },
    {
      "inputs": [
        {
          "internalType": "uint256",
          "name": "length",
          "type": "uint256"
        }
      ],
      "name": "ECDSAInvalidSignatureLength",
      "type": "error"
    },
    {
      "inputs": [
        {
          "internalType": "bytes32",
          "name": "s",
          "type": "bytes32"
        }
      ],
      "name": "ECDSAInvalidSignatureS",
      "type": "error"
    },
    {
      "inputs": [
        {
          "internalType": "address",
          "name": "owner",
          "type": "address"
        }
      ],
      "name": "OwnableInvalidOwner",
      "type": "error"
    },
    {
      "inputs": [
        {
          "internalType": "address",
          "name": "account",
          "type": "address"
        }
      ],
      "name": "OwnableUnauthorizedAccount",
      "type": "error"
    },
    {
      "anonymous": false,
      "inputs": [
        {
          "indexed": true,
          "internalType": "string",
          "name": "adminDID",
          "type": "string"
        }
      ],
      "name": "AdminDIDSet",
      "type": "event"
    },
    {
      "anonymous": false,
      "inputs": [
        {
          "indexed": true,
          "internalType": "string",
          "name": "didId",
          "type": "string"
        },
        {
          "indexed": true,
          "internalType": "address",
          "name": "controller",
          "type": "address"
        },
        {
          "indexed": false,
          "internalType": "string",
          "name": "publicKey",
          "type": "string"
        }
      ],
      "name": "DIDCreated",
      "type": "event"
    },
    {
      "anonymous": false,
      "inputs": [
        {
          "indexed": true,
          "internalType": "string",
          "name": "didId",
          "type": "string"
        }
      ],
      "name": "DIDDeactivated",
      "type": "event"
    },
    {
      "anonymous": false,
      "inputs": [
        {
          "indexed": true,
          "internalType": "string",
          "name": "didId",
          "type": "string"
        }
      ],
      "name": "DIDUpdated",
      "type": "event"
    },
    {
      "anonymous": false,
      "inputs": [
        {
          "indexed": true,
          "internalType": "address",
          "name": "previousOwner",
          "type": "address"
        },
        {
          "indexed": true,
          "internalType": "address",
          "name": "newOwner",
          "type": "address"
        }
      ],
      "name": "OwnershipTransferred",
      "type": "event"
    },
    {
      "anonymous": false,
      "inputs": [
        {
          "indexed": true,
          "internalType": "string",
          "name": "issuerDID",
          "type": "string"
        }
      ],
      "name": "TrustedIssuerAdded",
      "type": "event"
    },
    {
      "anonymous": false,
      "inputs": [
        {
          "indexed": true,
          "internalType": "string",
          "name": "issuerDID",
          "type": "string"
        }
      ],
      "name": "TrustedIssuerRemoved",
      "type": "event"
    },
    {
      "inputs": [],
      "name": "adminDID",
      "outputs": [
        {
          "internalType": "string",
          "name": "",
          "type": "string"
        }
      ],
      "stateMutability": "view",
      "type": "function",
      "constant": true
    },
    {
      "inputs": [],
      "name": "adminSet",
      "outputs": [
        {
          "internalType": "bool",
          "name": "",
          "type": "bool"
        }
      ],
      "stateMutability": "view",
      "type": "function",
      "constant": true
    },
    {
      "inputs": [
        {
          "internalType": "uint256",
          "name": "",
          "type": "uint256"
        }
      ],
      "name": "allDIDs",
      "outputs": [
        {
          "internalType": "string",
          "name": "",
          "type": "string"
        }
      ],
      "stateMutability": "view",
      "type": "function",
      "constant": true
    },
    {
      "inputs": [
        {
          "internalType": "address",
          "name": "",
          "type": "address"
        },
        {
          "internalType": "uint256",
          "name": "",
          "type": "uint256"
        }
      ],
      "name": "controllerToDIDs",
      "outputs": [
        {
          "internalType": "string",
          "name": "",
          "type": "string"
        }
      ],
      "stateMutability": "view",
      "type": "function",
      "constant": true
    },
    {
      "inputs": [
        {
          "internalType": "string",
          "name": "",
          "type": "string"
        }
      ],
      "name": "didDocuments",
      "outputs": [
        {
          "internalType": "string",
          "name": "id",
          "type": "string"
        },
        {
          "internalType": "address",
          "name": "controller",
          "type": "address"
        },
        {
          "internalType": "string",
          "name": "publicKey",
          "type": "string"
        },
        {
          "internalType": "uint256",
          "name": "created",
          "type": "uint256"
        },
        {
          "internalType": "uint256",
          "name": "updated",
          "type": "uint256"
        },
        {
          "internalType": "bool",
          "name": "isActive",
          "type": "bool"
        },
        {
          "internalType": "bool",
          "name": "isTrustedIssuer",
          "type": "bool"
        }
      ],
      "stateMutability": "view",
      "type": "function",
      "constant": true
    },
    {
      "inputs": [],
      "name": "owner",
      "outputs": [
        {
          "internalType": "address",
          "name": "",
          "type": "address"
        }
      ],
      "stateMutability": "view",
      "type": "function",
      "constant": true
    },
    {
      "inputs": [],
      "name": "renounceOwnership",
      "outputs": [],
      "stateMutability": "nonpayable",
      "type": "function"
    },
    {
      "inputs": [
        {
          "internalType": "address",
          "name": "newOwner",
          "type": "address"
        }
      ],
      "name": "transferOwnership",
      "outputs": [],
      "stateMutability": "nonpayable",
      "type": "function"
    },
    {
      "inputs": [
        {
          "internalType": "string",
          "name": "didId",
          "type": "string"
        },
        {
          "internalType": "string",
          "name": "publicKey",
          "type": "string"
        }
      ],
      "name": "createDID",
      "outputs": [],
      "stateMutability": "nonpayable",
      "type": "function"
    },
    {
      "inputs": [
        {
          "internalType": "string",
          "name": "didId",
          "type": "string"
        },
        {
          "internalType": "string",
          "name": "newPublicKey",
          "type": "string"
        }
      ],
      "name": "updateDID",
      "outputs": [],
      "stateMutability": "nonpayable",
      "type": "function"
    },
    {
      "inputs": [
        {
          "internalType": "string",
          "name": "didId",
          "type": "string"
        }
      ],
      "name": "deactivateDID",
      "outputs": [],
      "stateMutability": "nonpayable",
      "type": "function"
    },
    {
      "inputs": [
        {
          "internalType": "string",
          "name": "issuerDID",
          "type": "string"
        }
      ],
      "name": "addTrustedIssuer",
      "outputs": [],
      "stateMutability": "nonpayable",
      "type": "function"
    },
    {
      "inputs": [
        {
          "internalType": "string",
          "name": "issuerDID",
          "type": "string"
        }
      ],
      "name": "removeTrustedIssuer",
      "outputs": [],
      "stateMutability": "nonpayable",
      "type": "function"
    },
    {
      "inputs": [
        {
          "internalType": "string",
          "name": "didId",
          "type": "string"
        },
        {
          "internalType": "bytes32",
          "name": "messageHash",
          "type": "bytes32"
        },
        {
          "internalType": "bytes",
          "name": "signature",
          "type": "bytes"
        }
      ],
      "name": "verifySignature",
      "outputs": [
        {
          "internalType": "bool",
          "name": "",
          "type": "bool"
        }
      ],
      "stateMutability": "view",
      "type": "function",
      "constant": true
    },
    {
      "inputs": [
        {
          "internalType": "string",
          "name": "didId",
          "type": "string"
        },
        {
          "internalType": "bytes",
          "name": "data",
          "type": "bytes"
        },
        {
          "internalType": "bytes",
          "name": "signature",
          "type": "bytes"
        }
      ],
      "name": "verifyDataSignature",
      "outputs": [
        {
          "internalType": "bool",
          "name": "",
          "type": "bool"
        }
      ],
      "stateMutability": "view",
      "type": "function",
      "constant": true
    },
    {
      "inputs": [
        {
          "internalType": "string",
          "name": "didId",
          "type": "string"
        }
      ],
      "name": "getDIDDocument",
      "outputs": [
        {
          "components": [
            {
              "internalType": "string",
              "name": "id",
              "type": "string"
            },
            {
              "internalType": "address",
              "name": "controller",
              "type": "address"
            },
            {
              "internalType": "string",
              "name": "publicKey",
              "type": "string"
            },
            {
              "internalType": "uint256",
              "name": "created",
              "type": "uint256"
            },
            {
              "internalType": "uint256",
              "name": "updated",
              "type": "uint256"
            },
            {
              "internalType": "bool",
              "name": "isActive",
              "type": "bool"
            },
            {
              "internalType": "bool",
              "name": "isTrustedIssuer",
              "type": "bool"
            }
          ],
          "internalType": "struct DIDRegistry.DIDDocument",
          "name": "",
          "type": "tuple"
        }
      ],
      "stateMutability": "view",
      "type": "function",
      "constant": true
    },
    {
      "inputs": [
        {
          "internalType": "string",
          "name": "didId",
          "type": "string"
        }
      ],
      "name": "isTrustedIssuer",
      "outputs": [
        {
          "internalType": "bool",
          "name": "",
          "type": "bool"
        }
      ],
      "stateMutability": "view",
      "type": "function",
      "constant": true
    },
    {
      "inputs": [
        {
          "internalType": "string",
          "name": "didId",
          "type": "string"
        }
      ],
      "name": "isAdminDID",
      "outputs": [
        {
          "internalType": "bool",
          "name": "",
          "type": "bool"
        }
      ],
      "stateMutability": "view",
      "type": "function",
      "constant": true
    },
    {
      "inputs": [
        {
          "internalType": "address",
          "name": "controller",
          "type": "address"
        }
      ],
      "name": "getDIDsByController",
      "outputs": [
        {
          "internalType": "string[]",
          "name": "",
          "type": "string[]"
        }
      ],
      "stateMutability": "view",
      "type": "function",
      "constant": true
    },
    {
      "inputs": [
        {
          "internalType": "string",
          "name": "didId",
          "type": "string"
        }
      ],
      "name": "isDIDActive",
      "outputs": [
        {
          "internalType": "bool",
          "name": "",
          "type": "bool"
        }
      ],
      "stateMutability": "view",
      "type": "function",
      "constant": true
    },
    {
      "inputs": [],
      "name": "getAllDIDs",
      "outputs": [
        {
          "internalType": "string[]",
          "name": "",
          "type": "string[]"
        }
      ],
      "stateMutability": "view",
      "type": "function",
      "constant": true
    },
    {
      "inputs": [],
      "name": "getAllDIDsCount",
      "outputs": [
        {
          "internalType": "uint256",
          "name": "",
          "type": "uint256"
        }
      ],
      "stateMutability": "view",
      "type": "function",
      "constant": true
    }
  ],
  "bytecode": "0x608060405234801561001057600080fd5b5033600073ffffffffffffffffffffffffffffffffffffffff168173ffffffffffffffffffffffffffffffffffffffff16036100845760006040517f1e4fbdf700000000000000000000000000000000000000000000000000000000815260040161007b91906101b9565b60405180910390fd5b610093816100b460201b60201c565b506000600560006101000a81548160ff0219169083151502179055506101d4565b60008060009054906101000a900473ffffffffffffffffffffffffffffffffffffffff169050816000806101000a81548173ffffffffffffffffffffffffffffffffffffffff021916908373ffffffffffffffffffffffffffffffffffffffff1602179055508173ffffffffffffffffffffffffffffffffffffffff168173ffffffffffffffffffffffffffffffffffffffff167f8be0079c531659141344cd1fd0a4f28419497f9722a3daafe3b4186f6b6457e060405160405180910390a35050565b600073ffffffffffffffffffffffffffffffffffffffff82169050919050565b60006101a382610178565b9050919050565b6101b381610198565b82525050565b60006020820190506101ce60008301846101aa565b92915050565b6139d4806101e36000396000f3fe608060405234801561001057600080fd5b50600436106101425760003560e01c806364312cd7116100b85780638da5cb5b1161007c5780638da5cb5b146103a35780638fa62173146103c15780639e031f81146103f1578063b363cff31461040d578063b42a02b51461043d578063f2fde38b1461045957610142565b806364312cd7146102ff57806370d876701461031b578063715018a61461034b578063784afc4e1461035557806380710f201461038557610142565b80632ae73ee11161010a5780632ae73ee1146102295780632b9620fa146102595780633b253b231461027757806344b0b5d5146102935780634c95303a146102c35780635cd49ebb146102e157610142565b80630f37a5d5146101475780631154e011146101775780631539a507146101a757806320c9d73a146101c357806324c483a5146101f3575b600080fd5b610161600480360381019061015c91906125a7565b610475565b60405161016e9190612664565b60405180910390f35b610191600480360381019061018c91906127bb565b610521565b60405161019e919061281f565b60405180910390f35b6101c160048036038101906101bc919061283a565b61054a565b005b6101dd60048036038101906101d891906127bb565b61094a565b6040516101ea919061281f565b60405180910390f35b61020d600480360381019061020891906127bb565b610a34565b6040516102209796959493929190612902565b60405180910390f35b610243600480360381019061023e91906127bb565b610bd6565b604051610250919061281f565b60405180910390f35b610261610c45565b60405161026e919061297f565b60405180910390f35b610291600480360381019061028c91906127bb565b610c52565b005b6102ad60048036038101906102a89190612a3b565b610ee4565b6040516102ba919061281f565b60405180910390f35b6102cb6110b2565b6040516102d89190612bee565b60405180910390f35b6102e961118b565b6040516102f69190612664565b60405180910390f35b610319600480360381019061031491906127bb565b611219565b005b61033560048036038101906103309190612c46565b611508565b604051610342919061281f565b60405180910390f35b6103536116c9565b005b61036f600480360381019061036a91906127bb565b6116dd565b60405161037c9190612da1565b60405180910390f35b61038d61198b565b60405161039a919061281f565b60405180910390f35b6103ab61199e565b6040516103b89190612dc3565b60405180910390f35b6103db60048036038101906103d69190612e0a565b6119c7565b6040516103e89190612664565b60405180910390f35b61040b600480360381019061040691906127bb565b611a80565b005b61042760048036038101906104229190612e4a565b611d01565b6040516104349190612bee565b60405180910390f35b6104576004803603810190610452919061283a565b611e19565b005b610473600480360381019061046e9190612e4a565b612017565b005b6003818154811061048557600080fd5b9060005260206000200160009150905080546104a090612ea6565b80601f01602080910402602001604051908101604052809291908181526020018280546104cc90612ea6565b80156105195780601f106104ee57610100808354040283529160200191610519565b820191906000526020600020905b8154815290600101906020018083116104fc57829003601f168201915b505050505081565b600060046040516105329190612f7a565b60405180910390208280519060200120149050919050565b600082511161058e576040517f08c379a000000000000000000000000000000000000000000000000000000000815260040161058590612fdd565b60405180910390fd5b60008151116105d2576040517f08c379a00000000000000000000000000000000000000000000000000000000081526004016105c990613049565b60405180910390fd5b600073ffffffffffffffffffffffffffffffffffffffff166001836040516105fa91906130a5565b908152602001604051809103902060010160009054906101000a900473ffffffffffffffffffffffffffffffffffffffff1673ffffffffffffffffffffffffffffffffffffffff1614610682576040517f08c379a000000000000000000000000000000000000000000000000000000000815260040161067990613108565b60405180910390fd5b6040518060e001604052808381526020013373ffffffffffffffffffffffffffffffffffffffff168152602001828152602001428152602001428152602001600115158152602001600015158152506001836040516106e191906130a5565b9081526020016040518091039020600082015181600001908161070491906132d4565b5060208201518160010160006101000a81548173ffffffffffffffffffffffffffffffffffffffff021916908373ffffffffffffffffffffffffffffffffffffffff160217905550604082015181600201908161076191906132d4565b50606082015181600301556080820151816004015560a08201518160050160006101000a81548160ff02191690831515021790555060c08201518160050160016101000a81548160ff021916908315150217905550905050600260003373ffffffffffffffffffffffffffffffffffffffff1673ffffffffffffffffffffffffffffffffffffffff1681526020019081526020016000208290806001815401808255809150506001900390600052602060002001600090919091909150908161082a91906132d4565b5060038290806001815401808255809150506001900390600052602060002001600090919091909150908161085f91906132d4565b50600560009054906101000a900460ff166108e257816004908161088391906132d4565b506001600560006101000a81548160ff021916908315150217905550816040516108ad91906130a5565b60405180910390207f99fa2459ec4d365b8ea32c99c7a5b785cb3b22136b768fca4bf544a531f3eca360405160405180910390a25b3373ffffffffffffffffffffffffffffffffffffffff168260405161090791906130a5565b60405180910390207f63b814845f107bcec35c851cf55cdd7236e563def52caa46cb6857f52b755cac8360405161093e9190612664565b60405180910390a35050565b600081600073ffffffffffffffffffffffffffffffffffffffff1660018260405161097591906130a5565b908152602001604051809103902060010160009054906101000a900473ffffffffffffffffffffffffffffffffffffffff1673ffffffffffffffffffffffffffffffffffffffff16036109fd576040517f08c379a00000000000000000000000000000000000000000000000000000000081526004016109f4906133f2565b60405180910390fd5b600183604051610a0d91906130a5565b908152602001604051809103902060050160009054906101000a900460ff16915050919050565b600181805160208101820180518482526020830160208501208183528095505050505050600091509050806000018054610a6d90612ea6565b80601f0160208091040260200160405190810160405280929190818152602001828054610a9990612ea6565b8015610ae65780601f10610abb57610100808354040283529160200191610ae6565b820191906000526020600020905b815481529060010190602001808311610ac957829003601f168201915b5050505050908060010160009054906101000a900473ffffffffffffffffffffffffffffffffffffffff1690806002018054610b2190612ea6565b80601f0160208091040260200160405190810160405280929190818152602001828054610b4d90612ea6565b8015610b9a5780601f10610b6f57610100808354040283529160200191610b9a565b820191906000526020600020905b815481529060010190602001808311610b7d57829003601f168201915b5050505050908060030154908060040154908060050160009054906101000a900460ff16908060050160019054906101000a900460ff16905087565b6000600182604051610be891906130a5565b908152602001604051809103902060050160019054906101000a900460ff168015610c3e5750600182604051610c1e91906130a5565b908152602001604051809103902060050160009054906101000a900460ff165b9050919050565b6000600380549050905090565b803373ffffffffffffffffffffffffffffffffffffffff16600182604051610c7a91906130a5565b908152602001604051809103902060010160009054906101000a900473ffffffffffffffffffffffffffffffffffffffff1673ffffffffffffffffffffffffffffffffffffffff1614610d02576040517f08c379a0000000000000000000000000000000000000000000000000000000008152600401610cf99061345e565b60405180910390fd5b600181604051610d1291906130a5565b908152602001604051809103902060050160009054906101000a900460ff16610d70576040517f08c379a0000000000000000000000000000000000000000000000000000000008152600401610d67906134ca565b60405180910390fd5b6004604051610d7f9190612f7a565b6040518091039020828051906020012003610dcf576040517f08c379a0000000000000000000000000000000000000000000000000000000008152600401610dc690613536565b60405180910390fd5b600182604051610ddf91906130a5565b908152602001604051809103902060050160019054906101000a900460ff1615610e3e576040517f08c379a0000000000000000000000000000000000000000000000000000000008152600401610e35906135a2565b60405180910390fd5b6000600183604051610e5091906130a5565b908152602001604051809103902060050160006101000a81548160ff02191690831515021790555042600183604051610e8991906130a5565b90815260200160405180910390206004018190555081604051610eac91906130a5565b60405180910390207f4360f12f602ccecefb32480e5314d0d3f57d38db8f52c76d8fdf4c39596c1c2860405160405180910390a25050565b600083600073ffffffffffffffffffffffffffffffffffffffff16600182604051610f0f91906130a5565b908152602001604051809103902060010160009054906101000a900473ffffffffffffffffffffffffffffffffffffffff1673ffffffffffffffffffffffffffffffffffffffff1603610f97576040517f08c379a0000000000000000000000000000000000000000000000000000000008152600401610f8e906133f2565b60405180910390fd5b600185604051610fa791906130a5565b908152602001604051809103902060050160009054906101000a900460ff16611005576040517f08c379a0000000000000000000000000000000000000000000000000000000008152600401610ffc906134ca565b60405180910390fd5b600084805190602001209050600061101c8261209d565b9050600061103386836120d390919063ffffffff16565b905060018860405161104591906130a5565b908152602001604051809103902060010160009054906101000a900473ffffffffffffffffffffffffffffffffffffffff1673ffffffffffffffffffffffffffffffffffffffff168173ffffffffffffffffffffffffffffffffffffffff16149450505050509392505050565b60606003805480602002602001604051908101604052809291908181526020016000905b828210156111825783829060005260206000200180546110f590612ea6565b80601f016020809104026020016040519081016040528092919081815260200182805461112190612ea6565b801561116e5780601f106111435761010080835404028352916020019161116e565b820191906000526020600020905b81548152906001019060200180831161115157829003601f168201915b5050505050815260200190600101906110d6565b50505050905090565b6004805461119890612ea6565b80601f01602080910402602001604051908101604052809291908181526020018280546111c490612ea6565b80156112115780601f106111e657610100808354040283529160200191611211565b820191906000526020600020905b8154815290600101906020018083116111f457829003601f168201915b505050505081565b600560009054906101000a900460ff16611268576040517f08c379a000000000000000000000000000000000000000000000000000000000815260040161125f9061360e565b60405180910390fd5b3373ffffffffffffffffffffffffffffffffffffffff166001600460405161129091906136b1565b908152602001604051809103902060010160009054906101000a900473ffffffffffffffffffffffffffffffffffffffff1673ffffffffffffffffffffffffffffffffffffffff1614611318576040517f08c379a000000000000000000000000000000000000000000000000000000000815260040161130f90613714565b60405180910390fd5b6001600460405161132991906136b1565b908152602001604051809103902060050160009054906101000a900460ff16611387576040517f08c379a000000000000000000000000000000000000000000000000000000000815260040161137e90613780565b60405180910390fd5b60018160405161139791906130a5565b908152602001604051809103902060050160009054906101000a900460ff166113f5576040517f08c379a00000000000000000000000000000000000000000000000000000000081526004016113ec906137ec565b60405180910390fd5b60018160405161140591906130a5565b908152602001604051809103902060050160019054906101000a900460ff1615611464576040517f08c379a000000000000000000000000000000000000000000000000000000000815260040161145b90613858565b60405180910390fd5b6001808260405161147591906130a5565b908152602001604051809103902060050160016101000a81548160ff021916908315150217905550426001826040516114ae91906130a5565b908152602001604051809103902060040181905550806040516114d191906130a5565b60405180910390207f3fa3ab3bac0cccd0cb57495c0a834d60cfa7421c8150780ec693705cd636516560405160405180910390a250565b600083600073ffffffffffffffffffffffffffffffffffffffff1660018260405161153391906130a5565b908152602001604051809103902060010160009054906101000a900473ffffffffffffffffffffffffffffffffffffffff1673ffffffffffffffffffffffffffffffffffffffff16036115bb576040517f08c379a00000000000000000000000000000000000000000000000000000000081526004016115b2906133f2565b60405180910390fd5b6001856040516115cb91906130a5565b908152602001604051809103902060050160009054906101000a900460ff16611629576040517f08c379a0000000000000000000000000000000000000000000000000000000008152600401611620906134ca565b60405180910390fd5b60006116348561209d565b9050600061164b85836120d390919063ffffffff16565b905060018760405161165d91906130a5565b908152602001604051809103902060010160009054906101000a900473ffffffffffffffffffffffffffffffffffffffff1673ffffffffffffffffffffffffffffffffffffffff168173ffffffffffffffffffffffffffffffffffffffff161493505050509392505050565b6116d16120ff565b6116db6000612186565b565b6116e5612506565b81600073ffffffffffffffffffffffffffffffffffffffff1660018260405161170e91906130a5565b908152602001604051809103902060010160009054906101000a900473ffffffffffffffffffffffffffffffffffffffff1673ffffffffffffffffffffffffffffffffffffffff1603611796576040517f08c379a000000000000000000000000000000000000000000000000000000000815260040161178d906133f2565b60405180910390fd5b6001836040516117a691906130a5565b90815260200160405180910390206040518060e00160405290816000820180546117cf90612ea6565b80601f01602080910402602001604051908101604052809291908181526020018280546117fb90612ea6565b80156118485780601f1061181d57610100808354040283529160200191611848565b820191906000526020600020905b81548152906001019060200180831161182b57829003601f168201915b505050505081526020016001820160009054906101000a900473ffffffffffffffffffffffffffffffffffffffff1673ffffffffffffffffffffffffffffffffffffffff1673ffffffffffffffffffffffffffffffffffffffff1681526020016002820180546118b790612ea6565b80601f01602080910402602001604051908101604052809291908181526020018280546118e390612ea6565b80156119305780601f1061190557610100808354040283529160200191611930565b820191906000526020600020905b81548152906001019060200180831161191357829003601f168201915b5050505050815260200160038201548152602001600482015481526020016005820160009054906101000a900460ff161515151581526020016005820160019054906101000a900460ff161515151581525050915050919050565b600560009054906101000a900460ff1681565b60008060009054906101000a900473ffffffffffffffffffffffffffffffffffffffff16905090565b600260205281600052604060002081815481106119e357600080fd5b906000526020600020016000915091505080546119ff90612ea6565b80601f0160208091040260200160405190810160405280929190818152602001828054611a2b90612ea6565b8015611a785780601f10611a4d57610100808354040283529160200191611a78565b820191906000526020600020905b815481529060010190602001808311611a5b57829003601f168201915b505050505081565b600560009054906101000a900460ff16611acf576040517f08c379a0000000000000000000000000000000000000000000000000000000008152600401611ac69061360e565b60405180910390fd5b3373ffffffffffffffffffffffffffffffffffffffff1660016004604051611af791906136b1565b908152602001604051809103902060010160009054906101000a900473ffffffffffffffffffffffffffffffffffffffff1673ffffffffffffffffffffffffffffffffffffffff1614611b7f576040517f08c379a0000000000000000000000000000000000000000000000000000000008152600401611b7690613714565b60405180910390fd5b60016004604051611b9091906136b1565b908152602001604051809103902060050160009054906101000a900460ff16611bee576040517f08c379a0000000000000000000000000000000000000000000000000000000008152600401611be590613780565b60405180910390fd5b600181604051611bfe91906130a5565b908152602001604051809103902060050160019054906101000a900460ff16611c5c576040517f08c379a0000000000000000000000000000000000000000000000000000000008152600401611c53906138c4565b60405180910390fd5b6000600182604051611c6e91906130a5565b908152602001604051809103902060050160016101000a81548160ff02191690831515021790555042600182604051611ca791906130a5565b90815260200160405180910390206004018190555080604051611cca91906130a5565b60405180910390207f681faa00c7b37242bbf8b47f00f510cff20f12f295e1e29690b497232596f84a60405160405180910390a250565b6060600260008373ffffffffffffffffffffffffffffffffffffffff1673ffffffffffffffffffffffffffffffffffffffff168152602001908152602001600020805480602002602001604051908101604052809291908181526020016000905b82821015611e0e578382906000526020600020018054611d8190612ea6565b80601f0160208091040260200160405190810160405280929190818152602001828054611dad90612ea6565b8015611dfa5780601f10611dcf57610100808354040283529160200191611dfa565b820191906000526020600020905b815481529060010190602001808311611ddd57829003601f168201915b505050505081526020019060010190611d62565b505050509050919050565b813373ffffffffffffffffffffffffffffffffffffffff16600182604051611e4191906130a5565b908152602001604051809103902060010160009054906101000a900473ffffffffffffffffffffffffffffffffffffffff1673ffffffffffffffffffffffffffffffffffffffff1614611ec9576040517f08c379a0000000000000000000000000000000000000000000000000000000008152600401611ec09061345e565b60405180910390fd5b600181604051611ed991906130a5565b908152602001604051809103902060050160009054906101000a900460ff16611f37576040517f08c379a0000000000000000000000000000000000000000000000000000000008152600401611f2e906134ca565b60405180910390fd5b6000825111611f7b576040517f08c379a0000000000000000000000000000000000000000000000000000000008152600401611f7290613049565b60405180910390fd5b81600184604051611f8c91906130a5565b90815260200160405180910390206002019081611fa991906132d4565b5042600184604051611fbb91906130a5565b90815260200160405180910390206004018190555082604051611fde91906130a5565b60405180910390207f7e7500a71b0209575a3b4858a2a662e94b0cad314ecb249f3526e9b2f86a014660405160405180910390a2505050565b61201f6120ff565b600073ffffffffffffffffffffffffffffffffffffffff168173ffffffffffffffffffffffffffffffffffffffff16036120915760006040517f1e4fbdf70000000000000000000000000000000000000000000000000000000081526004016120889190612dc3565b60405180910390fd5b61209a81612186565b50565b60007f19457468657265756d205369676e6564204d6573736167653a0a33320000000060005281601c52603c6000209050919050565b6000806000806120e3868661224a565b9250925092506120f382826122a6565b82935050505092915050565b61210761240a565b73ffffffffffffffffffffffffffffffffffffffff1661212561199e565b73ffffffffffffffffffffffffffffffffffffffff16146121845761214861240a565b6040517f118cdaa700000000000000000000000000000000000000000000000000000000815260040161217b9190612dc3565b60405180910390fd5b565b60008060009054906101000a900473ffffffffffffffffffffffffffffffffffffffff169050816000806101000a81548173ffffffffffffffffffffffffffffffffffffffff021916908373ffffffffffffffffffffffffffffffffffffffff1602179055508173ffffffffffffffffffffffffffffffffffffffff168173ffffffffffffffffffffffffffffffffffffffff167f8be0079c531659141344cd1fd0a4f28419497f9722a3daafe3b4186f6b6457e060405160405180910390a35050565b6000806000604184510361228f5760008060006020870151925060408701519150606087015160001a905061228188828585612412565b95509550955050505061229f565b60006002855160001b9250925092505b9250925092565b600060038111156122ba576122b96138e4565b5b8260038111156122cd576122cc6138e4565b5b031561240657600160038111156122e7576122e66138e4565b5b8260038111156122fa576122f96138e4565b5b03612331576040517ff645eedf00000000000000000000000000000000000000000000000000000000815260040160405180910390fd5b60026003811115612345576123446138e4565b5b826003811115612358576123576138e4565b5b0361239d578060001c6040517ffce698f7000000000000000000000000000000000000000000000000000000008152600401612394919061297f565b60405180910390fd5b6003808111156123b0576123af6138e4565b5b8260038111156123c3576123c26138e4565b5b0361240557806040517fd78bce0c0000000000000000000000000000000000000000000000000000000081526004016123fc9190613922565b60405180910390fd5b5b5050565b600033905090565b60008060007f7fffffffffffffffffffffffffffffff5d576e7357a4501ddfe92f46681b20a08460001c11156124525760006003859250925092506124fc565b6000600188888888604051600081526020016040526040516124779493929190613959565b6020604051602081039080840390855afa158015612499573d6000803e3d6000fd5b505050602060405103519050600073ffffffffffffffffffffffffffffffffffffffff168173ffffffffffffffffffffffffffffffffffffffff16036124ed57600060016000801b935093509350506124fc565b8060008060001b935093509350505b9450945094915050565b6040518060e0016040528060608152602001600073ffffffffffffffffffffffffffffffffffffffff1681526020016060815260200160008152602001600081526020016000151581526020016000151581525090565b6000604051905090565b600080fd5b600080fd5b6000819050919050565b61258481612571565b811461258f57600080fd5b50565b6000813590506125a18161257b565b92915050565b6000602082840312156125bd576125bc612567565b5b60006125cb84828501612592565b91505092915050565b600081519050919050565b600082825260208201905092915050565b60005b8381101561260e5780820151818401526020810190506125f3565b60008484015250505050565b6000601f19601f8301169050919050565b6000612636826125d4565b61264081856125df565b93506126508185602086016125f0565b6126598161261a565b840191505092915050565b6000602082019050818103600083015261267e818461262b565b905092915050565b600080fd5b600080fd5b7f4e487b7100000000000000000000000000000000000000000000000000000000600052604160045260246000fd5b6126c88261261a565b810181811067ffffffffffffffff821117156126e7576126e6612690565b5b80604052505050565b60006126fa61255d565b905061270682826126bf565b919050565b600067ffffffffffffffff82111561272657612725612690565b5b61272f8261261a565b9050602081019050919050565b82818337600083830152505050565b600061275e6127598461270b565b6126f0565b90508281526020810184848401111561277a5761277961268b565b5b61278584828561273c565b509392505050565b600082601f8301126127a2576127a1612686565b5b81356127b284826020860161274b565b91505092915050565b6000602082840312156127d1576127d0612567565b5b600082013567ffffffffffffffff8111156127ef576127ee61256c565b5b6127fb8482850161278d565b91505092915050565b60008115159050919050565b61281981612804565b82525050565b60006020820190506128346000830184612810565b92915050565b6000806040838503121561285157612850612567565b5b600083013567ffffffffffffffff81111561286f5761286e61256c565b5b61287b8582860161278d565b925050602083013567ffffffffffffffff81111561289c5761289b61256c565b5b6128a88582860161278d565b9150509250929050565b600073ffffffffffffffffffffffffffffffffffffffff82169050919050565b60006128dd826128b2565b9050919050565b6128ed816128d2565b82525050565b6128fc81612571565b82525050565b600060e082019050818103600083015261291c818a61262b565b905061292b60208301896128e4565b818103604083015261293d818861262b565b905061294c60608301876128f3565b61295960808301866128f3565b61296660a0830185612810565b61297360c0830184612810565b98975050505050505050565b600060208201905061299460008301846128f3565b92915050565b600067ffffffffffffffff8211156129b5576129b4612690565b5b6129be8261261a565b9050602081019050919050565b60006129de6129d98461299a565b6126f0565b9050828152602081018484840111156129fa576129f961268b565b5b612a0584828561273c565b509392505050565b600082601f830112612a2257612a21612686565b5b8135612a328482602086016129cb565b91505092915050565b600080600060608486031215612a5457612a53612567565b5b600084013567ffffffffffffffff811115612a7257612a7161256c565b5b612a7e8682870161278d565b935050602084013567ffffffffffffffff811115612a9f57612a9e61256c565b5b612aab86828701612a0d565b925050604084013567ffffffffffffffff811115612acc57612acb61256c565b5b612ad886828701612a0d565b9150509250925092565b600081519050919050565b600082825260208201905092915050565b6000819050602082019050919050565b600082825260208201905092915050565b6000612b2a826125d4565b612b348185612b0e565b9350612b448185602086016125f0565b612b4d8161261a565b840191505092915050565b6000612b648383612b1f565b905092915050565b6000602082019050919050565b6000612b8482612ae2565b612b8e8185612aed565b935083602082028501612ba085612afe565b8060005b85811015612bdc5784840389528151612bbd8582612b58565b9450612bc883612b6c565b925060208a01995050600181019050612ba4565b50829750879550505050505092915050565b60006020820190508181036000830152612c088184612b79565b905092915050565b6000819050919050565b612c2381612c10565b8114612c2e57600080fd5b50565b600081359050612c4081612c1a565b92915050565b600080600060608486031215612c5f57612c5e612567565b5b600084013567ffffffffffffffff811115612c7d57612c7c61256c565b5b612c898682870161278d565b9350506020612c9a86828701612c31565b925050604084013567ffffffffffffffff811115612cbb57612cba61256c565b5b612cc786828701612a0d565b9150509250925092565b612cda816128d2565b82525050565b612ce981612571565b82525050565b612cf881612804565b82525050565b600060e0830160008301518482036000860152612d1b8282612b1f565b9150506020830151612d306020860182612cd1565b5060408301518482036040860152612d488282612b1f565b9150506060830151612d5d6060860182612ce0565b506080830151612d706080860182612ce0565b5060a0830151612d8360a0860182612cef565b5060c0830151612d9660c0860182612cef565b508091505092915050565b60006020820190508181036000830152612dbb8184612cfe565b905092915050565b6000602082019050612dd860008301846128e4565b92915050565b612de7816128d2565b8114612df257600080fd5b50565b600081359050612e0481612dde565b92915050565b60008060408385031215612e2157612e20612567565b5b6000612e2f85828601612df5565b9250506020612e4085828601612592565b9150509250929050565b600060208284031215612e6057612e5f612567565b5b6000612e6e84828501612df5565b91505092915050565b7f4e487b7100000000000000000000000000000000000000000000000000000000600052602260045260246000fd5b60006002820490506001821680612ebe57607f821691505b602082108103612ed157612ed0612e77565b5b50919050565b600081905092915050565b60008190508160005260206000209050919050565b60008154612f0481612ea6565b612f0e8186612ed7565b94506001821660008114612f295760018114612f3e57612f71565b60ff1983168652811515820286019350612f71565b612f4785612ee2565b60005b83811015612f6957815481890152600182019150602081019050612f4a565b838801955050505b50505092915050565b6000612f868284612ef7565b915081905092915050565b7f4449442049442063616e6e6f7420626520656d70747900000000000000000000600082015250565b6000612fc76016836125df565b9150612fd282612f91565b602082019050919050565b60006020820190508181036000830152612ff681612fba565b9050919050565b7f5075626c6963206b65792063616e6e6f7420626520656d707479000000000000600082015250565b6000613033601a836125df565b915061303e82612ffd565b602082019050919050565b6000602082019050818103600083015261306281613026565b9050919050565b600081905092915050565b600061307f826125d4565b6130898185613069565b93506130998185602086016125f0565b80840191505092915050565b60006130b18284613074565b915081905092915050565b7f44494420616c7265616479206578697374730000000000000000000000000000600082015250565b60006130f26012836125df565b91506130fd826130bc565b602082019050919050565b60006020820190508181036000830152613121816130e5565b9050919050565b60008190508160005260206000209050919050565b60006020601f8301049050919050565b600082821b905092915050565b60006008830261318a7fffffffffffffffffffffffffffffffffffffffffffffffffffffffffffffffff8261314d565b613194868361314d565b95508019841693508086168417925050509392505050565b6000819050919050565b60006131d16131cc6131c784612571565b6131ac565b612571565b9050919050565b6000819050919050565b6131eb836131b6565b6131ff6131f7826131d8565b84845461315a565b825550505050565b600090565b613214613207565b61321f8184846131e2565b505050565b5b818110156132435761323860008261320c565b600181019050613225565b5050565b601f8211156132885761325981613128565b6132628461313d565b81016020851015613271578190505b61328561327d8561313d565b830182613224565b50505b505050565b600082821c905092915050565b60006132ab6000198460080261328d565b1980831691505092915050565b60006132c4838361329a565b9150826002028217905092915050565b6132dd826125d4565b67ffffffffffffffff8111156132f6576132f5612690565b5b6133008254612ea6565b61330b828285613247565b600060209050601f83116001811461333e576000841561332c578287015190505b61333685826132b8565b86555061339e565b601f19841661334c86613128565b60005b828110156133745784890151825560018201915060208501945060208101905061334f565b86831015613391578489015161338d601f89168261329a565b8355505b6001600288020188555050505b505050505050565b7f44494420646f6573206e6f742065786973740000000000000000000000000000600082015250565b60006133dc6012836125df565b91506133e7826133a6565b602082019050919050565b6000602082019050818103600083015261340b816133cf565b9050919050565b7f4e6f742044494420636f6e74726f6c6c65720000000000000000000000000000600082015250565b60006134486012836125df565b915061345382613412565b602082019050919050565b600060208201905081810360008301526134778161343b565b9050919050565b7f444944206e6f7420616374697665000000000000000000000000000000000000600082015250565b60006134b4600e836125df565b91506134bf8261347e565b602082019050919050565b600060208201905081810360008301526134e3816134a7565b9050919050565b7f43616e6e6f7420646561637469766174652061646d696e204449440000000000600082015250565b6000613520601b836125df565b915061352b826134ea565b602082019050919050565b6000602082019050818103600083015261354f81613513565b9050919050565b7f43616e6e6f742064656163746976617465207472757374656420697373756572600082015250565b600061358c6020836125df565b915061359782613556565b602082019050919050565b600060208201905081810360008301526135bb8161357f565b9050919050565b7f41646d696e20444944206e6f7420736574000000000000000000000000000000600082015250565b60006135f86011836125df565b9150613603826135c2565b602082019050919050565b60006020820190508181036000830152613627816135eb565b9050919050565b6000815461363b81612ea6565b6136458186613069565b945060018216600081146136605760018114613675576136a8565b60ff19831686528115158202860193506136a8565b61367e85613128565b60005b838110156136a057815481890152600182019150602081019050613681565b838801955050505b50505092915050565b60006136bd828461362e565b915081905092915050565b7f4e6f742061646d696e0000000000000000000000000000000000000000000000600082015250565b60006136fe6009836125df565b9150613709826136c8565b602082019050919050565b6000602082019050818103600083015261372d816136f1565b9050919050565b7f41646d696e20444944206e6f7420616374697665000000000000000000000000600082015250565b600061376a6014836125df565b915061377582613734565b602082019050919050565b600060208201905081810360008301526137998161375d565b9050919050565b7f49737375657220444944206e6f74206163746976650000000000000000000000600082015250565b60006137d66015836125df565b91506137e1826137a0565b602082019050919050565b60006020820190508181036000830152613805816137c9565b9050919050565b7f49737375657220616c7265616479207472757374656400000000000000000000600082015250565b60006138426016836125df565b915061384d8261380c565b602082019050919050565b6000602082019050818103600083015261387181613835565b9050919050565b7f497373756572206e6f7420747275737465640000000000000000000000000000600082015250565b60006138ae6012836125df565b91506138b982613878565b602082019050919050565b600060208201905081810360008301526138dd816138a1565b9050919050565b7f4e487b7100000000000000000000000000000000000000000000000000000000600052602160045260246000fd5b61391c81612c10565b82525050565b60006020820190506139376000830184613913565b92915050565b600060ff82169050919050565b6139538161393d565b82525050565b600060808201905061396e6000830187613913565b61397b602083018661394a565b6139886040830185613913565b6139956060830184613913565b9594505050505056fea264697066735822122067034afdbb5020a72f1c34edda85e3f7ad81f583bb82b772df93190a90cef62b64736f6c634300081a0033",
  "immutableReferences": {},
  "source": "// SPDX-License-Identifier: MIT\npragma solidity ^0.8.19;\n\nimport \"@openzeppelin/contracts/utils/cryptography/ECDSA.sol\";\nimport \"@openzeppelin/contracts/utils/cryptography/MessageHashUtils.sol\";\nimport \"@openzeppelin/contracts/access/Ownable.sol\";\n\ncontract DIDRegistry is Ownable {\n    using ECDSA for bytes32;\n    using MessageHashUtils for bytes32;\n\n    struct DIDDocument {\n        string id;\n        address controller;\n        string publicKey;\n        uint256 created;\n        uint256 updated;\n        bool isActive;\n        bool isTrustedIssuer;\n    }\n\n    mapping(string => DIDDocument) public didDocuments;\n    mapping(address => string[]) public controllerToDIDs;\n    string[] public allDIDs;\n    string public adminDID;\n    bool public adminSet;\n\n    event DIDCreated(string indexed didId, address indexed controller, string publicKey);\n    event DIDUpdated(string indexed didId);\n    event DIDDeactivated(string indexed didId);\n    event TrustedIssuerAdded(string indexed issuerDID);\n    event TrustedIssuerRemoved(string indexed issuerDID);\n    event AdminDIDSet(string indexed adminDID);\n\n    constructor() Ownable(msg.sender) {\n        adminSet = false;\n    }\n\n    modifier onlyDIDController(string memory didId) {\n        require(didDocuments[didId].controller == msg.sender, \"Not DID controller\");\n        require(didDocuments[didId].isActive, \"DID not active\");\n        _;\n    }\n\n    modifier onlyAdmin() {\n        require(adminSet, \"Admin DID not set\");\n        require(didDocuments[adminDID].controller == msg.sender, \"Not admin\");\n        require(didDocuments[adminDID].isActive, \"Admin DID not active\");\n        _;\n    }\n\n    modifier didExists(string memory didId) {\n        require(didDocuments[didId].controller != address(0), \"DID does not exist\");\n        _;\n    }\n\n    function createDID(string memory didId, string memory publicKey) external {\n        require(bytes(didId).length > 0, \"DID ID cannot be empty\");\n        require(bytes(publicKey).length > 0, \"Public key cannot be empty\");\n        require(didDocuments[didId].controller == address(0), \"DID already exists\");\n\n        didDocuments[didId] = DIDDocument({\n            id: didId,\n            controller: msg.sender,\n            publicKey: publicKey,\n            created: block.timestamp,\n            updated: block.timestamp,\n            isActive: true,\n            isTrustedIssuer: false\n        });\n\n        controllerToDIDs[msg.sender].push(didId);\n        allDIDs.push(didId);\n\n        if (!adminSet) {\n            adminDID = didId;\n            adminSet = true;\n            emit AdminDIDSet(didId);\n        }\n\n        emit DIDCreated(didId, msg.sender, publicKey);\n    }\n\n    function updateDID(string memory didId, string memory newPublicKey) external onlyDIDController(didId) {\n        require(bytes(newPublicKey).length > 0, \"Public key cannot be empty\");\n        \n        didDocuments[didId].publicKey = newPublicKey;\n        didDocuments[didId].updated = block.timestamp;\n        \n        emit DIDUpdated(didId);\n    }\n\n    function deactivateDID(string memory didId) external onlyDIDController(didId) {\n        require(keccak256(bytes(didId)) != keccak256(bytes(adminDID)), \"Cannot deactivate admin DID\");\n        \n        require(!didDocuments[didId].isTrustedIssuer, \"Cannot deactivate trusted issuer\");\n        \n        didDocuments[didId].isActive = false;\n        didDocuments[didId].updated = block.timestamp;\n        emit DIDDeactivated(didId);\n    }\n\n    function addTrustedIssuer(string memory issuerDID) external onlyAdmin {\n        require(didDocuments[issuerDID].isActive, \"Issuer DID not active\");\n        require(!didDocuments[issuerDID].isTrustedIssuer, \"Issuer already trusted\");\n        \n        didDocuments[issuerDID].isTrustedIssuer = true;\n        didDocuments[issuerDID].updated = block.timestamp;\n        \n        emit TrustedIssuerAdded(issuerDID);\n    }\n\n    function removeTrustedIssuer(string memory issuerDID) external onlyAdmin {\n        require(didDocuments[issuerDID].isTrustedIssuer, \"Issuer not trusted\");\n        \n        didDocuments[issuerDID].isTrustedIssuer = false;\n        didDocuments[issuerDID].updated = block.timestamp;\n        \n        emit TrustedIssuerRemoved(issuerDID);\n    }\n\n    function verifySignature(string memory didId, bytes32 messageHash, bytes memory signature\n    ) external view didExists(didId) returns (bool) {\n        require(didDocuments[didId].isActive, \"DID not active\");\n\n        bytes32 ethSignedMessageHash = messageHash.toEthSignedMessageHash();\n        address recoveredSigner = ethSignedMessageHash.recover(signature);\n        return recoveredSigner == didDocuments[didId].controller;\n    }\n\n    function verifyDataSignature(string memory didId, bytes memory data, bytes memory signature\n    ) external view didExists(didId) returns (bool) {\n        require(didDocuments[didId].isActive, \"DID not active\");\n        \n        bytes32 dataHash = keccak256(data);\n        bytes32 ethSignedMessageHash = dataHash.toEthSignedMessageHash();\n\n        address recoveredSigner = ethSignedMessageHash.recover(signature);\n        return recoveredSigner == didDocuments[didId].controller;\n    }\n\n    function getDIDDocument(string memory didId) external view didExists(didId) returns (DIDDocument memory) {\n        return didDocuments[didId];\n    }\n\n    function isTrustedIssuer(string memory didId) external view returns (bool) {\n        return didDocuments[didId].isTrustedIssuer && didDocuments[didId].isActive;\n    }\n\n    function isAdminDID(string memory didId) external view returns (bool) {\n        return keccak256(bytes(didId)) == keccak256(bytes(adminDID));\n    }\n\n    function getDIDsByController(address controller) external view returns (string[] memory) {\n        return controllerToDIDs[controller];\n    }\n\n    function isDIDActive(string memory didId) external view didExists(didId) returns (bool) {\n        return didDocuments[didId].isActive;\n    }\n\n    function getAllDIDs() external view returns (string[] memory) {\n        return allDIDs;\n    }\n\n    function getAllDIDsCount() external view returns (uint256) {\n        return allDIDs.length;\n    }\n    \n}\n",
  "sourcePath": "/Users/raphaelabderrahmani/Desktop/Blockchain/Code/DID-project/contracts/DIDRegistry.sol",
  "compiler": {
    "name": "solc",
    "version": "0.8.26+commit.8a97fa7a.Emscripten.clang"
  },
  "schemaVersion": "3.4.16",
  "updatedAt": "2025-08-06T03:01:36.352Z",
  "networkType": "ethereum",
  "devdoc": {
    "errors": {
      "ECDSAInvalidSignature()": [
        {
          "details": "The signature derives the `address(0)`."
        }
      ],
      "ECDSAInvalidSignatureLength(uint256)": [
        {
          "details": "The signature has an invalid length."
        }
      ],
      "ECDSAInvalidSignatureS(bytes32)": [
        {
          "details": "The signature has an S value that is in the upper half order."
        }
      ],
      "OwnableInvalidOwner(address)": [
        {
          "details": "The owner is not a valid owner account. (eg. `address(0)`)"
        }
      ],
      "OwnableUnauthorizedAccount(address)": [
        {
          "details": "The caller account is not authorized to perform an operation."
        }
      ]
    },
    "kind": "dev",
    "methods": {
      "owner()": {
        "details": "Returns the address of the current owner."
      },
      "renounceOwnership()": {
        "details": "Leaves the contract without owner. It will not be possible to call `onlyOwner` functions. Can only be called by the current owner. NOTE: Renouncing ownership will leave the contract without an owner, thereby disabling any functionality that is only available to the owner."
      },
      "transferOwnership(address)": {
        "details": "Transfers ownership of the contract to a new account (`newOwner`). Can only be called by the current owner."
      }
    },
    "version": 1
  },
  "userdoc": {
    "kind": "user",
    "methods": {},
    "version": 1
  }
}