{
  "contractName": "DIDRegistry",
  "abi": [
    {
      "inputs": [],
      "stateMutability": "nonpayable",
      "type": "constructor"
    },
    {
      "inputs": [],
      "name": "ECDSAInvalidSignature",
      "type": "error"
    },
    {
      "inputs": [
        {
          "internalType": "uint256",
          "name": "length",
          "type": "uint256"
        }
      ],
      "name": "ECDSAInvalidSignatureLength",
      "type": "error"
    },
    {
      "inputs": [
        {
          "internalType": "bytes32",
          "name": "s",
          "type": "bytes32"
        }
      ],
      "name": "ECDSAInvalidSignatureS",
      "type": "error"
    },
    {
      "inputs": [
        {
          "internalType": "address",
          "name": "owner",
          "type": "address"
        }
      ],
      "name": "OwnableInvalidOwner",
      "type": "error"
    },
    {
      "inputs": [
        {
          "internalType": "address",
          "name": "account",
          "type": "address"
        }
      ],
      "name": "OwnableUnauthorizedAccount",
      "type": "error"
    },
    {
      "anonymous": false,
      "inputs": [
        {
          "indexed": true,
          "internalType": "string",
          "name": "adminDID",
          "type": "string"
        }
      ],
      "name": "AdminDIDSet",
      "type": "event"
    },
    {
      "anonymous": false,
      "inputs": [
        {
          "indexed": true,
          "internalType": "string",
          "name": "didId",
          "type": "string"
        },
        {
          "indexed": true,
          "internalType": "address",
          "name": "controller",
          "type": "address"
        },
        {
          "indexed": false,
          "internalType": "string",
          "name": "publicKey",
          "type": "string"
        }
      ],
      "name": "DIDCreated",
      "type": "event"
    },
    {
      "anonymous": false,
      "inputs": [
        {
          "indexed": true,
          "internalType": "string",
          "name": "didId",
          "type": "string"
        }
      ],
      "name": "DIDDeactivated",
      "type": "event"
    },
    {
      "anonymous": false,
      "inputs": [
        {
          "indexed": true,
          "internalType": "string",
          "name": "didId",
          "type": "string"
        }
      ],
      "name": "DIDUpdated",
      "type": "event"
    },
    {
      "anonymous": false,
      "inputs": [
        {
          "indexed": true,
          "internalType": "address",
          "name": "previousOwner",
          "type": "address"
        },
        {
          "indexed": true,
          "internalType": "address",
          "name": "newOwner",
          "type": "address"
        }
      ],
      "name": "OwnershipTransferred",
      "type": "event"
    },
    {
      "anonymous": false,
      "inputs": [
        {
          "indexed": true,
          "internalType": "string",
          "name": "issuerDID",
          "type": "string"
        }
      ],
      "name": "TrustedIssuerAdded",
      "type": "event"
    },
    {
      "anonymous": false,
      "inputs": [
        {
          "indexed": true,
          "internalType": "string",
          "name": "issuerDID",
          "type": "string"
        }
      ],
      "name": "TrustedIssuerRemoved",
      "type": "event"
    },
    {
      "inputs": [],
      "name": "adminDID",
      "outputs": [
        {
          "internalType": "string",
          "name": "",
          "type": "string"
        }
      ],
      "stateMutability": "view",
      "type": "function",
      "constant": true
    },
    {
      "inputs": [],
      "name": "adminSet",
      "outputs": [
        {
          "internalType": "bool",
          "name": "",
          "type": "bool"
        }
      ],
      "stateMutability": "view",
      "type": "function",
      "constant": true
    },
    {
      "inputs": [
        {
          "internalType": "address",
          "name": "",
          "type": "address"
        },
        {
          "internalType": "uint256",
          "name": "",
          "type": "uint256"
        }
      ],
      "name": "controllerToDIDs",
      "outputs": [
        {
          "internalType": "string",
          "name": "",
          "type": "string"
        }
      ],
      "stateMutability": "view",
      "type": "function",
      "constant": true
    },
    {
      "inputs": [
        {
          "internalType": "string",
          "name": "",
          "type": "string"
        }
      ],
      "name": "didDocuments",
      "outputs": [
        {
          "internalType": "string",
          "name": "id",
          "type": "string"
        },
        {
          "internalType": "address",
          "name": "controller",
          "type": "address"
        },
        {
          "internalType": "string",
          "name": "publicKey",
          "type": "string"
        },
        {
          "internalType": "uint256",
          "name": "created",
          "type": "uint256"
        },
        {
          "internalType": "uint256",
          "name": "updated",
          "type": "uint256"
        },
        {
          "internalType": "bool",
          "name": "isActive",
          "type": "bool"
        },
        {
          "internalType": "bool",
          "name": "isTrustedIssuer",
          "type": "bool"
        }
      ],
      "stateMutability": "view",
      "type": "function",
      "constant": true
    },
    {
      "inputs": [],
      "name": "owner",
      "outputs": [
        {
          "internalType": "address",
          "name": "",
          "type": "address"
        }
      ],
      "stateMutability": "view",
      "type": "function",
      "constant": true
    },
    {
      "inputs": [],
      "name": "renounceOwnership",
      "outputs": [],
      "stateMutability": "nonpayable",
      "type": "function"
    },
    {
      "inputs": [
        {
          "internalType": "address",
          "name": "newOwner",
          "type": "address"
        }
      ],
      "name": "transferOwnership",
      "outputs": [],
      "stateMutability": "nonpayable",
      "type": "function"
    },
    {
      "inputs": [
        {
          "internalType": "string",
          "name": "didId",
          "type": "string"
        },
        {
          "internalType": "string",
          "name": "publicKey",
          "type": "string"
        }
      ],
      "name": "createDID",
      "outputs": [],
      "stateMutability": "nonpayable",
      "type": "function"
    },
    {
      "inputs": [
        {
          "internalType": "string",
          "name": "didId",
          "type": "string"
        },
        {
          "internalType": "string",
          "name": "newPublicKey",
          "type": "string"
        }
      ],
      "name": "updateDID",
      "outputs": [],
      "stateMutability": "nonpayable",
      "type": "function"
    },
    {
      "inputs": [
        {
          "internalType": "string",
          "name": "didId",
          "type": "string"
        }
      ],
      "name": "deactivateDID",
      "outputs": [],
      "stateMutability": "nonpayable",
      "type": "function"
    },
    {
      "inputs": [
        {
          "internalType": "string",
          "name": "issuerDID",
          "type": "string"
        }
      ],
      "name": "addTrustedIssuer",
      "outputs": [],
      "stateMutability": "nonpayable",
      "type": "function"
    },
    {
      "inputs": [
        {
          "internalType": "string",
          "name": "issuerDID",
          "type": "string"
        }
      ],
      "name": "removeTrustedIssuer",
      "outputs": [],
      "stateMutability": "nonpayable",
      "type": "function"
    },
    {
      "inputs": [
        {
          "internalType": "string",
          "name": "didId",
          "type": "string"
        },
        {
          "internalType": "bytes32",
          "name": "messageHash",
          "type": "bytes32"
        },
        {
          "internalType": "bytes",
          "name": "signature",
          "type": "bytes"
        }
      ],
      "name": "verifySignature",
      "outputs": [
        {
          "internalType": "bool",
          "name": "",
          "type": "bool"
        }
      ],
      "stateMutability": "view",
      "type": "function",
      "constant": true
    },
    {
      "inputs": [
        {
          "internalType": "string",
          "name": "didId",
          "type": "string"
        },
        {
          "internalType": "bytes",
          "name": "data",
          "type": "bytes"
        },
        {
          "internalType": "bytes",
          "name": "signature",
          "type": "bytes"
        }
      ],
      "name": "verifyDataSignature",
      "outputs": [
        {
          "internalType": "bool",
          "name": "",
          "type": "bool"
        }
      ],
      "stateMutability": "view",
      "type": "function",
      "constant": true
    },
    {
      "inputs": [
        {
          "internalType": "string",
          "name": "didId",
          "type": "string"
        }
      ],
      "name": "getDIDDocument",
      "outputs": [
        {
          "components": [
            {
              "internalType": "string",
              "name": "id",
              "type": "string"
            },
            {
              "internalType": "address",
              "name": "controller",
              "type": "address"
            },
            {
              "internalType": "string",
              "name": "publicKey",
              "type": "string"
            },
            {
              "internalType": "uint256",
              "name": "created",
              "type": "uint256"
            },
            {
              "internalType": "uint256",
              "name": "updated",
              "type": "uint256"
            },
            {
              "internalType": "bool",
              "name": "isActive",
              "type": "bool"
            },
            {
              "internalType": "bool",
              "name": "isTrustedIssuer",
              "type": "bool"
            }
          ],
          "internalType": "struct DIDRegistry.DIDDocument",
          "name": "",
          "type": "tuple"
        }
      ],
      "stateMutability": "view",
      "type": "function",
      "constant": true
    },
    {
      "inputs": [
        {
          "internalType": "string",
          "name": "didId",
          "type": "string"
        }
      ],
      "name": "isTrustedIssuer",
      "outputs": [
        {
          "internalType": "bool",
          "name": "",
          "type": "bool"
        }
      ],
      "stateMutability": "view",
      "type": "function",
      "constant": true
    },
    {
      "inputs": [
        {
          "internalType": "string",
          "name": "didId",
          "type": "string"
        }
      ],
      "name": "isAdminDID",
      "outputs": [
        {
          "internalType": "bool",
          "name": "",
          "type": "bool"
        }
      ],
      "stateMutability": "view",
      "type": "function",
      "constant": true
    },
    {
      "inputs": [
        {
          "internalType": "address",
          "name": "controller",
          "type": "address"
        }
      ],
      "name": "getDIDsByController",
      "outputs": [
        {
          "internalType": "string[]",
          "name": "",
          "type": "string[]"
        }
      ],
      "stateMutability": "view",
      "type": "function",
      "constant": true
    },
    {
      "inputs": [
        {
          "internalType": "string",
          "name": "didId",
          "type": "string"
        }
      ],
      "name": "isDIDActive",
      "outputs": [
        {
          "internalType": "bool",
          "name": "",
          "type": "bool"
        }
      ],
      "stateMutability": "view",
      "type": "function",
      "constant": true
    }
  ],
  "bytecode": "0x608060405234801561001057600080fd5b5033600073ffffffffffffffffffffffffffffffffffffffff168173ffffffffffffffffffffffffffffffffffffffff16036100845760006040517f1e4fbdf700000000000000000000000000000000000000000000000000000000815260040161007b91906101b9565b60405180910390fd5b610093816100b460201b60201c565b506000600460006101000a81548160ff0219169083151502179055506101d4565b60008060009054906101000a900473ffffffffffffffffffffffffffffffffffffffff169050816000806101000a81548173ffffffffffffffffffffffffffffffffffffffff021916908373ffffffffffffffffffffffffffffffffffffffff1602179055508173ffffffffffffffffffffffffffffffffffffffff168173ffffffffffffffffffffffffffffffffffffffff167f8be0079c531659141344cd1fd0a4f28419497f9722a3daafe3b4186f6b6457e060405160405180910390a35050565b600073ffffffffffffffffffffffffffffffffffffffff82169050919050565b60006101a382610178565b9050919050565b6101b381610198565b82525050565b60006020820190506101ce60008301846101aa565b92915050565b613753806101e36000396000f3fe608060405234801561001057600080fd5b50600436106101215760003560e01c806370d87670116100ad5780638fa62173116100715780638fa62173146103345780639e031f8114610364578063b363cff314610380578063b42a02b5146103b0578063f2fde38b146103cc57610121565b806370d876701461028e578063715018a6146102be578063784afc4e146102c857806380710f20146102f85780638da5cb5b1461031657610121565b80632ae73ee1116100f45780632ae73ee1146101d85780633b253b231461020857806344b0b5d5146102245780635cd49ebb1461025457806364312cd71461027257610121565b80631154e011146101265780631539a5071461015657806320c9d73a1461017257806324c483a5146101a2575b600080fd5b610140600480360381019061013b9190612463565b6103e8565b60405161014d91906124c7565b60405180910390f35b610170600480360381019061016b91906124e2565b610411565b005b61018c60048036038101906101879190612463565b6107dc565b60405161019991906124c7565b60405180910390f35b6101bc60048036038101906101b79190612463565b6108c6565b6040516101cf9796959493929190612633565b60405180910390f35b6101f260048036038101906101ed9190612463565b610a68565b6040516101ff91906124c7565b60405180910390f35b610222600480360381019061021d9190612463565b610ad7565b005b61023e60048036038101906102399190612751565b610d69565b60405161024b91906124c7565b60405180910390f35b61025c610f37565b60405161026991906127f8565b60405180910390f35b61028c60048036038101906102879190612463565b610fc5565b005b6102a860048036038101906102a39190612850565b6112b4565b6040516102b591906124c7565b60405180910390f35b6102c6611475565b005b6102e260048036038101906102dd9190612463565b611489565b6040516102ef91906129f5565b60405180910390f35b610300611737565b60405161030d91906124c7565b60405180910390f35b61031e61174a565b60405161032b9190612a17565b60405180910390f35b61034e60048036038101906103499190612a8a565b611773565b60405161035b91906127f8565b60405180910390f35b61037e60048036038101906103799190612463565b61182c565b005b61039a60048036038101906103959190612aca565b611aad565b6040516103a79190612bb9565b60405180910390f35b6103ca60048036038101906103c591906124e2565b611bc5565b005b6103e660048036038101906103e19190612aca565b611dc3565b005b600060036040516103f99190612cde565b60405180910390208280519060200120149050919050565b6000825111610455576040517f08c379a000000000000000000000000000000000000000000000000000000000815260040161044c90612d41565b60405180910390fd5b6000815111610499576040517f08c379a000000000000000000000000000000000000000000000000000000000815260040161049090612dad565b60405180910390fd5b600073ffffffffffffffffffffffffffffffffffffffff166001836040516104c19190612e09565b908152602001604051809103902060010160009054906101000a900473ffffffffffffffffffffffffffffffffffffffff1673ffffffffffffffffffffffffffffffffffffffff1614610549576040517f08c379a000000000000000000000000000000000000000000000000000000000815260040161054090612e6c565b60405180910390fd5b6040518060e001604052808381526020013373ffffffffffffffffffffffffffffffffffffffff168152602001828152602001428152602001428152602001600115158152602001600015158152506001836040516105a89190612e09565b908152602001604051809103902060008201518160000190816105cb9190613038565b5060208201518160010160006101000a81548173ffffffffffffffffffffffffffffffffffffffff021916908373ffffffffffffffffffffffffffffffffffffffff16021790555060408201518160020190816106289190613038565b50606082015181600301556080820151816004015560a08201518160050160006101000a81548160ff02191690831515021790555060c08201518160050160016101000a81548160ff021916908315150217905550905050600260003373ffffffffffffffffffffffffffffffffffffffff1673ffffffffffffffffffffffffffffffffffffffff168152602001908152602001600020829080600181540180825580915050600190039060005260206000200160009091909190915090816106f19190613038565b50600460009054906101000a900460ff166107745781600390816107159190613038565b506001600460006101000a81548160ff0219169083151502179055508160405161073f9190612e09565b60405180910390207f99fa2459ec4d365b8ea32c99c7a5b785cb3b22136b768fca4bf544a531f3eca360405160405180910390a25b3373ffffffffffffffffffffffffffffffffffffffff16826040516107999190612e09565b60405180910390207f63b814845f107bcec35c851cf55cdd7236e563def52caa46cb6857f52b755cac836040516107d091906127f8565b60405180910390a35050565b600081600073ffffffffffffffffffffffffffffffffffffffff166001826040516108079190612e09565b908152602001604051809103902060010160009054906101000a900473ffffffffffffffffffffffffffffffffffffffff1673ffffffffffffffffffffffffffffffffffffffff160361088f576040517f08c379a000000000000000000000000000000000000000000000000000000000815260040161088690613156565b60405180910390fd5b60018360405161089f9190612e09565b908152602001604051809103902060050160009054906101000a900460ff16915050919050565b6001818051602081018201805184825260208301602085012081835280955050505050506000915090508060000180546108ff90612c0a565b80601f016020809104026020016040519081016040528092919081815260200182805461092b90612c0a565b80156109785780601f1061094d57610100808354040283529160200191610978565b820191906000526020600020905b81548152906001019060200180831161095b57829003601f168201915b5050505050908060010160009054906101000a900473ffffffffffffffffffffffffffffffffffffffff16908060020180546109b390612c0a565b80601f01602080910402602001604051908101604052809291908181526020018280546109df90612c0a565b8015610a2c5780601f10610a0157610100808354040283529160200191610a2c565b820191906000526020600020905b815481529060010190602001808311610a0f57829003601f168201915b5050505050908060030154908060040154908060050160009054906101000a900460ff16908060050160019054906101000a900460ff16905087565b6000600182604051610a7a9190612e09565b908152602001604051809103902060050160019054906101000a900460ff168015610ad05750600182604051610ab09190612e09565b908152602001604051809103902060050160009054906101000a900460ff165b9050919050565b803373ffffffffffffffffffffffffffffffffffffffff16600182604051610aff9190612e09565b908152602001604051809103902060010160009054906101000a900473ffffffffffffffffffffffffffffffffffffffff1673ffffffffffffffffffffffffffffffffffffffff1614610b87576040517f08c379a0000000000000000000000000000000000000000000000000000000008152600401610b7e906131c2565b60405180910390fd5b600181604051610b979190612e09565b908152602001604051809103902060050160009054906101000a900460ff16610bf5576040517f08c379a0000000000000000000000000000000000000000000000000000000008152600401610bec9061322e565b60405180910390fd5b6003604051610c049190612cde565b6040518091039020828051906020012003610c54576040517f08c379a0000000000000000000000000000000000000000000000000000000008152600401610c4b9061329a565b60405180910390fd5b600182604051610c649190612e09565b908152602001604051809103902060050160019054906101000a900460ff1615610cc3576040517f08c379a0000000000000000000000000000000000000000000000000000000008152600401610cba90613306565b60405180910390fd5b6000600183604051610cd59190612e09565b908152602001604051809103902060050160006101000a81548160ff02191690831515021790555042600183604051610d0e9190612e09565b90815260200160405180910390206004018190555081604051610d319190612e09565b60405180910390207f4360f12f602ccecefb32480e5314d0d3f57d38db8f52c76d8fdf4c39596c1c2860405160405180910390a25050565b600083600073ffffffffffffffffffffffffffffffffffffffff16600182604051610d949190612e09565b908152602001604051809103902060010160009054906101000a900473ffffffffffffffffffffffffffffffffffffffff1673ffffffffffffffffffffffffffffffffffffffff1603610e1c576040517f08c379a0000000000000000000000000000000000000000000000000000000008152600401610e1390613156565b60405180910390fd5b600185604051610e2c9190612e09565b908152602001604051809103902060050160009054906101000a900460ff16610e8a576040517f08c379a0000000000000000000000000000000000000000000000000000000008152600401610e819061322e565b60405180910390fd5b6000848051906020012090506000610ea182611e49565b90506000610eb88683611e7f90919063ffffffff16565b9050600188604051610eca9190612e09565b908152602001604051809103902060010160009054906101000a900473ffffffffffffffffffffffffffffffffffffffff1673ffffffffffffffffffffffffffffffffffffffff168173ffffffffffffffffffffffffffffffffffffffff16149450505050509392505050565b60038054610f4490612c0a565b80601f0160208091040260200160405190810160405280929190818152602001828054610f7090612c0a565b8015610fbd5780601f10610f9257610100808354040283529160200191610fbd565b820191906000526020600020905b815481529060010190602001808311610fa057829003601f168201915b505050505081565b600460009054906101000a900460ff16611014576040517f08c379a000000000000000000000000000000000000000000000000000000000815260040161100b90613372565b60405180910390fd5b3373ffffffffffffffffffffffffffffffffffffffff166001600360405161103c9190613415565b908152602001604051809103902060010160009054906101000a900473ffffffffffffffffffffffffffffffffffffffff1673ffffffffffffffffffffffffffffffffffffffff16146110c4576040517f08c379a00000000000000000000000000000000000000000000000000000000081526004016110bb90613478565b60405180910390fd5b600160036040516110d59190613415565b908152602001604051809103902060050160009054906101000a900460ff16611133576040517f08c379a000000000000000000000000000000000000000000000000000000000815260040161112a906134e4565b60405180910390fd5b6001816040516111439190612e09565b908152602001604051809103902060050160009054906101000a900460ff166111a1576040517f08c379a000000000000000000000000000000000000000000000000000000000815260040161119890613550565b60405180910390fd5b6001816040516111b19190612e09565b908152602001604051809103902060050160019054906101000a900460ff1615611210576040517f08c379a0000000000000000000000000000000000000000000000000000000008152600401611207906135bc565b60405180910390fd5b600180826040516112219190612e09565b908152602001604051809103902060050160016101000a81548160ff0219169083151502179055504260018260405161125a9190612e09565b9081526020016040518091039020600401819055508060405161127d9190612e09565b60405180910390207f3fa3ab3bac0cccd0cb57495c0a834d60cfa7421c8150780ec693705cd636516560405160405180910390a250565b600083600073ffffffffffffffffffffffffffffffffffffffff166001826040516112df9190612e09565b908152602001604051809103902060010160009054906101000a900473ffffffffffffffffffffffffffffffffffffffff1673ffffffffffffffffffffffffffffffffffffffff1603611367576040517f08c379a000000000000000000000000000000000000000000000000000000000815260040161135e90613156565b60405180910390fd5b6001856040516113779190612e09565b908152602001604051809103902060050160009054906101000a900460ff166113d5576040517f08c379a00000000000000000000000000000000000000000000000000000000081526004016113cc9061322e565b60405180910390fd5b60006113e085611e49565b905060006113f78583611e7f90919063ffffffff16565b90506001876040516114099190612e09565b908152602001604051809103902060010160009054906101000a900473ffffffffffffffffffffffffffffffffffffffff1673ffffffffffffffffffffffffffffffffffffffff168173ffffffffffffffffffffffffffffffffffffffff161493505050509392505050565b61147d611eab565b6114876000611f32565b565b6114916122b2565b81600073ffffffffffffffffffffffffffffffffffffffff166001826040516114ba9190612e09565b908152602001604051809103902060010160009054906101000a900473ffffffffffffffffffffffffffffffffffffffff1673ffffffffffffffffffffffffffffffffffffffff1603611542576040517f08c379a000000000000000000000000000000000000000000000000000000000815260040161153990613156565b60405180910390fd5b6001836040516115529190612e09565b90815260200160405180910390206040518060e001604052908160008201805461157b90612c0a565b80601f01602080910402602001604051908101604052809291908181526020018280546115a790612c0a565b80156115f45780601f106115c9576101008083540402835291602001916115f4565b820191906000526020600020905b8154815290600101906020018083116115d757829003601f168201915b505050505081526020016001820160009054906101000a900473ffffffffffffffffffffffffffffffffffffffff1673ffffffffffffffffffffffffffffffffffffffff1673ffffffffffffffffffffffffffffffffffffffff16815260200160028201805461166390612c0a565b80601f016020809104026020016040519081016040528092919081815260200182805461168f90612c0a565b80156116dc5780601f106116b1576101008083540402835291602001916116dc565b820191906000526020600020905b8154815290600101906020018083116116bf57829003601f168201915b5050505050815260200160038201548152602001600482015481526020016005820160009054906101000a900460ff161515151581526020016005820160019054906101000a900460ff161515151581525050915050919050565b600460009054906101000a900460ff1681565b60008060009054906101000a900473ffffffffffffffffffffffffffffffffffffffff16905090565b6002602052816000526040600020818154811061178f57600080fd5b906000526020600020016000915091505080546117ab90612c0a565b80601f01602080910402602001604051908101604052809291908181526020018280546117d790612c0a565b80156118245780601f106117f957610100808354040283529160200191611824565b820191906000526020600020905b81548152906001019060200180831161180757829003601f168201915b505050505081565b600460009054906101000a900460ff1661187b576040517f08c379a000000000000000000000000000000000000000000000000000000000815260040161187290613372565b60405180910390fd5b3373ffffffffffffffffffffffffffffffffffffffff16600160036040516118a39190613415565b908152602001604051809103902060010160009054906101000a900473ffffffffffffffffffffffffffffffffffffffff1673ffffffffffffffffffffffffffffffffffffffff161461192b576040517f08c379a000000000000000000000000000000000000000000000000000000000815260040161192290613478565b60405180910390fd5b6001600360405161193c9190613415565b908152602001604051809103902060050160009054906101000a900460ff1661199a576040517f08c379a0000000000000000000000000000000000000000000000000000000008152600401611991906134e4565b60405180910390fd5b6001816040516119aa9190612e09565b908152602001604051809103902060050160019054906101000a900460ff16611a08576040517f08c379a00000000000000000000000000000000000000000000000000000000081526004016119ff90613628565b60405180910390fd5b6000600182604051611a1a9190612e09565b908152602001604051809103902060050160016101000a81548160ff02191690831515021790555042600182604051611a539190612e09565b90815260200160405180910390206004018190555080604051611a769190612e09565b60405180910390207f681faa00c7b37242bbf8b47f00f510cff20f12f295e1e29690b497232596f84a60405160405180910390a250565b6060600260008373ffffffffffffffffffffffffffffffffffffffff1673ffffffffffffffffffffffffffffffffffffffff168152602001908152602001600020805480602002602001604051908101604052809291908181526020016000905b82821015611bba578382906000526020600020018054611b2d90612c0a565b80601f0160208091040260200160405190810160405280929190818152602001828054611b5990612c0a565b8015611ba65780601f10611b7b57610100808354040283529160200191611ba6565b820191906000526020600020905b815481529060010190602001808311611b8957829003601f168201915b505050505081526020019060010190611b0e565b505050509050919050565b813373ffffffffffffffffffffffffffffffffffffffff16600182604051611bed9190612e09565b908152602001604051809103902060010160009054906101000a900473ffffffffffffffffffffffffffffffffffffffff1673ffffffffffffffffffffffffffffffffffffffff1614611c75576040517f08c379a0000000000000000000000000000000000000000000000000000000008152600401611c6c906131c2565b60405180910390fd5b600181604051611c859190612e09565b908152602001604051809103902060050160009054906101000a900460ff16611ce3576040517f08c379a0000000000000000000000000000000000000000000000000000000008152600401611cda9061322e565b60405180910390fd5b6000825111611d27576040517f08c379a0000000000000000000000000000000000000000000000000000000008152600401611d1e90612dad565b60405180910390fd5b81600184604051611d389190612e09565b90815260200160405180910390206002019081611d559190613038565b5042600184604051611d679190612e09565b90815260200160405180910390206004018190555082604051611d8a9190612e09565b60405180910390207f7e7500a71b0209575a3b4858a2a662e94b0cad314ecb249f3526e9b2f86a014660405160405180910390a2505050565b611dcb611eab565b600073ffffffffffffffffffffffffffffffffffffffff168173ffffffffffffffffffffffffffffffffffffffff1603611e3d5760006040517f1e4fbdf7000000000000000000000000000000000000000000000000000000008152600401611e349190612a17565b60405180910390fd5b611e4681611f32565b50565b60007f19457468657265756d205369676e6564204d6573736167653a0a33320000000060005281601c52603c6000209050919050565b600080600080611e8f8686611ff6565b925092509250611e9f8282612052565b82935050505092915050565b611eb36121b6565b73ffffffffffffffffffffffffffffffffffffffff16611ed161174a565b73ffffffffffffffffffffffffffffffffffffffff1614611f3057611ef46121b6565b6040517f118cdaa7000000000000000000000000000000000000000000000000000000008152600401611f279190612a17565b60405180910390fd5b565b60008060009054906101000a900473ffffffffffffffffffffffffffffffffffffffff169050816000806101000a81548173ffffffffffffffffffffffffffffffffffffffff021916908373ffffffffffffffffffffffffffffffffffffffff1602179055508173ffffffffffffffffffffffffffffffffffffffff168173ffffffffffffffffffffffffffffffffffffffff167f8be0079c531659141344cd1fd0a4f28419497f9722a3daafe3b4186f6b6457e060405160405180910390a35050565b6000806000604184510361203b5760008060006020870151925060408701519150606087015160001a905061202d888285856121be565b95509550955050505061204b565b60006002855160001b9250925092505b9250925092565b6000600381111561206657612065613648565b5b82600381111561207957612078613648565b5b03156121b2576001600381111561209357612092613648565b5b8260038111156120a6576120a5613648565b5b036120dd576040517ff645eedf00000000000000000000000000000000000000000000000000000000815260040160405180910390fd5b600260038111156120f1576120f0613648565b5b82600381111561210457612103613648565b5b03612149578060001c6040517ffce698f70000000000000000000000000000000000000000000000000000000081526004016121409190613677565b60405180910390fd5b60038081111561215c5761215b613648565b5b82600381111561216f5761216e613648565b5b036121b157806040517fd78bce0c0000000000000000000000000000000000000000000000000000000081526004016121a891906136a1565b60405180910390fd5b5b5050565b600033905090565b60008060007f7fffffffffffffffffffffffffffffff5d576e7357a4501ddfe92f46681b20a08460001c11156121fe5760006003859250925092506122a8565b60006001888888886040516000815260200160405260405161222394939291906136d8565b6020604051602081039080840390855afa158015612245573d6000803e3d6000fd5b505050602060405103519050600073ffffffffffffffffffffffffffffffffffffffff168173ffffffffffffffffffffffffffffffffffffffff160361229957600060016000801b935093509350506122a8565b8060008060001b935093509350505b9450945094915050565b6040518060e0016040528060608152602001600073ffffffffffffffffffffffffffffffffffffffff1681526020016060815260200160008152602001600081526020016000151581526020016000151581525090565b6000604051905090565b600080fd5b600080fd5b600080fd5b600080fd5b6000601f19601f8301169050919050565b7f4e487b7100000000000000000000000000000000000000000000000000000000600052604160045260246000fd5b61237082612327565b810181811067ffffffffffffffff8211171561238f5761238e612338565b5b80604052505050565b60006123a2612309565b90506123ae8282612367565b919050565b600067ffffffffffffffff8211156123ce576123cd612338565b5b6123d782612327565b9050602081019050919050565b82818337600083830152505050565b6000612406612401846123b3565b612398565b90508281526020810184848401111561242257612421612322565b5b61242d8482856123e4565b509392505050565b600082601f83011261244a5761244961231d565b5b813561245a8482602086016123f3565b91505092915050565b60006020828403121561247957612478612313565b5b600082013567ffffffffffffffff81111561249757612496612318565b5b6124a384828501612435565b91505092915050565b60008115159050919050565b6124c1816124ac565b82525050565b60006020820190506124dc60008301846124b8565b92915050565b600080604083850312156124f9576124f8612313565b5b600083013567ffffffffffffffff81111561251757612516612318565b5b61252385828601612435565b925050602083013567ffffffffffffffff81111561254457612543612318565b5b61255085828601612435565b9150509250929050565b600081519050919050565b600082825260208201905092915050565b60005b83811015612594578082015181840152602081019050612579565b60008484015250505050565b60006125ab8261255a565b6125b58185612565565b93506125c5818560208601612576565b6125ce81612327565b840191505092915050565b600073ffffffffffffffffffffffffffffffffffffffff82169050919050565b6000612604826125d9565b9050919050565b612614816125f9565b82525050565b6000819050919050565b61262d8161261a565b82525050565b600060e082019050818103600083015261264d818a6125a0565b905061265c602083018961260b565b818103604083015261266e81886125a0565b905061267d6060830187612624565b61268a6080830186612624565b61269760a08301856124b8565b6126a460c08301846124b8565b98975050505050505050565b600067ffffffffffffffff8211156126cb576126ca612338565b5b6126d482612327565b9050602081019050919050565b60006126f46126ef846126b0565b612398565b9050828152602081018484840111156127105761270f612322565b5b61271b8482856123e4565b509392505050565b600082601f8301126127385761273761231d565b5b81356127488482602086016126e1565b91505092915050565b60008060006060848603121561276a57612769612313565b5b600084013567ffffffffffffffff81111561278857612787612318565b5b61279486828701612435565b935050602084013567ffffffffffffffff8111156127b5576127b4612318565b5b6127c186828701612723565b925050604084013567ffffffffffffffff8111156127e2576127e1612318565b5b6127ee86828701612723565b9150509250925092565b6000602082019050818103600083015261281281846125a0565b905092915050565b6000819050919050565b61282d8161281a565b811461283857600080fd5b50565b60008135905061284a81612824565b92915050565b60008060006060848603121561286957612868612313565b5b600084013567ffffffffffffffff81111561288757612886612318565b5b61289386828701612435565b93505060206128a48682870161283b565b925050604084013567ffffffffffffffff8111156128c5576128c4612318565b5b6128d186828701612723565b9150509250925092565b600082825260208201905092915050565b60006128f78261255a565b61290181856128db565b9350612911818560208601612576565b61291a81612327565b840191505092915050565b61292e816125f9565b82525050565b61293d8161261a565b82525050565b61294c816124ac565b82525050565b600060e083016000830151848203600086015261296f82826128ec565b91505060208301516129846020860182612925565b506040830151848203604086015261299c82826128ec565b91505060608301516129b16060860182612934565b5060808301516129c46080860182612934565b5060a08301516129d760a0860182612943565b5060c08301516129ea60c0860182612943565b508091505092915050565b60006020820190508181036000830152612a0f8184612952565b905092915050565b6000602082019050612a2c600083018461260b565b92915050565b612a3b816125f9565b8114612a4657600080fd5b50565b600081359050612a5881612a32565b92915050565b612a678161261a565b8114612a7257600080fd5b50565b600081359050612a8481612a5e565b92915050565b60008060408385031215612aa157612aa0612313565b5b6000612aaf85828601612a49565b9250506020612ac085828601612a75565b9150509250929050565b600060208284031215612ae057612adf612313565b5b6000612aee84828501612a49565b91505092915050565b600081519050919050565b600082825260208201905092915050565b6000819050602082019050919050565b6000612b2f83836128ec565b905092915050565b6000602082019050919050565b6000612b4f82612af7565b612b598185612b02565b935083602082028501612b6b85612b13565b8060005b85811015612ba75784840389528151612b888582612b23565b9450612b9383612b37565b925060208a01995050600181019050612b6f565b50829750879550505050505092915050565b60006020820190508181036000830152612bd38184612b44565b905092915050565b7f4e487b7100000000000000000000000000000000000000000000000000000000600052602260045260246000fd5b60006002820490506001821680612c2257607f821691505b602082108103612c3557612c34612bdb565b5b50919050565b600081905092915050565b60008190508160005260206000209050919050565b60008154612c6881612c0a565b612c728186612c3b565b94506001821660008114612c8d5760018114612ca257612cd5565b60ff1983168652811515820286019350612cd5565b612cab85612c46565b60005b83811015612ccd57815481890152600182019150602081019050612cae565b838801955050505b50505092915050565b6000612cea8284612c5b565b915081905092915050565b7f4449442049442063616e6e6f7420626520656d70747900000000000000000000600082015250565b6000612d2b601683612565565b9150612d3682612cf5565b602082019050919050565b60006020820190508181036000830152612d5a81612d1e565b9050919050565b7f5075626c6963206b65792063616e6e6f7420626520656d707479000000000000600082015250565b6000612d97601a83612565565b9150612da282612d61565b602082019050919050565b60006020820190508181036000830152612dc681612d8a565b9050919050565b600081905092915050565b6000612de38261255a565b612ded8185612dcd565b9350612dfd818560208601612576565b80840191505092915050565b6000612e158284612dd8565b915081905092915050565b7f44494420616c7265616479206578697374730000000000000000000000000000600082015250565b6000612e56601283612565565b9150612e6182612e20565b602082019050919050565b60006020820190508181036000830152612e8581612e49565b9050919050565b60008190508160005260206000209050919050565b60006020601f8301049050919050565b600082821b905092915050565b600060088302612eee7fffffffffffffffffffffffffffffffffffffffffffffffffffffffffffffffff82612eb1565b612ef88683612eb1565b95508019841693508086168417925050509392505050565b6000819050919050565b6000612f35612f30612f2b8461261a565b612f10565b61261a565b9050919050565b6000819050919050565b612f4f83612f1a565b612f63612f5b82612f3c565b848454612ebe565b825550505050565b600090565b612f78612f6b565b612f83818484612f46565b505050565b5b81811015612fa757612f9c600082612f70565b600181019050612f89565b5050565b601f821115612fec57612fbd81612e8c565b612fc684612ea1565b81016020851015612fd5578190505b612fe9612fe185612ea1565b830182612f88565b50505b505050565b600082821c905092915050565b600061300f60001984600802612ff1565b1980831691505092915050565b60006130288383612ffe565b9150826002028217905092915050565b6130418261255a565b67ffffffffffffffff81111561305a57613059612338565b5b6130648254612c0a565b61306f828285612fab565b600060209050601f8311600181146130a25760008415613090578287015190505b61309a858261301c565b865550613102565b601f1984166130b086612e8c565b60005b828110156130d8578489015182556001820191506020850194506020810190506130b3565b868310156130f557848901516130f1601f891682612ffe565b8355505b6001600288020188555050505b505050505050565b7f44494420646f6573206e6f742065786973740000000000000000000000000000600082015250565b6000613140601283612565565b915061314b8261310a565b602082019050919050565b6000602082019050818103600083015261316f81613133565b9050919050565b7f4e6f742044494420636f6e74726f6c6c65720000000000000000000000000000600082015250565b60006131ac601283612565565b91506131b782613176565b602082019050919050565b600060208201905081810360008301526131db8161319f565b9050919050565b7f444944206e6f7420616374697665000000000000000000000000000000000000600082015250565b6000613218600e83612565565b9150613223826131e2565b602082019050919050565b600060208201905081810360008301526132478161320b565b9050919050565b7f43616e6e6f7420646561637469766174652061646d696e204449440000000000600082015250565b6000613284601b83612565565b915061328f8261324e565b602082019050919050565b600060208201905081810360008301526132b381613277565b9050919050565b7f43616e6e6f742064656163746976617465207472757374656420697373756572600082015250565b60006132f0602083612565565b91506132fb826132ba565b602082019050919050565b6000602082019050818103600083015261331f816132e3565b9050919050565b7f41646d696e20444944206e6f7420736574000000000000000000000000000000600082015250565b600061335c601183612565565b915061336782613326565b602082019050919050565b6000602082019050818103600083015261338b8161334f565b9050919050565b6000815461339f81612c0a565b6133a98186612dcd565b945060018216600081146133c457600181146133d95761340c565b60ff198316865281151582028601935061340c565b6133e285612e8c565b60005b83811015613404578154818901526001820191506020810190506133e5565b838801955050505b50505092915050565b60006134218284613392565b915081905092915050565b7f4e6f742061646d696e0000000000000000000000000000000000000000000000600082015250565b6000613462600983612565565b915061346d8261342c565b602082019050919050565b6000602082019050818103600083015261349181613455565b9050919050565b7f41646d696e20444944206e6f7420616374697665000000000000000000000000600082015250565b60006134ce601483612565565b91506134d982613498565b602082019050919050565b600060208201905081810360008301526134fd816134c1565b9050919050565b7f49737375657220444944206e6f74206163746976650000000000000000000000600082015250565b600061353a601583612565565b915061354582613504565b602082019050919050565b600060208201905081810360008301526135698161352d565b9050919050565b7f49737375657220616c7265616479207472757374656400000000000000000000600082015250565b60006135a6601683612565565b91506135b182613570565b602082019050919050565b600060208201905081810360008301526135d581613599565b9050919050565b7f497373756572206e6f7420747275737465640000000000000000000000000000600082015250565b6000613612601283612565565b915061361d826135dc565b602082019050919050565b6000602082019050818103600083015261364181613605565b9050919050565b7f4e487b7100000000000000000000000000000000000000000000000000000000600052602160045260246000fd5b600060208201905061368c6000830184612624565b92915050565b61369b8161281a565b82525050565b60006020820190506136b66000830184613692565b92915050565b600060ff82169050919050565b6136d2816136bc565b82525050565b60006080820190506136ed6000830187613692565b6136fa60208301866136c9565b6137076040830185613692565b6137146060830184613692565b9594505050505056fea26469706673582212202c4ac6547fef9791ba2ceb3797fdf0268d682c8f913e4a3ec5fbba7addba744064736f6c634300081a0033",
  "immutableReferences": {},
  "source": "// SPDX-License-Identifier: MIT\npragma solidity ^0.8.19;\n\nimport \"@openzeppelin/contracts/utils/cryptography/ECDSA.sol\";\nimport \"@openzeppelin/contracts/utils/cryptography/MessageHashUtils.sol\";\nimport \"@openzeppelin/contracts/access/Ownable.sol\";\n\ncontract DIDRegistry is Ownable {\n    using ECDSA for bytes32;\n    using MessageHashUtils for bytes32;\n\n    struct DIDDocument {\n        string id;\n        address controller;\n        string publicKey;\n        uint256 created;\n        uint256 updated;\n        bool isActive;\n        bool isTrustedIssuer;\n    }\n\n    mapping(string => DIDDocument) public didDocuments;\n    mapping(address => string[]) public controllerToDIDs;\n    string public adminDID;\n    bool public adminSet;\n\n    event DIDCreated(string indexed didId, address indexed controller, string publicKey);\n    event DIDUpdated(string indexed didId);\n    event DIDDeactivated(string indexed didId);\n    event TrustedIssuerAdded(string indexed issuerDID);\n    event TrustedIssuerRemoved(string indexed issuerDID);\n    event AdminDIDSet(string indexed adminDID);\n\n    constructor() Ownable(msg.sender) {\n        adminSet = false;\n    }\n\n    modifier onlyDIDController(string memory didId) {\n        require(didDocuments[didId].controller == msg.sender, \"Not DID controller\");\n        require(didDocuments[didId].isActive, \"DID not active\");\n        _;\n    }\n\n    modifier onlyAdmin() {\n        require(adminSet, \"Admin DID not set\");\n        require(didDocuments[adminDID].controller == msg.sender, \"Not admin\");\n        require(didDocuments[adminDID].isActive, \"Admin DID not active\");\n        _;\n    }\n\n    modifier didExists(string memory didId) {\n        require(didDocuments[didId].controller != address(0), \"DID does not exist\");\n        _;\n    }\n\n    function createDID(string memory didId, string memory publicKey) external {\n        require(bytes(didId).length > 0, \"DID ID cannot be empty\");\n        require(bytes(publicKey).length > 0, \"Public key cannot be empty\");\n        require(didDocuments[didId].controller == address(0), \"DID already exists\");\n\n        didDocuments[didId] = DIDDocument({\n            id: didId,\n            controller: msg.sender,\n            publicKey: publicKey,\n            created: block.timestamp,\n            updated: block.timestamp,\n            isActive: true,\n            isTrustedIssuer: false\n        });\n\n        controllerToDIDs[msg.sender].push(didId);\n\n        // Set first DID as admin\n        if (!adminSet) {\n            adminDID = didId;\n            adminSet = true;\n            emit AdminDIDSet(didId);\n        }\n\n        emit DIDCreated(didId, msg.sender, publicKey);\n    }\n\n    function updateDID(string memory didId, string memory newPublicKey) external onlyDIDController(didId) {\n        require(bytes(newPublicKey).length > 0, \"Public key cannot be empty\");\n        \n        didDocuments[didId].publicKey = newPublicKey;\n        didDocuments[didId].updated = block.timestamp;\n        \n        emit DIDUpdated(didId);\n    }\n\n    function deactivateDID(string memory didId) external onlyDIDController(didId) {\n        // Prevent deactivation of admin DID\n        require(keccak256(bytes(didId)) != keccak256(bytes(adminDID)), \"Cannot deactivate admin DID\");\n        \n        // Prevent deactivation of trusted issuers\n        require(!didDocuments[didId].isTrustedIssuer, \"Cannot deactivate trusted issuer\");\n        \n        didDocuments[didId].isActive = false;\n        didDocuments[didId].updated = block.timestamp;\n        emit DIDDeactivated(didId);\n    }\n\n    function addTrustedIssuer(string memory issuerDID) external onlyAdmin {\n        require(didDocuments[issuerDID].isActive, \"Issuer DID not active\");\n        require(!didDocuments[issuerDID].isTrustedIssuer, \"Issuer already trusted\");\n        \n        didDocuments[issuerDID].isTrustedIssuer = true;\n        didDocuments[issuerDID].updated = block.timestamp;\n        \n        emit TrustedIssuerAdded(issuerDID);\n    }\n\n    function removeTrustedIssuer(string memory issuerDID) external onlyAdmin {\n        require(didDocuments[issuerDID].isTrustedIssuer, \"Issuer not trusted\");\n        \n        didDocuments[issuerDID].isTrustedIssuer = false;\n        didDocuments[issuerDID].updated = block.timestamp;\n        \n        emit TrustedIssuerRemoved(issuerDID);\n    }\n\n    function verifySignature(string memory didId, bytes32 messageHash, bytes memory signature\n    ) external view didExists(didId) returns (bool) {\n        require(didDocuments[didId].isActive, \"DID not active\");\n\n        bytes32 ethSignedMessageHash = messageHash.toEthSignedMessageHash();\n        address recoveredSigner = ethSignedMessageHash.recover(signature);\n        return recoveredSigner == didDocuments[didId].controller;\n    }\n\n    function verifyDataSignature(string memory didId, bytes memory data, bytes memory signature\n    ) external view didExists(didId) returns (bool) {\n        require(didDocuments[didId].isActive, \"DID not active\");\n        \n        bytes32 dataHash = keccak256(data);\n        bytes32 ethSignedMessageHash = dataHash.toEthSignedMessageHash();\n\n        address recoveredSigner = ethSignedMessageHash.recover(signature);\n        return recoveredSigner == didDocuments[didId].controller;\n    }\n\n    function getDIDDocument(string memory didId) external view didExists(didId) returns (DIDDocument memory) {\n        return didDocuments[didId];\n    }\n\n    function isTrustedIssuer(string memory didId) external view returns (bool) {\n        return didDocuments[didId].isTrustedIssuer && didDocuments[didId].isActive;\n    }\n\n    function isAdminDID(string memory didId) external view returns (bool) {\n        return keccak256(bytes(didId)) == keccak256(bytes(adminDID));\n    }\n\n    function getDIDsByController(address controller) external view returns (string[] memory) {\n        return controllerToDIDs[controller];\n    }\n\n    function isDIDActive(string memory didId) external view didExists(didId) returns (bool) {\n        return didDocuments[didId].isActive;\n    }\n\n    \n}\n",
  "sourcePath": "/Users/raphaelabderrahmani/Desktop/Blockchain/Code/DID-project/contracts/DIDRegistry.sol",
  "compiler": {
    "name": "solc",
    "version": "0.8.26+commit.8a97fa7a.Emscripten.clang"
  },
  "schemaVersion": "3.4.16",
  "updatedAt": "2025-08-06T02:43:13.965Z",
  "networkType": "ethereum",
  "devdoc": {
    "errors": {
      "ECDSAInvalidSignature()": [
        {
          "details": "The signature derives the `address(0)`."
        }
      ],
      "ECDSAInvalidSignatureLength(uint256)": [
        {
          "details": "The signature has an invalid length."
        }
      ],
      "ECDSAInvalidSignatureS(bytes32)": [
        {
          "details": "The signature has an S value that is in the upper half order."
        }
      ],
      "OwnableInvalidOwner(address)": [
        {
          "details": "The owner is not a valid owner account. (eg. `address(0)`)"
        }
      ],
      "OwnableUnauthorizedAccount(address)": [
        {
          "details": "The caller account is not authorized to perform an operation."
        }
      ]
    },
    "kind": "dev",
    "methods": {
      "owner()": {
        "details": "Returns the address of the current owner."
      },
      "renounceOwnership()": {
        "details": "Leaves the contract without owner. It will not be possible to call `onlyOwner` functions. Can only be called by the current owner. NOTE: Renouncing ownership will leave the contract without an owner, thereby disabling any functionality that is only available to the owner."
      },
      "transferOwnership(address)": {
        "details": "Transfers ownership of the contract to a new account (`newOwner`). Can only be called by the current owner."
      }
    },
    "version": 1
  },
  "userdoc": {
    "kind": "user",
    "methods": {},
    "version": 1
  }
}