{
  "contractName": "DIDRegistry",
  "abi": [
    {
      "inputs": [],
      "stateMutability": "nonpayable",
      "type": "constructor"
    },
    {
      "inputs": [],
      "name": "ECDSAInvalidSignature",
      "type": "error"
    },
    {
      "inputs": [
        {
          "internalType": "uint256",
          "name": "length",
          "type": "uint256"
        }
      ],
      "name": "ECDSAInvalidSignatureLength",
      "type": "error"
    },
    {
      "inputs": [
        {
          "internalType": "bytes32",
          "name": "s",
          "type": "bytes32"
        }
      ],
      "name": "ECDSAInvalidSignatureS",
      "type": "error"
    },
    {
      "anonymous": false,
      "inputs": [
        {
          "indexed": true,
          "internalType": "string",
          "name": "didId",
          "type": "string"
        },
        {
          "indexed": true,
          "internalType": "address",
          "name": "owner",
          "type": "address"
        },
        {
          "indexed": false,
          "internalType": "string",
          "name": "publicKey",
          "type": "string"
        }
      ],
      "name": "DIDCreated",
      "type": "event"
    },
    {
      "anonymous": false,
      "inputs": [
        {
          "indexed": true,
          "internalType": "string",
          "name": "didId",
          "type": "string"
        }
      ],
      "name": "DIDDeactivated",
      "type": "event"
    },
    {
      "anonymous": false,
      "inputs": [
        {
          "indexed": true,
          "internalType": "string",
          "name": "issuerDID",
          "type": "string"
        }
      ],
      "name": "TrustedIssuerAdded",
      "type": "event"
    },
    {
      "anonymous": false,
      "inputs": [
        {
          "indexed": true,
          "internalType": "string",
          "name": "issuerDID",
          "type": "string"
        }
      ],
      "name": "TrustedIssuerRemoved",
      "type": "event"
    },
    {
      "inputs": [],
      "name": "contractOwner",
      "outputs": [
        {
          "internalType": "address",
          "name": "",
          "type": "address"
        }
      ],
      "stateMutability": "view",
      "type": "function"
    },
    {
      "inputs": [
        {
          "internalType": "string",
          "name": "",
          "type": "string"
        }
      ],
      "name": "dids",
      "outputs": [
        {
          "internalType": "address",
          "name": "owner",
          "type": "address"
        },
        {
          "internalType": "string",
          "name": "publicKey",
          "type": "string"
        },
        {
          "internalType": "uint256",
          "name": "created",
          "type": "uint256"
        },
        {
          "internalType": "bool",
          "name": "isActive",
          "type": "bool"
        }
      ],
      "stateMutability": "view",
      "type": "function"
    },
    {
      "inputs": [
        {
          "internalType": "address",
          "name": "",
          "type": "address"
        }
      ],
      "name": "ownerToDID",
      "outputs": [
        {
          "internalType": "string",
          "name": "",
          "type": "string"
        }
      ],
      "stateMutability": "view",
      "type": "function"
    },
    {
      "inputs": [
        {
          "internalType": "string",
          "name": "",
          "type": "string"
        }
      ],
      "name": "trustedIssuers",
      "outputs": [
        {
          "internalType": "bool",
          "name": "",
          "type": "bool"
        }
      ],
      "stateMutability": "view",
      "type": "function"
    },
    {
      "inputs": [
        {
          "internalType": "string",
          "name": "didId",
          "type": "string"
        },
        {
          "internalType": "string",
          "name": "publicKey",
          "type": "string"
        }
      ],
      "name": "createDID",
      "outputs": [],
      "stateMutability": "nonpayable",
      "type": "function"
    },
    {
      "inputs": [
        {
          "internalType": "string",
          "name": "didId",
          "type": "string"
        }
      ],
      "name": "deactivateDID",
      "outputs": [],
      "stateMutability": "nonpayable",
      "type": "function"
    },
    {
      "inputs": [
        {
          "internalType": "string",
          "name": "issuerDID",
          "type": "string"
        }
      ],
      "name": "addTrustedIssuer",
      "outputs": [],
      "stateMutability": "nonpayable",
      "type": "function"
    },
    {
      "inputs": [
        {
          "internalType": "string",
          "name": "issuerDID",
          "type": "string"
        }
      ],
      "name": "removeTrustedIssuer",
      "outputs": [],
      "stateMutability": "nonpayable",
      "type": "function"
    },
    {
      "inputs": [
        {
          "internalType": "string",
          "name": "didId",
          "type": "string"
        },
        {
          "internalType": "bytes32",
          "name": "messageHash",
          "type": "bytes32"
        },
        {
          "internalType": "bytes",
          "name": "signature",
          "type": "bytes"
        }
      ],
      "name": "verifySignature",
      "outputs": [
        {
          "internalType": "bool",
          "name": "isValid",
          "type": "bool"
        }
      ],
      "stateMutability": "view",
      "type": "function"
    },
    {
      "inputs": [
        {
          "internalType": "string",
          "name": "didId",
          "type": "string"
        },
        {
          "internalType": "bytes",
          "name": "data",
          "type": "bytes"
        },
        {
          "internalType": "bytes",
          "name": "signature",
          "type": "bytes"
        }
      ],
      "name": "verifyDataSignature",
      "outputs": [
        {
          "internalType": "bool",
          "name": "isValid",
          "type": "bool"
        }
      ],
      "stateMutability": "view",
      "type": "function"
    },
    {
      "inputs": [
        {
          "internalType": "string",
          "name": "didId",
          "type": "string"
        }
      ],
      "name": "getDID",
      "outputs": [
        {
          "components": [
            {
              "internalType": "address",
              "name": "owner",
              "type": "address"
            },
            {
              "internalType": "string",
              "name": "publicKey",
              "type": "string"
            },
            {
              "internalType": "uint256",
              "name": "created",
              "type": "uint256"
            },
            {
              "internalType": "bool",
              "name": "isActive",
              "type": "bool"
            }
          ],
          "internalType": "struct DIDRegistry.DID",
          "name": "",
          "type": "tuple"
        }
      ],
      "stateMutability": "view",
      "type": "function"
    },
    {
      "inputs": [
        {
          "internalType": "string",
          "name": "didId",
          "type": "string"
        }
      ],
      "name": "isTrustedIssuer",
      "outputs": [
        {
          "internalType": "bool",
          "name": "isTrusted",
          "type": "bool"
        }
      ],
      "stateMutability": "view",
      "type": "function"
    },
    {
      "inputs": [
        {
          "internalType": "address",
          "name": "owner",
          "type": "address"
        }
      ],
      "name": "getDIDByOwner",
      "outputs": [
        {
          "internalType": "string",
          "name": "didId",
          "type": "string"
        }
      ],
      "stateMutability": "view",
      "type": "function"
    }
  ],
  "bytecode": "0x6080604052348015600f57600080fd5b5033600360006101000a81548173ffffffffffffffffffffffffffffffffffffffff021916908373ffffffffffffffffffffffffffffffffffffffff1602179055506123e6806100606000396000f3fe608060405234801561001057600080fd5b50600436106100ce5760003560e01c806370d876701161008c578063ce606ee011610066578063ce606ee014610233578063d0e3752c14610251578063e078389814610281578063f44ab516146102b1576100ce565b806370d87670146101b75780638efbfa52146101e75780639e031f8114610217576100ce565b806262d1ac146100d35780631539a507146101035780632ae73ee11461011f5780633b253b231461014f57806344b0b5d51461016b57806364312cd71461019b575b600080fd5b6100ed60048036038101906100e8919061153f565b6102e4565b6040516100fa91906115fc565b60405180910390f35b61011d60048036038101906101189190611753565b6103b5565b005b610139600480360381019061013491906117cb565b610712565b604051610146919061182f565b60405180910390f35b610169600480360381019061016491906117cb565b61077e565b005b610185600480360381019061018091906118eb565b61091b565b604051610192919061182f565b60405180910390f35b6101b560048036038101906101b091906117cb565b610a36565b005b6101d160048036038101906101cc91906119c8565b610c1c565b6040516101de919061182f565b60405180910390f35b61020160048036038101906101fc91906117cb565b610d2a565b60405161020e919061182f565b60405180910390f35b610231600480360381019061022c91906117cb565b610d60565b005b61023b610e6c565b6040516102489190611a62565b60405180910390f35b61026b6004803603810190610266919061153f565b610e92565b60405161027891906115fc565b60405180910390f35b61029b600480360381019061029691906117cb565b610f32565b6040516102a89190611b61565b60405180910390f35b6102cb60048036038101906102c691906117cb565b61107c565b6040516102db9493929190611b92565b60405180910390f35b6060600160008373ffffffffffffffffffffffffffffffffffffffff1673ffffffffffffffffffffffffffffffffffffffff168152602001908152602001600020805461033090611c0d565b80601f016020809104026020016040519081016040528092919081815260200182805461035c90611c0d565b80156103a95780601f1061037e576101008083540402835291602001916103a9565b820191906000526020600020905b81548152906001019060200180831161038c57829003601f168201915b50505050509050919050565b60008251116103f9576040517f08c379a00000000000000000000000000000000000000000000000000000000081526004016103f090611c8a565b60405180910390fd5b600081511161043d576040517f08c379a000000000000000000000000000000000000000000000000000000000815260040161043490611cf6565b60405180910390fd5b600073ffffffffffffffffffffffffffffffffffffffff166000836040516104659190611d52565b908152602001604051809103902060000160009054906101000a900473ffffffffffffffffffffffffffffffffffffffff1673ffffffffffffffffffffffffffffffffffffffff16146104ed576040517f08c379a00000000000000000000000000000000000000000000000000000000081526004016104e490611db5565b60405180910390fd5b6000600160003373ffffffffffffffffffffffffffffffffffffffff1673ffffffffffffffffffffffffffffffffffffffff168152602001908152602001600020805461053990611c0d565b90501461057b576040517f08c379a000000000000000000000000000000000000000000000000000000000815260040161057290611e21565b60405180910390fd5b60405180608001604052803373ffffffffffffffffffffffffffffffffffffffff168152602001828152602001428152602001600115158152506000836040516105c59190611d52565b908152602001604051809103902060008201518160000160006101000a81548173ffffffffffffffffffffffffffffffffffffffff021916908373ffffffffffffffffffffffffffffffffffffffff160217905550602082015181600101908161062f9190611fed565b506040820151816002015560608201518160030160006101000a81548160ff02191690831515021790555090505081600160003373ffffffffffffffffffffffffffffffffffffffff1673ffffffffffffffffffffffffffffffffffffffff16815260200190815260200160002090816106a99190611fed565b503373ffffffffffffffffffffffffffffffffffffffff16826040516106cf9190611d52565b60405180910390207f63b814845f107bcec35c851cf55cdd7236e563def52caa46cb6857f52b755cac8360405161070691906115fc565b60405180910390a35050565b60006002826040516107249190611d52565b908152602001604051809103902060009054906101000a900460ff16801561077757506000826040516107579190611d52565b908152602001604051809103902060030160009054906101000a900460ff165b9050919050565b803373ffffffffffffffffffffffffffffffffffffffff166000826040516107a69190611d52565b908152602001604051809103902060000160009054906101000a900473ffffffffffffffffffffffffffffffffffffffff1673ffffffffffffffffffffffffffffffffffffffff161461082e576040517f08c379a00000000000000000000000000000000000000000000000000000000081526004016108259061210b565b60405180910390fd5b60008160405161083e9190611d52565b908152602001604051809103902060030160009054906101000a900460ff1661089c576040517f08c379a000000000000000000000000000000000000000000000000000000000815260040161089390612177565b60405180910390fd5b600080836040516108ad9190611d52565b908152602001604051809103902060030160006101000a81548160ff021916908315150217905550816040516108e39190611d52565b60405180910390207f4360f12f602ccecefb32480e5314d0d3f57d38db8f52c76d8fdf4c39596c1c2860405160405180910390a25050565b6000808460405161092c9190611d52565b908152602001604051809103902060030160009054906101000a900460ff1661098a576040517f08c379a000000000000000000000000000000000000000000000000000000000815260040161098190612177565b60405180910390fd5b60008380519060200120905060006109a182611177565b905060006109b885836111ad90919063ffffffff16565b90506000876040516109ca9190611d52565b908152602001604051809103902060000160009054906101000a900473ffffffffffffffffffffffffffffffffffffffff1673ffffffffffffffffffffffffffffffffffffffff168173ffffffffffffffffffffffffffffffffffffffff161493505050509392505050565b600360009054906101000a900473ffffffffffffffffffffffffffffffffffffffff1673ffffffffffffffffffffffffffffffffffffffff163373ffffffffffffffffffffffffffffffffffffffff1614610ac6576040517f08c379a0000000000000000000000000000000000000000000000000000000008152600401610abd906121e3565b60405180910390fd5b600081604051610ad69190611d52565b908152602001604051809103902060030160009054906101000a900460ff16610b34576040517f08c379a0000000000000000000000000000000000000000000000000000000008152600401610b2b9061224f565b60405180910390fd5b600281604051610b449190611d52565b908152602001604051809103902060009054906101000a900460ff1615610ba0576040517f08c379a0000000000000000000000000000000000000000000000000000000008152600401610b97906122bb565b60405180910390fd5b6001600282604051610bb29190611d52565b908152602001604051809103902060006101000a81548160ff02191690831515021790555080604051610be59190611d52565b60405180910390207f3fa3ab3bac0cccd0cb57495c0a834d60cfa7421c8150780ec693705cd636516560405160405180910390a250565b60008084604051610c2d9190611d52565b908152602001604051809103902060030160009054906101000a900460ff16610c8b576040517f08c379a0000000000000000000000000000000000000000000000000000000008152600401610c8290612177565b60405180910390fd5b6000610c9684611177565b90506000610cad84836111ad90919063ffffffff16565b9050600086604051610cbf9190611d52565b908152602001604051809103902060000160009054906101000a900473ffffffffffffffffffffffffffffffffffffffff1673ffffffffffffffffffffffffffffffffffffffff168173ffffffffffffffffffffffffffffffffffffffff1614925050509392505050565b6002818051602081018201805184825260208301602085012081835280955050505050506000915054906101000a900460ff1681565b600360009054906101000a900473ffffffffffffffffffffffffffffffffffffffff1673ffffffffffffffffffffffffffffffffffffffff163373ffffffffffffffffffffffffffffffffffffffff1614610df0576040517f08c379a0000000000000000000000000000000000000000000000000000000008152600401610de7906121e3565b60405180910390fd5b6000600282604051610e029190611d52565b908152602001604051809103902060006101000a81548160ff02191690831515021790555080604051610e359190611d52565b60405180910390207f681faa00c7b37242bbf8b47f00f510cff20f12f295e1e29690b497232596f84a60405160405180910390a250565b600360009054906101000a900473ffffffffffffffffffffffffffffffffffffffff1681565b60016020528060005260406000206000915090508054610eb190611c0d565b80601f0160208091040260200160405190810160405280929190818152602001828054610edd90611c0d565b8015610f2a5780601f10610eff57610100808354040283529160200191610f2a565b820191906000526020600020905b815481529060010190602001808311610f0d57829003601f168201915b505050505081565b610f3a61148d565b60008083604051610f4b9190611d52565b90815260200160405180910390209050806040518060800160405290816000820160009054906101000a900473ffffffffffffffffffffffffffffffffffffffff1673ffffffffffffffffffffffffffffffffffffffff1673ffffffffffffffffffffffffffffffffffffffff168152602001600182018054610fcd90611c0d565b80601f0160208091040260200160405190810160405280929190818152602001828054610ff990611c0d565b80156110465780601f1061101b57610100808354040283529160200191611046565b820191906000526020600020905b81548152906001019060200180831161102957829003601f168201915b50505050508152602001600282015481526020016003820160009054906101000a900460ff161515151581525050915050919050565b6000818051602081018201805184825260208301602085012081835280955050505050506000915090508060000160009054906101000a900473ffffffffffffffffffffffffffffffffffffffff16908060010180546110db90611c0d565b80601f016020809104026020016040519081016040528092919081815260200182805461110790611c0d565b80156111545780601f1061112957610100808354040283529160200191611154565b820191906000526020600020905b81548152906001019060200180831161113757829003601f168201915b5050505050908060020154908060030160009054906101000a900460ff16905084565b60007f19457468657265756d205369676e6564204d6573736167653a0a33320000000060005281601c52603c6000209050919050565b6000806000806111bd86866111d9565b9250925092506111cd8282611235565b82935050505092915050565b6000806000604184510361121e5760008060006020870151925060408701519150606087015160001a905061121088828585611399565b95509550955050505061122e565b60006002855160001b9250925092505b9250925092565b60006003811115611249576112486122db565b5b82600381111561125c5761125b6122db565b5b03156113955760016003811115611276576112756122db565b5b826003811115611289576112886122db565b5b036112c0576040517ff645eedf00000000000000000000000000000000000000000000000000000000815260040160405180910390fd5b600260038111156112d4576112d36122db565b5b8260038111156112e7576112e66122db565b5b0361132c578060001c6040517ffce698f7000000000000000000000000000000000000000000000000000000008152600401611323919061230a565b60405180910390fd5b60038081111561133f5761133e6122db565b5b826003811115611352576113516122db565b5b0361139457806040517fd78bce0c00000000000000000000000000000000000000000000000000000000815260040161138b9190612334565b60405180910390fd5b5b5050565b60008060007f7fffffffffffffffffffffffffffffff5d576e7357a4501ddfe92f46681b20a08460001c11156113d9576000600385925092509250611483565b6000600188888888604051600081526020016040526040516113fe949392919061236b565b6020604051602081039080840390855afa158015611420573d6000803e3d6000fd5b505050602060405103519050600073ffffffffffffffffffffffffffffffffffffffff168173ffffffffffffffffffffffffffffffffffffffff160361147457600060016000801b93509350935050611483565b8060008060001b935093509350505b9450945094915050565b6040518060800160405280600073ffffffffffffffffffffffffffffffffffffffff16815260200160608152602001600081526020016000151581525090565b6000604051905090565b600080fd5b600080fd5b600073ffffffffffffffffffffffffffffffffffffffff82169050919050565b600061150c826114e1565b9050919050565b61151c81611501565b811461152757600080fd5b50565b60008135905061153981611513565b92915050565b600060208284031215611555576115546114d7565b5b60006115638482850161152a565b91505092915050565b600081519050919050565b600082825260208201905092915050565b60005b838110156115a657808201518184015260208101905061158b565b60008484015250505050565b6000601f19601f8301169050919050565b60006115ce8261156c565b6115d88185611577565b93506115e8818560208601611588565b6115f1816115b2565b840191505092915050565b6000602082019050818103600083015261161681846115c3565b905092915050565b600080fd5b600080fd5b7f4e487b7100000000000000000000000000000000000000000000000000000000600052604160045260246000fd5b611660826115b2565b810181811067ffffffffffffffff8211171561167f5761167e611628565b5b80604052505050565b60006116926114cd565b905061169e8282611657565b919050565b600067ffffffffffffffff8211156116be576116bd611628565b5b6116c7826115b2565b9050602081019050919050565b82818337600083830152505050565b60006116f66116f1846116a3565b611688565b90508281526020810184848401111561171257611711611623565b5b61171d8482856116d4565b509392505050565b600082601f83011261173a5761173961161e565b5b813561174a8482602086016116e3565b91505092915050565b6000806040838503121561176a576117696114d7565b5b600083013567ffffffffffffffff811115611788576117876114dc565b5b61179485828601611725565b925050602083013567ffffffffffffffff8111156117b5576117b46114dc565b5b6117c185828601611725565b9150509250929050565b6000602082840312156117e1576117e06114d7565b5b600082013567ffffffffffffffff8111156117ff576117fe6114dc565b5b61180b84828501611725565b91505092915050565b60008115159050919050565b61182981611814565b82525050565b60006020820190506118446000830184611820565b92915050565b600067ffffffffffffffff82111561186557611864611628565b5b61186e826115b2565b9050602081019050919050565b600061188e6118898461184a565b611688565b9050828152602081018484840111156118aa576118a9611623565b5b6118b58482856116d4565b509392505050565b600082601f8301126118d2576118d161161e565b5b81356118e284826020860161187b565b91505092915050565b600080600060608486031215611904576119036114d7565b5b600084013567ffffffffffffffff811115611922576119216114dc565b5b61192e86828701611725565b935050602084013567ffffffffffffffff81111561194f5761194e6114dc565b5b61195b868287016118bd565b925050604084013567ffffffffffffffff81111561197c5761197b6114dc565b5b611988868287016118bd565b9150509250925092565b6000819050919050565b6119a581611992565b81146119b057600080fd5b50565b6000813590506119c28161199c565b92915050565b6000806000606084860312156119e1576119e06114d7565b5b600084013567ffffffffffffffff8111156119ff576119fe6114dc565b5b611a0b86828701611725565b9350506020611a1c868287016119b3565b925050604084013567ffffffffffffffff811115611a3d57611a3c6114dc565b5b611a49868287016118bd565b9150509250925092565b611a5c81611501565b82525050565b6000602082019050611a776000830184611a53565b92915050565b611a8681611501565b82525050565b600082825260208201905092915050565b6000611aa88261156c565b611ab28185611a8c565b9350611ac2818560208601611588565b611acb816115b2565b840191505092915050565b6000819050919050565b611ae981611ad6565b82525050565b611af881611814565b82525050565b6000608083016000830151611b166000860182611a7d565b5060208301518482036020860152611b2e8282611a9d565b9150506040830151611b436040860182611ae0565b506060830151611b566060860182611aef565b508091505092915050565b60006020820190508181036000830152611b7b8184611afe565b905092915050565b611b8c81611ad6565b82525050565b6000608082019050611ba76000830187611a53565b8181036020830152611bb981866115c3565b9050611bc86040830185611b83565b611bd56060830184611820565b95945050505050565b7f4e487b7100000000000000000000000000000000000000000000000000000000600052602260045260246000fd5b60006002820490506001821680611c2557607f821691505b602082108103611c3857611c37611bde565b5b50919050565b7f4449442049442063616e6e6f7420626520656d70747900000000000000000000600082015250565b6000611c74601683611577565b9150611c7f82611c3e565b602082019050919050565b60006020820190508181036000830152611ca381611c67565b9050919050565b7f5075626c6963206b65792063616e6e6f7420626520656d707479000000000000600082015250565b6000611ce0601a83611577565b9150611ceb82611caa565b602082019050919050565b60006020820190508181036000830152611d0f81611cd3565b9050919050565b600081905092915050565b6000611d2c8261156c565b611d368185611d16565b9350611d46818560208601611588565b80840191505092915050565b6000611d5e8284611d21565b915081905092915050565b7f44494420616c7265616479206578697374730000000000000000000000000000600082015250565b6000611d9f601283611577565b9150611daa82611d69565b602082019050919050565b60006020820190508181036000830152611dce81611d92565b9050919050565b7f4164647265737320616c7265616479206f776e73206120444944000000000000600082015250565b6000611e0b601a83611577565b9150611e1682611dd5565b602082019050919050565b60006020820190508181036000830152611e3a81611dfe565b9050919050565b60008190508160005260206000209050919050565b60006020601f8301049050919050565b600082821b905092915050565b600060088302611ea37fffffffffffffffffffffffffffffffffffffffffffffffffffffffffffffffff82611e66565b611ead8683611e66565b95508019841693508086168417925050509392505050565b6000819050919050565b6000611eea611ee5611ee084611ad6565b611ec5565b611ad6565b9050919050565b6000819050919050565b611f0483611ecf565b611f18611f1082611ef1565b848454611e73565b825550505050565b600090565b611f2d611f20565b611f38818484611efb565b505050565b5b81811015611f5c57611f51600082611f25565b600181019050611f3e565b5050565b601f821115611fa157611f7281611e41565b611f7b84611e56565b81016020851015611f8a578190505b611f9e611f9685611e56565b830182611f3d565b50505b505050565b600082821c905092915050565b6000611fc460001984600802611fa6565b1980831691505092915050565b6000611fdd8383611fb3565b9150826002028217905092915050565b611ff68261156c565b67ffffffffffffffff81111561200f5761200e611628565b5b6120198254611c0d565b612024828285611f60565b600060209050601f8311600181146120575760008415612045578287015190505b61204f8582611fd1565b8655506120b7565b601f19841661206586611e41565b60005b8281101561208d57848901518255600182019150602085019450602081019050612068565b868310156120aa57848901516120a6601f891682611fb3565b8355505b6001600288020188555050505b505050505050565b7f4e6f7420444944206f776e657200000000000000000000000000000000000000600082015250565b60006120f5600d83611577565b9150612100826120bf565b602082019050919050565b60006020820190508181036000830152612124816120e8565b9050919050565b7f444944206e6f7420616374697665000000000000000000000000000000000000600082015250565b6000612161600e83611577565b915061216c8261212b565b602082019050919050565b6000602082019050818103600083015261219081612154565b9050919050565b7f4e6f7420636f6e7472616374206f776e65720000000000000000000000000000600082015250565b60006121cd601283611577565b91506121d882612197565b602082019050919050565b600060208201905081810360008301526121fc816121c0565b9050919050565b7f49737375657220444944206e6f74206163746976650000000000000000000000600082015250565b6000612239601583611577565b915061224482612203565b602082019050919050565b600060208201905081810360008301526122688161222c565b9050919050565b7f49737375657220616c7265616479207472757374656400000000000000000000600082015250565b60006122a5601683611577565b91506122b08261226f565b602082019050919050565b600060208201905081810360008301526122d481612298565b9050919050565b7f4e487b7100000000000000000000000000000000000000000000000000000000600052602160045260246000fd5b600060208201905061231f6000830184611b83565b92915050565b61232e81611992565b82525050565b60006020820190506123496000830184612325565b92915050565b600060ff82169050919050565b6123658161234f565b82525050565b60006080820190506123806000830187612325565b61238d602083018661235c565b61239a6040830185612325565b6123a76060830184612325565b9594505050505056fea2646970667358221220e020b7b8b4cf588708e6f24272dee847f08f50281aeeaacb5908df00320f0dcd64736f6c634300081a0033",
  "immutableReferences": {},
  "source": "// SPDX-License-Identifier: MIT\npragma solidity ^0.8.19;\n\nimport \"@openzeppelin/contracts/utils/cryptography/ECDSA.sol\";\nimport \"@openzeppelin/contracts/utils/cryptography/MessageHashUtils.sol\";\n\n\ncontract DIDRegistry {\n    using ECDSA for bytes32;\n    using MessageHashUtils for bytes32;\n\n    struct DID {\n        address owner;\n        string publicKey;\n        uint256 created;\n        bool isActive;\n    }\n\n    mapping(string => DID) public dids;\n    mapping(address => string) public ownerToDID;\n    mapping(string => bool) public trustedIssuers;\n\n    event DIDCreated(\n        string indexed didId,\n        address indexed owner,\n        string publicKey\n    );\n    event DIDDeactivated(string indexed didId);\n    event TrustedIssuerAdded(string indexed issuerDID);\n    event TrustedIssuerRemoved(string indexed issuerDID);\n\n    address public contractOwner;\n\n    constructor() {\n        contractOwner = msg.sender;\n    }\n\n    modifier onlyDIDOwner(string memory didId) {\n        require(dids[didId].owner == msg.sender, \"Not DID owner\");\n        require(dids[didId].isActive, \"DID not active\");\n        _;\n    }\n\n    modifier onlyContractOwner() {\n        require(msg.sender == contractOwner, \"Not contract owner\");\n        _;\n    }\n\n    modifier didExists(string memory didId) {\n        require(dids[didId].owner != address(0), \"DID does not exist\");\n        _;\n    }\n\n    function createDID(string memory didId, string memory publicKey) external {\n        require(bytes(didId).length > 0, \"DID ID cannot be empty\");\n        require(bytes(publicKey).length > 0, \"Public key cannot be empty\");\n        require(dids[didId].owner == address(0), \"DID already exists\");\n        require(bytes(ownerToDID[msg.sender]).length == 0, \"Address already owns a DID\");\n\n        dids[didId] = DID({\n            owner: msg.sender,\n            publicKey: publicKey,\n            created: block.timestamp,\n            isActive: true\n        });\n        ownerToDID[msg.sender] = didId;\n\n        emit DIDCreated(didId, msg.sender, publicKey);\n    }\n\n    function deactivateDID(string memory didId) external onlyDIDOwner(didId) {\n        dids[didId].isActive = false;\n        emit DIDDeactivated(didId);\n    }\n\n    function addTrustedIssuer(string memory issuerDID) external onlyContractOwner {\n        require(dids[issuerDID].isActive, \"Issuer DID not active\");\n        require(!trustedIssuers[issuerDID], \"Issuer already trusted\");\n        trustedIssuers[issuerDID] = true;\n        emit TrustedIssuerAdded(issuerDID);\n    }\n\n    function removeTrustedIssuer(string memory issuerDID) external onlyContractOwner {\n        trustedIssuers[issuerDID] = false;\n        emit TrustedIssuerRemoved(issuerDID);\n    }\n\n    function verifySignature(string memory didId, bytes32 messageHash, bytes memory signature\n    ) external view returns (bool isValid) {\n        require(dids[didId].isActive, \"DID not active\");\n\n        bytes32 ethSignedMessagaHash = messageHash.toEthSignedMessageHash();\n        address recoverdSigner = ethSignedMessagaHash.recover(signature);\n        return recoverdSigner == dids[didId].owner;\n    }\n\n    function verifyDataSignature(string memory didId, bytes memory data, bytes memory signature\n    ) external view returns (bool isValid) {\n        require(dids[didId].isActive, \"DID not active\");\n        \n        bytes32 dataHash = keccak256(data);\n        bytes32 ethSignedMessageHash = dataHash.toEthSignedMessageHash();\n\n        address recoveredSigner = ethSignedMessageHash.recover(signature);\n        return recoveredSigner == dids[didId].owner;\n    }\n\n    function getDID (string memory didId) external view returns (DID memory) {\n    DID storage did = dids[didId];\n    return (did);\n    }\n\n    function isTrustedIssuer(string memory didId) external view returns (bool isTrusted) {\n    return trustedIssuers[didId] && dids[didId].isActive;\n    }\n\n    function getDIDByOwner(address owner) external view returns (string memory didId) {\n        return ownerToDID[owner];\n    }\n\n    \n}\n",
  "sourcePath": "/Users/raphaelabderrahmani/Desktop/Blockchain/Code/DID-project/contracts/DIDRegistry.sol",
  "compiler": {
    "name": "solc",
    "version": "0.8.26+commit.8a97fa7a.Emscripten.clang"
  },
  "schemaVersion": "3.4.16",
  "updatedAt": "2025-07-20T19:18:49.311Z",
  "devdoc": {
    "errors": {
      "ECDSAInvalidSignature()": [
        {
          "details": "The signature derives the `address(0)`."
        }
      ],
      "ECDSAInvalidSignatureLength(uint256)": [
        {
          "details": "The signature has an invalid length."
        }
      ],
      "ECDSAInvalidSignatureS(bytes32)": [
        {
          "details": "The signature has an S value that is in the upper half order."
        }
      ]
    },
    "kind": "dev",
    "methods": {},
    "version": 1
  },
  "userdoc": {
    "kind": "user",
    "methods": {},
    "version": 1
  }
}