{
  "contractName": "DIDRegistry",
  "abi": [
    {
      "inputs": [],
      "stateMutability": "nonpayable",
      "type": "constructor"
    },
    {
      "inputs": [],
      "name": "ECDSAInvalidSignature",
      "type": "error"
    },
    {
      "inputs": [
        {
          "internalType": "uint256",
          "name": "length",
          "type": "uint256"
        }
      ],
      "name": "ECDSAInvalidSignatureLength",
      "type": "error"
    },
    {
      "inputs": [
        {
          "internalType": "bytes32",
          "name": "s",
          "type": "bytes32"
        }
      ],
      "name": "ECDSAInvalidSignatureS",
      "type": "error"
    },
    {
      "inputs": [
        {
          "internalType": "address",
          "name": "owner",
          "type": "address"
        }
      ],
      "name": "OwnableInvalidOwner",
      "type": "error"
    },
    {
      "inputs": [
        {
          "internalType": "address",
          "name": "account",
          "type": "address"
        }
      ],
      "name": "OwnableUnauthorizedAccount",
      "type": "error"
    },
    {
      "anonymous": false,
      "inputs": [
        {
          "indexed": true,
          "internalType": "string",
          "name": "didId",
          "type": "string"
        },
        {
          "indexed": true,
          "internalType": "address",
          "name": "controller",
          "type": "address"
        },
        {
          "indexed": false,
          "internalType": "string",
          "name": "publicKey",
          "type": "string"
        }
      ],
      "name": "DIDCreated",
      "type": "event"
    },
    {
      "anonymous": false,
      "inputs": [
        {
          "indexed": true,
          "internalType": "string",
          "name": "didId",
          "type": "string"
        }
      ],
      "name": "DIDDeactivated",
      "type": "event"
    },
    {
      "anonymous": false,
      "inputs": [
        {
          "indexed": true,
          "internalType": "string",
          "name": "didId",
          "type": "string"
        }
      ],
      "name": "DIDUpdated",
      "type": "event"
    },
    {
      "anonymous": false,
      "inputs": [
        {
          "indexed": true,
          "internalType": "address",
          "name": "previousOwner",
          "type": "address"
        },
        {
          "indexed": true,
          "internalType": "address",
          "name": "newOwner",
          "type": "address"
        }
      ],
      "name": "OwnershipTransferred",
      "type": "event"
    },
    {
      "anonymous": false,
      "inputs": [
        {
          "indexed": true,
          "internalType": "string",
          "name": "issuerDID",
          "type": "string"
        }
      ],
      "name": "TrustedIssuerAdded",
      "type": "event"
    },
    {
      "anonymous": false,
      "inputs": [
        {
          "indexed": true,
          "internalType": "string",
          "name": "issuerDID",
          "type": "string"
        }
      ],
      "name": "TrustedIssuerRemoved",
      "type": "event"
    },
    {
      "inputs": [
        {
          "internalType": "address",
          "name": "",
          "type": "address"
        },
        {
          "internalType": "uint256",
          "name": "",
          "type": "uint256"
        }
      ],
      "name": "controllerToDIDs",
      "outputs": [
        {
          "internalType": "string",
          "name": "",
          "type": "string"
        }
      ],
      "stateMutability": "view",
      "type": "function",
      "constant": true
    },
    {
      "inputs": [
        {
          "internalType": "string",
          "name": "",
          "type": "string"
        }
      ],
      "name": "didDocuments",
      "outputs": [
        {
          "internalType": "string",
          "name": "id",
          "type": "string"
        },
        {
          "internalType": "address",
          "name": "controller",
          "type": "address"
        },
        {
          "internalType": "string",
          "name": "publicKey",
          "type": "string"
        },
        {
          "internalType": "uint256",
          "name": "created",
          "type": "uint256"
        },
        {
          "internalType": "uint256",
          "name": "updated",
          "type": "uint256"
        },
        {
          "internalType": "bool",
          "name": "isActive",
          "type": "bool"
        }
      ],
      "stateMutability": "view",
      "type": "function",
      "constant": true
    },
    {
      "inputs": [],
      "name": "owner",
      "outputs": [
        {
          "internalType": "address",
          "name": "",
          "type": "address"
        }
      ],
      "stateMutability": "view",
      "type": "function",
      "constant": true
    },
    {
      "inputs": [],
      "name": "renounceOwnership",
      "outputs": [],
      "stateMutability": "nonpayable",
      "type": "function"
    },
    {
      "inputs": [
        {
          "internalType": "address",
          "name": "newOwner",
          "type": "address"
        }
      ],
      "name": "transferOwnership",
      "outputs": [],
      "stateMutability": "nonpayable",
      "type": "function"
    },
    {
      "inputs": [
        {
          "internalType": "string",
          "name": "",
          "type": "string"
        }
      ],
      "name": "trustedIssuers",
      "outputs": [
        {
          "internalType": "bool",
          "name": "",
          "type": "bool"
        }
      ],
      "stateMutability": "view",
      "type": "function",
      "constant": true
    },
    {
      "inputs": [
        {
          "internalType": "string",
          "name": "didId",
          "type": "string"
        },
        {
          "internalType": "string",
          "name": "publicKey",
          "type": "string"
        }
      ],
      "name": "createDID",
      "outputs": [],
      "stateMutability": "nonpayable",
      "type": "function"
    },
    {
      "inputs": [
        {
          "internalType": "string",
          "name": "didId",
          "type": "string"
        },
        {
          "internalType": "string",
          "name": "newPublicKey",
          "type": "string"
        }
      ],
      "name": "updateDID",
      "outputs": [],
      "stateMutability": "nonpayable",
      "type": "function"
    },
    {
      "inputs": [
        {
          "internalType": "string",
          "name": "didId",
          "type": "string"
        }
      ],
      "name": "deactivateDID",
      "outputs": [],
      "stateMutability": "nonpayable",
      "type": "function"
    },
    {
      "inputs": [
        {
          "internalType": "string",
          "name": "issuerDID",
          "type": "string"
        }
      ],
      "name": "addTrustedIssuer",
      "outputs": [],
      "stateMutability": "nonpayable",
      "type": "function"
    },
    {
      "inputs": [
        {
          "internalType": "string",
          "name": "issuerDID",
          "type": "string"
        }
      ],
      "name": "removeTrustedIssuer",
      "outputs": [],
      "stateMutability": "nonpayable",
      "type": "function"
    },
    {
      "inputs": [
        {
          "internalType": "string",
          "name": "didId",
          "type": "string"
        },
        {
          "internalType": "bytes32",
          "name": "messageHash",
          "type": "bytes32"
        },
        {
          "internalType": "bytes",
          "name": "signature",
          "type": "bytes"
        }
      ],
      "name": "verifySignature",
      "outputs": [
        {
          "internalType": "bool",
          "name": "",
          "type": "bool"
        }
      ],
      "stateMutability": "view",
      "type": "function",
      "constant": true
    },
    {
      "inputs": [
        {
          "internalType": "string",
          "name": "didId",
          "type": "string"
        },
        {
          "internalType": "bytes",
          "name": "data",
          "type": "bytes"
        },
        {
          "internalType": "bytes",
          "name": "signature",
          "type": "bytes"
        }
      ],
      "name": "verifyDataSignature",
      "outputs": [
        {
          "internalType": "bool",
          "name": "",
          "type": "bool"
        }
      ],
      "stateMutability": "view",
      "type": "function",
      "constant": true
    },
    {
      "inputs": [
        {
          "internalType": "string",
          "name": "didId",
          "type": "string"
        }
      ],
      "name": "getDIDDocument",
      "outputs": [
        {
          "components": [
            {
              "internalType": "string",
              "name": "id",
              "type": "string"
            },
            {
              "internalType": "address",
              "name": "controller",
              "type": "address"
            },
            {
              "internalType": "string",
              "name": "publicKey",
              "type": "string"
            },
            {
              "internalType": "uint256",
              "name": "created",
              "type": "uint256"
            },
            {
              "internalType": "uint256",
              "name": "updated",
              "type": "uint256"
            },
            {
              "internalType": "bool",
              "name": "isActive",
              "type": "bool"
            }
          ],
          "internalType": "struct DIDRegistry.DIDDocument",
          "name": "",
          "type": "tuple"
        }
      ],
      "stateMutability": "view",
      "type": "function",
      "constant": true
    },
    {
      "inputs": [
        {
          "internalType": "string",
          "name": "didId",
          "type": "string"
        }
      ],
      "name": "isTrustedIssuer",
      "outputs": [
        {
          "internalType": "bool",
          "name": "",
          "type": "bool"
        }
      ],
      "stateMutability": "view",
      "type": "function",
      "constant": true
    },
    {
      "inputs": [
        {
          "internalType": "address",
          "name": "controller",
          "type": "address"
        }
      ],
      "name": "getDIDsByController",
      "outputs": [
        {
          "internalType": "string[]",
          "name": "",
          "type": "string[]"
        }
      ],
      "stateMutability": "view",
      "type": "function",
      "constant": true
    },
    {
      "inputs": [
        {
          "internalType": "string",
          "name": "didId",
          "type": "string"
        }
      ],
      "name": "isDIDActive",
      "outputs": [
        {
          "internalType": "bool",
          "name": "",
          "type": "bool"
        }
      ],
      "stateMutability": "view",
      "type": "function",
      "constant": true
    }
  ],
  "bytecode": "0x608060405234801561001057600080fd5b5033600073ffffffffffffffffffffffffffffffffffffffff168173ffffffffffffffffffffffffffffffffffffffff16036100845760006040517f1e4fbdf700000000000000000000000000000000000000000000000000000000815260040161007b919061019e565b60405180910390fd5b6100938161009960201b60201c565b506101b9565b60008060009054906101000a900473ffffffffffffffffffffffffffffffffffffffff169050816000806101000a81548173ffffffffffffffffffffffffffffffffffffffff021916908373ffffffffffffffffffffffffffffffffffffffff1602179055508173ffffffffffffffffffffffffffffffffffffffff168173ffffffffffffffffffffffffffffffffffffffff167f8be0079c531659141344cd1fd0a4f28419497f9722a3daafe3b4186f6b6457e060405160405180910390a35050565b600073ffffffffffffffffffffffffffffffffffffffff82169050919050565b60006101888261015d565b9050919050565b6101988161017d565b82525050565b60006020820190506101b3600083018461018f565b92915050565b612d2e806101c86000396000f3fe608060405234801561001057600080fd5b506004361061010b5760003560e01c8063715018a6116100a25780638fa62173116100715780638fa62173146102e15780639e031f8114610311578063b363cff31461032d578063b42a02b51461035d578063f2fde38b146103795761010b565b8063715018a614610259578063784afc4e146102635780638da5cb5b146102935780638efbfa52146102b15761010b565b80633b253b23116100de5780633b253b23146101c157806344b0b5d5146101dd57806364312cd71461020d57806370d87670146102295761010b565b80631539a5071461011057806320c9d73a1461012c57806324c483a51461015c5780632ae73ee114610191575b600080fd5b61012a60048036038101906101259190611e3b565b610395565b005b61014660048036038101906101419190611eb3565b6106b5565b6040516101539190611f17565b60405180910390f35b61017660048036038101906101719190611eb3565b61079f565b6040516101889695949392919061200b565b60405180910390f35b6101ab60048036038101906101a69190611eb3565b61092e565b6040516101b89190611f17565b60405180910390f35b6101db60048036038101906101d69190611eb3565b61099a565b005b6101f760048036038101906101f2919061211b565b610b5e565b6040516102049190611f17565b60405180910390f35b61022760048036038101906102229190611eb3565b610d2c565b005b610243600480360381019061023e91906121f8565b610e8a565b6040516102509190611f17565b60405180910390f35b61026161104b565b005b61027d60048036038101906102789190611eb3565b61105f565b60405161028a919061238a565b60405180910390f35b61029b6112f2565b6040516102a891906123ac565b60405180910390f35b6102cb60048036038101906102c69190611eb3565b61131b565b6040516102d89190611f17565b60405180910390f35b6102fb60048036038101906102f6919061241f565b611351565b604051610308919061245f565b60405180910390f35b61032b60048036038101906103269190611eb3565b61140a565b005b61034760048036038101906103429190612481565b61148e565b6040516103549190612570565b60405180910390f35b61037760048036038101906103729190611e3b565b6115a6565b005b610393600480360381019061038e9190612481565b6117a4565b005b60008251116103d9576040517f08c379a00000000000000000000000000000000000000000000000000000000081526004016103d0906125de565b60405180910390fd5b600081511161041d576040517f08c379a00000000000000000000000000000000000000000000000000000000081526004016104149061264a565b60405180910390fd5b600073ffffffffffffffffffffffffffffffffffffffff1660018360405161044591906126a6565b908152602001604051809103902060010160009054906101000a900473ffffffffffffffffffffffffffffffffffffffff1673ffffffffffffffffffffffffffffffffffffffff16146104cd576040517f08c379a00000000000000000000000000000000000000000000000000000000081526004016104c490612709565b60405180910390fd5b6040518060c001604052808381526020013373ffffffffffffffffffffffffffffffffffffffff1681526020018281526020014281526020014281526020016001151581525060018360405161052391906126a6565b908152602001604051809103902060008201518160000190816105469190612935565b5060208201518160010160006101000a81548173ffffffffffffffffffffffffffffffffffffffff021916908373ffffffffffffffffffffffffffffffffffffffff16021790555060408201518160020190816105a39190612935565b50606082015181600301556080820151816004015560a08201518160050160006101000a81548160ff021916908315150217905550905050600260003373ffffffffffffffffffffffffffffffffffffffff1673ffffffffffffffffffffffffffffffffffffffff1681526020019081526020016000208290806001815401808255809150506001900390600052602060002001600090919091909150908161064c9190612935565b503373ffffffffffffffffffffffffffffffffffffffff168260405161067291906126a6565b60405180910390207f63b814845f107bcec35c851cf55cdd7236e563def52caa46cb6857f52b755cac836040516106a9919061245f565b60405180910390a35050565b600081600073ffffffffffffffffffffffffffffffffffffffff166001826040516106e091906126a6565b908152602001604051809103902060010160009054906101000a900473ffffffffffffffffffffffffffffffffffffffff1673ffffffffffffffffffffffffffffffffffffffff1603610768576040517f08c379a000000000000000000000000000000000000000000000000000000000815260040161075f90612a53565b60405180910390fd5b60018360405161077891906126a6565b908152602001604051809103902060050160009054906101000a900460ff16915050919050565b6001818051602081018201805184825260208301602085012081835280955050505050506000915090508060000180546107d890612758565b80601f016020809104026020016040519081016040528092919081815260200182805461080490612758565b80156108515780601f1061082657610100808354040283529160200191610851565b820191906000526020600020905b81548152906001019060200180831161083457829003601f168201915b5050505050908060010160009054906101000a900473ffffffffffffffffffffffffffffffffffffffff169080600201805461088c90612758565b80601f01602080910402602001604051908101604052809291908181526020018280546108b890612758565b80156109055780601f106108da57610100808354040283529160200191610905565b820191906000526020600020905b8154815290600101906020018083116108e857829003601f168201915b5050505050908060030154908060040154908060050160009054906101000a900460ff16905086565b600060038260405161094091906126a6565b908152602001604051809103902060009054906101000a900460ff168015610993575060018260405161097391906126a6565b908152602001604051809103902060050160009054906101000a900460ff165b9050919050565b803373ffffffffffffffffffffffffffffffffffffffff166001826040516109c291906126a6565b908152602001604051809103902060010160009054906101000a900473ffffffffffffffffffffffffffffffffffffffff1673ffffffffffffffffffffffffffffffffffffffff1614610a4a576040517f08c379a0000000000000000000000000000000000000000000000000000000008152600401610a4190612abf565b60405180910390fd5b600181604051610a5a91906126a6565b908152602001604051809103902060050160009054906101000a900460ff16610ab8576040517f08c379a0000000000000000000000000000000000000000000000000000000008152600401610aaf90612b2b565b60405180910390fd5b6000600183604051610aca91906126a6565b908152602001604051809103902060050160006101000a81548160ff02191690831515021790555042600183604051610b0391906126a6565b90815260200160405180910390206004018190555081604051610b2691906126a6565b60405180910390207f4360f12f602ccecefb32480e5314d0d3f57d38db8f52c76d8fdf4c39596c1c2860405160405180910390a25050565b600083600073ffffffffffffffffffffffffffffffffffffffff16600182604051610b8991906126a6565b908152602001604051809103902060010160009054906101000a900473ffffffffffffffffffffffffffffffffffffffff1673ffffffffffffffffffffffffffffffffffffffff1603610c11576040517f08c379a0000000000000000000000000000000000000000000000000000000008152600401610c0890612a53565b60405180910390fd5b600185604051610c2191906126a6565b908152602001604051809103902060050160009054906101000a900460ff16610c7f576040517f08c379a0000000000000000000000000000000000000000000000000000000008152600401610c7690612b2b565b60405180910390fd5b6000848051906020012090506000610c968261182a565b90506000610cad868361186090919063ffffffff16565b9050600188604051610cbf91906126a6565b908152602001604051809103902060010160009054906101000a900473ffffffffffffffffffffffffffffffffffffffff1673ffffffffffffffffffffffffffffffffffffffff168173ffffffffffffffffffffffffffffffffffffffff16149450505050509392505050565b610d3461188c565b600181604051610d4491906126a6565b908152602001604051809103902060050160009054906101000a900460ff16610da2576040517f08c379a0000000000000000000000000000000000000000000000000000000008152600401610d9990612b97565b60405180910390fd5b600381604051610db291906126a6565b908152602001604051809103902060009054906101000a900460ff1615610e0e576040517f08c379a0000000000000000000000000000000000000000000000000000000008152600401610e0590612c03565b60405180910390fd5b6001600382604051610e2091906126a6565b908152602001604051809103902060006101000a81548160ff02191690831515021790555080604051610e5391906126a6565b60405180910390207f3fa3ab3bac0cccd0cb57495c0a834d60cfa7421c8150780ec693705cd636516560405160405180910390a250565b600083600073ffffffffffffffffffffffffffffffffffffffff16600182604051610eb591906126a6565b908152602001604051809103902060010160009054906101000a900473ffffffffffffffffffffffffffffffffffffffff1673ffffffffffffffffffffffffffffffffffffffff1603610f3d576040517f08c379a0000000000000000000000000000000000000000000000000000000008152600401610f3490612a53565b60405180910390fd5b600185604051610f4d91906126a6565b908152602001604051809103902060050160009054906101000a900460ff16610fab576040517f08c379a0000000000000000000000000000000000000000000000000000000008152600401610fa290612b2b565b60405180910390fd5b6000610fb68561182a565b90506000610fcd858361186090919063ffffffff16565b9050600187604051610fdf91906126a6565b908152602001604051809103902060010160009054906101000a900473ffffffffffffffffffffffffffffffffffffffff1673ffffffffffffffffffffffffffffffffffffffff168173ffffffffffffffffffffffffffffffffffffffff161493505050509392505050565b61105361188c565b61105d6000611913565b565b611067611c93565b81600073ffffffffffffffffffffffffffffffffffffffff1660018260405161109091906126a6565b908152602001604051809103902060010160009054906101000a900473ffffffffffffffffffffffffffffffffffffffff1673ffffffffffffffffffffffffffffffffffffffff1603611118576040517f08c379a000000000000000000000000000000000000000000000000000000000815260040161110f90612a53565b60405180910390fd5b60018360405161112891906126a6565b90815260200160405180910390206040518060c001604052908160008201805461115190612758565b80601f016020809104026020016040519081016040528092919081815260200182805461117d90612758565b80156111ca5780601f1061119f576101008083540402835291602001916111ca565b820191906000526020600020905b8154815290600101906020018083116111ad57829003601f168201915b505050505081526020016001820160009054906101000a900473ffffffffffffffffffffffffffffffffffffffff1673ffffffffffffffffffffffffffffffffffffffff1673ffffffffffffffffffffffffffffffffffffffff16815260200160028201805461123990612758565b80601f016020809104026020016040519081016040528092919081815260200182805461126590612758565b80156112b25780601f10611287576101008083540402835291602001916112b2565b820191906000526020600020905b81548152906001019060200180831161129557829003601f168201915b5050505050815260200160038201548152602001600482015481526020016005820160009054906101000a900460ff161515151581525050915050919050565b60008060009054906101000a900473ffffffffffffffffffffffffffffffffffffffff16905090565b6003818051602081018201805184825260208301602085012081835280955050505050506000915054906101000a900460ff1681565b6002602052816000526040600020818154811061136d57600080fd5b9060005260206000200160009150915050805461138990612758565b80601f01602080910402602001604051908101604052809291908181526020018280546113b590612758565b80156114025780601f106113d757610100808354040283529160200191611402565b820191906000526020600020905b8154815290600101906020018083116113e557829003601f168201915b505050505081565b61141261188c565b600060038260405161142491906126a6565b908152602001604051809103902060006101000a81548160ff0219169083151502179055508060405161145791906126a6565b60405180910390207f681faa00c7b37242bbf8b47f00f510cff20f12f295e1e29690b497232596f84a60405160405180910390a250565b6060600260008373ffffffffffffffffffffffffffffffffffffffff1673ffffffffffffffffffffffffffffffffffffffff168152602001908152602001600020805480602002602001604051908101604052809291908181526020016000905b8282101561159b57838290600052602060002001805461150e90612758565b80601f016020809104026020016040519081016040528092919081815260200182805461153a90612758565b80156115875780601f1061155c57610100808354040283529160200191611587565b820191906000526020600020905b81548152906001019060200180831161156a57829003601f168201915b5050505050815260200190600101906114ef565b505050509050919050565b813373ffffffffffffffffffffffffffffffffffffffff166001826040516115ce91906126a6565b908152602001604051809103902060010160009054906101000a900473ffffffffffffffffffffffffffffffffffffffff1673ffffffffffffffffffffffffffffffffffffffff1614611656576040517f08c379a000000000000000000000000000000000000000000000000000000000815260040161164d90612abf565b60405180910390fd5b60018160405161166691906126a6565b908152602001604051809103902060050160009054906101000a900460ff166116c4576040517f08c379a00000000000000000000000000000000000000000000000000000000081526004016116bb90612b2b565b60405180910390fd5b6000825111611708576040517f08c379a00000000000000000000000000000000000000000000000000000000081526004016116ff9061264a565b60405180910390fd5b8160018460405161171991906126a6565b908152602001604051809103902060020190816117369190612935565b504260018460405161174891906126a6565b9081526020016040518091039020600401819055508260405161176b91906126a6565b60405180910390207f7e7500a71b0209575a3b4858a2a662e94b0cad314ecb249f3526e9b2f86a014660405160405180910390a2505050565b6117ac61188c565b600073ffffffffffffffffffffffffffffffffffffffff168173ffffffffffffffffffffffffffffffffffffffff160361181e5760006040517f1e4fbdf700000000000000000000000000000000000000000000000000000000815260040161181591906123ac565b60405180910390fd5b61182781611913565b50565b60007f19457468657265756d205369676e6564204d6573736167653a0a33320000000060005281601c52603c6000209050919050565b60008060008061187086866119d7565b9250925092506118808282611a33565b82935050505092915050565b611894611b97565b73ffffffffffffffffffffffffffffffffffffffff166118b26112f2565b73ffffffffffffffffffffffffffffffffffffffff1614611911576118d5611b97565b6040517f118cdaa700000000000000000000000000000000000000000000000000000000815260040161190891906123ac565b60405180910390fd5b565b60008060009054906101000a900473ffffffffffffffffffffffffffffffffffffffff169050816000806101000a81548173ffffffffffffffffffffffffffffffffffffffff021916908373ffffffffffffffffffffffffffffffffffffffff1602179055508173ffffffffffffffffffffffffffffffffffffffff168173ffffffffffffffffffffffffffffffffffffffff167f8be0079c531659141344cd1fd0a4f28419497f9722a3daafe3b4186f6b6457e060405160405180910390a35050565b60008060006041845103611a1c5760008060006020870151925060408701519150606087015160001a9050611a0e88828585611b9f565b955095509550505050611a2c565b60006002855160001b9250925092505b9250925092565b60006003811115611a4757611a46612c23565b5b826003811115611a5a57611a59612c23565b5b0315611b935760016003811115611a7457611a73612c23565b5b826003811115611a8757611a86612c23565b5b03611abe576040517ff645eedf00000000000000000000000000000000000000000000000000000000815260040160405180910390fd5b60026003811115611ad257611ad1612c23565b5b826003811115611ae557611ae4612c23565b5b03611b2a578060001c6040517ffce698f7000000000000000000000000000000000000000000000000000000008152600401611b219190612c52565b60405180910390fd5b600380811115611b3d57611b3c612c23565b5b826003811115611b5057611b4f612c23565b5b03611b9257806040517fd78bce0c000000000000000000000000000000000000000000000000000000008152600401611b899190612c7c565b60405180910390fd5b5b5050565b600033905090565b60008060007f7fffffffffffffffffffffffffffffff5d576e7357a4501ddfe92f46681b20a08460001c1115611bdf576000600385925092509250611c89565b600060018888888860405160008152602001604052604051611c049493929190612cb3565b6020604051602081039080840390855afa158015611c26573d6000803e3d6000fd5b505050602060405103519050600073ffffffffffffffffffffffffffffffffffffffff168173ffffffffffffffffffffffffffffffffffffffff1603611c7a57600060016000801b93509350935050611c89565b8060008060001b935093509350505b9450945094915050565b6040518060c0016040528060608152602001600073ffffffffffffffffffffffffffffffffffffffff1681526020016060815260200160008152602001600081526020016000151581525090565b6000604051905090565b600080fd5b600080fd5b600080fd5b600080fd5b6000601f19601f8301169050919050565b7f4e487b7100000000000000000000000000000000000000000000000000000000600052604160045260246000fd5b611d4882611cff565b810181811067ffffffffffffffff82111715611d6757611d66611d10565b5b80604052505050565b6000611d7a611ce1565b9050611d868282611d3f565b919050565b600067ffffffffffffffff821115611da657611da5611d10565b5b611daf82611cff565b9050602081019050919050565b82818337600083830152505050565b6000611dde611dd984611d8b565b611d70565b905082815260208101848484011115611dfa57611df9611cfa565b5b611e05848285611dbc565b509392505050565b600082601f830112611e2257611e21611cf5565b5b8135611e32848260208601611dcb565b91505092915050565b60008060408385031215611e5257611e51611ceb565b5b600083013567ffffffffffffffff811115611e7057611e6f611cf0565b5b611e7c85828601611e0d565b925050602083013567ffffffffffffffff811115611e9d57611e9c611cf0565b5b611ea985828601611e0d565b9150509250929050565b600060208284031215611ec957611ec8611ceb565b5b600082013567ffffffffffffffff811115611ee757611ee6611cf0565b5b611ef384828501611e0d565b91505092915050565b60008115159050919050565b611f1181611efc565b82525050565b6000602082019050611f2c6000830184611f08565b92915050565b600081519050919050565b600082825260208201905092915050565b60005b83811015611f6c578082015181840152602081019050611f51565b60008484015250505050565b6000611f8382611f32565b611f8d8185611f3d565b9350611f9d818560208601611f4e565b611fa681611cff565b840191505092915050565b600073ffffffffffffffffffffffffffffffffffffffff82169050919050565b6000611fdc82611fb1565b9050919050565b611fec81611fd1565b82525050565b6000819050919050565b61200581611ff2565b82525050565b600060c08201905081810360008301526120258189611f78565b90506120346020830188611fe3565b81810360408301526120468187611f78565b90506120556060830186611ffc565b6120626080830185611ffc565b61206f60a0830184611f08565b979650505050505050565b600067ffffffffffffffff82111561209557612094611d10565b5b61209e82611cff565b9050602081019050919050565b60006120be6120b98461207a565b611d70565b9050828152602081018484840111156120da576120d9611cfa565b5b6120e5848285611dbc565b509392505050565b600082601f83011261210257612101611cf5565b5b81356121128482602086016120ab565b91505092915050565b60008060006060848603121561213457612133611ceb565b5b600084013567ffffffffffffffff81111561215257612151611cf0565b5b61215e86828701611e0d565b935050602084013567ffffffffffffffff81111561217f5761217e611cf0565b5b61218b868287016120ed565b925050604084013567ffffffffffffffff8111156121ac576121ab611cf0565b5b6121b8868287016120ed565b9150509250925092565b6000819050919050565b6121d5816121c2565b81146121e057600080fd5b50565b6000813590506121f2816121cc565b92915050565b60008060006060848603121561221157612210611ceb565b5b600084013567ffffffffffffffff81111561222f5761222e611cf0565b5b61223b86828701611e0d565b935050602061224c868287016121e3565b925050604084013567ffffffffffffffff81111561226d5761226c611cf0565b5b612279868287016120ed565b9150509250925092565b600082825260208201905092915050565b600061229f82611f32565b6122a98185612283565b93506122b9818560208601611f4e565b6122c281611cff565b840191505092915050565b6122d681611fd1565b82525050565b6122e581611ff2565b82525050565b6122f481611efc565b82525050565b600060c08301600083015184820360008601526123178282612294565b915050602083015161232c60208601826122cd565b50604083015184820360408601526123448282612294565b915050606083015161235960608601826122dc565b50608083015161236c60808601826122dc565b5060a083015161237f60a08601826122eb565b508091505092915050565b600060208201905081810360008301526123a481846122fa565b905092915050565b60006020820190506123c16000830184611fe3565b92915050565b6123d081611fd1565b81146123db57600080fd5b50565b6000813590506123ed816123c7565b92915050565b6123fc81611ff2565b811461240757600080fd5b50565b600081359050612419816123f3565b92915050565b6000806040838503121561243657612435611ceb565b5b6000612444858286016123de565b92505060206124558582860161240a565b9150509250929050565b600060208201905081810360008301526124798184611f78565b905092915050565b60006020828403121561249757612496611ceb565b5b60006124a5848285016123de565b91505092915050565b600081519050919050565b600082825260208201905092915050565b6000819050602082019050919050565b60006124e68383612294565b905092915050565b6000602082019050919050565b6000612506826124ae565b61251081856124b9565b935083602082028501612522856124ca565b8060005b8581101561255e578484038952815161253f85826124da565b945061254a836124ee565b925060208a01995050600181019050612526565b50829750879550505050505092915050565b6000602082019050818103600083015261258a81846124fb565b905092915050565b7f4449442049442063616e6e6f7420626520656d70747900000000000000000000600082015250565b60006125c8601683611f3d565b91506125d382612592565b602082019050919050565b600060208201905081810360008301526125f7816125bb565b9050919050565b7f5075626c6963206b65792063616e6e6f7420626520656d707479000000000000600082015250565b6000612634601a83611f3d565b915061263f826125fe565b602082019050919050565b6000602082019050818103600083015261266381612627565b9050919050565b600081905092915050565b600061268082611f32565b61268a818561266a565b935061269a818560208601611f4e565b80840191505092915050565b60006126b28284612675565b915081905092915050565b7f44494420616c7265616479206578697374730000000000000000000000000000600082015250565b60006126f3601283611f3d565b91506126fe826126bd565b602082019050919050565b60006020820190508181036000830152612722816126e6565b9050919050565b7f4e487b7100000000000000000000000000000000000000000000000000000000600052602260045260246000fd5b6000600282049050600182168061277057607f821691505b60208210810361278357612782612729565b5b50919050565b60008190508160005260206000209050919050565b60006020601f8301049050919050565b600082821b905092915050565b6000600883026127eb7fffffffffffffffffffffffffffffffffffffffffffffffffffffffffffffffff826127ae565b6127f586836127ae565b95508019841693508086168417925050509392505050565b6000819050919050565b600061283261282d61282884611ff2565b61280d565b611ff2565b9050919050565b6000819050919050565b61284c83612817565b61286061285882612839565b8484546127bb565b825550505050565b600090565b612875612868565b612880818484612843565b505050565b5b818110156128a45761289960008261286d565b600181019050612886565b5050565b601f8211156128e9576128ba81612789565b6128c38461279e565b810160208510156128d2578190505b6128e66128de8561279e565b830182612885565b50505b505050565b600082821c905092915050565b600061290c600019846008026128ee565b1980831691505092915050565b600061292583836128fb565b9150826002028217905092915050565b61293e82611f32565b67ffffffffffffffff81111561295757612956611d10565b5b6129618254612758565b61296c8282856128a8565b600060209050601f83116001811461299f576000841561298d578287015190505b6129978582612919565b8655506129ff565b601f1984166129ad86612789565b60005b828110156129d5578489015182556001820191506020850194506020810190506129b0565b868310156129f257848901516129ee601f8916826128fb565b8355505b6001600288020188555050505b505050505050565b7f44494420646f6573206e6f742065786973740000000000000000000000000000600082015250565b6000612a3d601283611f3d565b9150612a4882612a07565b602082019050919050565b60006020820190508181036000830152612a6c81612a30565b9050919050565b7f4e6f742044494420636f6e74726f6c6c65720000000000000000000000000000600082015250565b6000612aa9601283611f3d565b9150612ab482612a73565b602082019050919050565b60006020820190508181036000830152612ad881612a9c565b9050919050565b7f444944206e6f7420616374697665000000000000000000000000000000000000600082015250565b6000612b15600e83611f3d565b9150612b2082612adf565b602082019050919050565b60006020820190508181036000830152612b4481612b08565b9050919050565b7f49737375657220444944206e6f74206163746976650000000000000000000000600082015250565b6000612b81601583611f3d565b9150612b8c82612b4b565b602082019050919050565b60006020820190508181036000830152612bb081612b74565b9050919050565b7f49737375657220616c7265616479207472757374656400000000000000000000600082015250565b6000612bed601683611f3d565b9150612bf882612bb7565b602082019050919050565b60006020820190508181036000830152612c1c81612be0565b9050919050565b7f4e487b7100000000000000000000000000000000000000000000000000000000600052602160045260246000fd5b6000602082019050612c676000830184611ffc565b92915050565b612c76816121c2565b82525050565b6000602082019050612c916000830184612c6d565b92915050565b600060ff82169050919050565b612cad81612c97565b82525050565b6000608082019050612cc86000830187612c6d565b612cd56020830186612ca4565b612ce26040830185612c6d565b612cef6060830184612c6d565b9594505050505056fea2646970667358221220f047adbd26ed358eed67bf87fe3b32853597e492027fa33fae0c64af73057d8d64736f6c634300081a0033",
  "immutableReferences": {},
  "source": "// SPDX-License-Identifier: MIT\npragma solidity ^0.8.19;\n\nimport \"@openzeppelin/contracts/utils/cryptography/ECDSA.sol\";\nimport \"@openzeppelin/contracts/utils/cryptography/MessageHashUtils.sol\";\nimport \"@openzeppelin/contracts/access/Ownable.sol\";\n\ncontract DIDRegistry is Ownable {\n    using ECDSA for bytes32;\n    using MessageHashUtils for bytes32;\n\n    struct DIDDocument {\n        string id;\n        address controller;\n        string publicKey;\n        uint256 created;\n        uint256 updated;\n        bool isActive;\n    }\n\n    mapping(string => DIDDocument) public didDocuments;\n    mapping(address => string[]) public controllerToDIDs;\n    mapping(string => bool) public trustedIssuers;\n\n    event DIDCreated(string indexed didId, address indexed controller, string publicKey);\n    event DIDUpdated(string indexed didId);\n    event DIDDeactivated(string indexed didId);\n    event TrustedIssuerAdded(string indexed issuerDID);\n    event TrustedIssuerRemoved(string indexed issuerDID);\n\n    constructor() Ownable(msg.sender) {}\n\n    modifier onlyDIDController(string memory didId) {\n        require(didDocuments[didId].controller == msg.sender, \"Not DID controller\");\n        require(didDocuments[didId].isActive, \"DID not active\");\n        _;\n    }\n\n    modifier didExists(string memory didId) {\n        require(didDocuments[didId].controller != address(0), \"DID does not exist\");\n        _;\n    }\n\n    function createDID(string memory didId, string memory publicKey) external {\n        require(bytes(didId).length > 0, \"DID ID cannot be empty\");\n        require(bytes(publicKey).length > 0, \"Public key cannot be empty\");\n        require(didDocuments[didId].controller == address(0), \"DID already exists\");\n\n        didDocuments[didId] = DIDDocument({\n            id: didId,\n            controller: msg.sender,\n            publicKey: publicKey,\n            created: block.timestamp,\n            updated: block.timestamp,\n            isActive: true\n        });\n\n        controllerToDIDs[msg.sender].push(didId);\n\n        emit DIDCreated(didId, msg.sender, publicKey);\n    }\n\n    function updateDID(string memory didId, string memory newPublicKey) external onlyDIDController(didId) {\n        require(bytes(newPublicKey).length > 0, \"Public key cannot be empty\");\n        \n        didDocuments[didId].publicKey = newPublicKey;\n        didDocuments[didId].updated = block.timestamp;\n        \n        emit DIDUpdated(didId);\n    }\n\n    function deactivateDID(string memory didId) external onlyDIDController(didId) {\n        didDocuments[didId].isActive = false;\n        didDocuments[didId].updated = block.timestamp;\n        emit DIDDeactivated(didId);\n    }\n\n    function addTrustedIssuer(string memory issuerDID) external onlyOwner {\n        require(didDocuments[issuerDID].isActive, \"Issuer DID not active\");\n        require(!trustedIssuers[issuerDID], \"Issuer already trusted\");\n        trustedIssuers[issuerDID] = true;\n        emit TrustedIssuerAdded(issuerDID);\n    }\n\n    function removeTrustedIssuer(string memory issuerDID) external onlyOwner {\n        trustedIssuers[issuerDID] = false;\n        emit TrustedIssuerRemoved(issuerDID);\n    }\n\n    function verifySignature(string memory didId, bytes32 messageHash, bytes memory signature\n    ) external view didExists(didId) returns (bool) {\n        require(didDocuments[didId].isActive, \"DID not active\");\n\n        bytes32 ethSignedMessageHash = messageHash.toEthSignedMessageHash();\n        address recoveredSigner = ethSignedMessageHash.recover(signature);\n        return recoveredSigner == didDocuments[didId].controller;\n    }\n\n    function verifyDataSignature(string memory didId, bytes memory data, bytes memory signature\n    ) external view didExists(didId) returns (bool) {\n        require(didDocuments[didId].isActive, \"DID not active\");\n        \n        bytes32 dataHash = keccak256(data);\n        bytes32 ethSignedMessageHash = dataHash.toEthSignedMessageHash();\n\n        address recoveredSigner = ethSignedMessageHash.recover(signature);\n        return recoveredSigner == didDocuments[didId].controller;\n    }\n\n    function getDIDDocument(string memory didId) external view didExists(didId) returns (DIDDocument memory) {\n        return didDocuments[didId];\n    }\n\n    function isTrustedIssuer(string memory didId) external view returns (bool) {\n        return trustedIssuers[didId] && didDocuments[didId].isActive;\n    }\n\n    function getDIDsByController(address controller) external view returns (string[] memory) {\n        return controllerToDIDs[controller];\n    }\n\n    function isDIDActive(string memory didId) external view didExists(didId) returns (bool) {\n        return didDocuments[didId].isActive;\n    }\n\n    \n}\n",
  "sourcePath": "/Users/raphaelabderrahmani/Desktop/Blockchain/Code/DID-project/contracts/DIDRegistry.sol",
  "compiler": {
    "name": "solc",
    "version": "0.8.26+commit.8a97fa7a.Emscripten.clang"
  },
  "schemaVersion": "3.4.16",
  "updatedAt": "2025-07-30T10:55:44.571Z",
  "networkType": "ethereum",
  "devdoc": {
    "errors": {
      "ECDSAInvalidSignature()": [
        {
          "details": "The signature derives the `address(0)`."
        }
      ],
      "ECDSAInvalidSignatureLength(uint256)": [
        {
          "details": "The signature has an invalid length."
        }
      ],
      "ECDSAInvalidSignatureS(bytes32)": [
        {
          "details": "The signature has an S value that is in the upper half order."
        }
      ],
      "OwnableInvalidOwner(address)": [
        {
          "details": "The owner is not a valid owner account. (eg. `address(0)`)"
        }
      ],
      "OwnableUnauthorizedAccount(address)": [
        {
          "details": "The caller account is not authorized to perform an operation."
        }
      ]
    },
    "kind": "dev",
    "methods": {
      "owner()": {
        "details": "Returns the address of the current owner."
      },
      "renounceOwnership()": {
        "details": "Leaves the contract without owner. It will not be possible to call `onlyOwner` functions. Can only be called by the current owner. NOTE: Renouncing ownership will leave the contract without an owner, thereby disabling any functionality that is only available to the owner."
      },
      "transferOwnership(address)": {
        "details": "Transfers ownership of the contract to a new account (`newOwner`). Can only be called by the current owner."
      }
    },
    "version": 1
  },
  "userdoc": {
    "kind": "user",
    "methods": {},
    "version": 1
  }
}